{"contracts/SettlementContract.sol":{"SettlementContract":{"abi":[{"inputs":[],"stateMutability":"nonpayable","type":"constructor"},{"inputs":[{"internalType":"address","name":"owner","type":"address"}],"name":"OwnableInvalidOwner","type":"error"},{"inputs":[{"internalType":"address","name":"account","type":"address"}],"name":"OwnableUnauthorizedAccount","type":"error"},{"anonymous":false,"inputs":[{"indexed":true,"internalType":"address","name":"previousOwner","type":"address"},{"indexed":true,"internalType":"address","name":"newOwner","type":"address"}],"name":"OwnershipTransferred","type":"event"},{"inputs":[{"components":[{"internalType":"address","name":"settlementContract","type":"address"},{"internalType":"address","name":"swapper","type":"address"},{"internalType":"uint256","name":"nonce","type":"uint256"},{"internalType":"uint32","name":"originChainId","type":"uint32"},{"internalType":"uint32","name":"initiateDeadline","type":"uint32"},{"internalType":"uint32","name":"fillDeadline","type":"uint32"},{"internalType":"bytes","name":"orderData","type":"bytes"}],"internalType":"struct CrossChainOrder","name":"order","type":"tuple"}],"name":"computeHash","outputs":[{"internalType":"bytes32","name":"","type":"bytes32"}],"stateMutability":"pure","type":"function"},{"inputs":[{"components":[{"internalType":"address","name":"settlementContract","type":"address"},{"internalType":"address","name":"swapper","type":"address"},{"internalType":"uint256","name":"nonce","type":"uint256"},{"internalType":"uint32","name":"originChainId","type":"uint32"},{"internalType":"uint32","name":"initiateDeadline","type":"uint32"},{"internalType":"uint32","name":"fillDeadline","type":"uint32"},{"internalType":"bytes","name":"orderData","type":"bytes"}],"internalType":"struct CrossChainOrder","name":"order","type":"tuple"},{"internalType":"bytes","name":"signature","type":"bytes"},{"internalType":"bytes","name":"fillerData","type":"bytes"}],"name":"initiate","outputs":[],"stateMutability":"nonpayable","type":"function"},{"inputs":[{"internalType":"address","name":"user","type":"address"}],"name":"nonceOf","outputs":[{"internalType":"uint256","name":"","type":"uint256"}],"stateMutability":"nonpayable","type":"function"},{"inputs":[],"name":"owner","outputs":[{"internalType":"address","name":"","type":"address"}],"stateMutability":"view","type":"function"},{"inputs":[],"name":"renounceOwnership","outputs":[],"stateMutability":"nonpayable","type":"function"},{"inputs":[{"components":[{"internalType":"address","name":"settlementContract","type":"address"},{"internalType":"address","name":"swapper","type":"address"},{"internalType":"uint256","name":"nonce","type":"uint256"},{"internalType":"uint32","name":"originChainId","type":"uint32"},{"internalType":"uint32","name":"initiateDeadline","type":"uint32"},{"internalType":"uint32","name":"fillDeadline","type":"uint32"},{"internalType":"bytes","name":"orderData","type":"bytes"}],"internalType":"struct CrossChainOrder","name":"order","type":"tuple"},{"internalType":"bytes","name":"fillerData","type":"bytes"}],"name":"resolve","outputs":[{"components":[{"internalType":"address","name":"settlementContract","type":"address"},{"internalType":"address","name":"swapper","type":"address"},{"internalType":"uint256","name":"nonce","type":"uint256"},{"internalType":"uint32","name":"originChainId","type":"uint32"},{"internalType":"uint32","name":"initiateDeadline","type":"uint32"},{"internalType":"uint32","name":"fillDeadline","type":"uint32"},{"components":[{"internalType":"address","name":"token","type":"address"},{"internalType":"uint256","name":"amount","type":"uint256"}],"internalType":"struct Input[]","name":"swapperInputs","type":"tuple[]"},{"components":[{"internalType":"address","name":"token","type":"address"},{"internalType":"uint256","name":"amount","type":"uint256"},{"internalType":"address","name":"recipient","type":"address"},{"internalType":"uint32","name":"chainId","type":"uint32"}],"internalType":"struct Output[]","name":"swapperOutputs","type":"tuple[]"},{"components":[{"internalType":"address","name":"token","type":"address"},{"internalType":"uint256","name":"amount","type":"uint256"},{"internalType":"address","name":"recipient","type":"address"},{"internalType":"uint32","name":"chainId","type":"uint32"}],"internalType":"struct Output[]","name":"fillerOutputs","type":"tuple[]"}],"internalType":"struct ResolvedCrossChainOrder","name":"","type":"tuple"}],"stateMutability":"view","type":"function"},{"inputs":[{"internalType":"address","name":"newOwner","type":"address"}],"name":"transferOwnership","outputs":[],"stateMutability":"nonpayable","type":"function"},{"inputs":[{"internalType":"address","name":"settlementContract","type":"address"},{"internalType":"uint256","name":"chainId","type":"uint256"}],"name":"whitelistSettlementContract","outputs":[],"stateMutability":"nonpayable","type":"function"}],"devdoc":{"errors":{"OwnableInvalidOwner(address)":[{"details":"The owner is not a valid owner account. (eg. `address(0)`)"}],"OwnableUnauthorizedAccount(address)":[{"details":"The caller account is not authorized to perform an operation."}]},"kind":"dev","methods":{"owner()":{"details":"Returns the address of the current owner."},"renounceOwnership()":{"details":"Leaves the contract without owner. It will not be possible to call `onlyOwner` functions. Can only be called by the current owner. NOTE: Renouncing ownership will leave the contract without an owner, thereby disabling any functionality that is only available to the owner."},"transferOwnership(address)":{"details":"Transfers ownership of the contract to a new account (`newOwner`). Can only be called by the current owner."}},"version":1},"evm":{"bytecode":{"linkReferences":{},"object":"608060405234801561001057600080fd5b50338061003757604051631e4fbdf760e01b81526000600482015260240160405180910390fd5b61004081610046565b50610096565b600080546001600160a01b038381166001600160a01b0319831681178455604051919092169283917f8be0079c531659141344cd1fd0a4f28419497f9722a3daafe3b4186f6b6457e09190a35050565b61092b806100a56000396000f3fe608060405234801561001057600080fd5b50600436106100885760003560e01c806397b2b09f1161005b57806397b2b09f146100ed578063bf6d01d314610100578063ed2a2d6414610120578063f2fde38b1461014957600080fd5b806344b438a71461008d578063715018a6146100b35780638da5cb5b146100bd578063962fc2a3146100d8575b600080fd5b6100a061009b366004610344565b61015c565b6040519081526020015b60405180910390f35b6100bb610175565b005b6000546040516001600160a01b0390911681526020016100aa565b6100bb6100e63660046103ca565b5050505050565b6100bb6100fb36600461047b565b610189565b61011361010e3660046104a5565b6101c2565b6040516100aa91906105c3565b6100a061012e3660046106a2565b6001600160a01b031660009081526004602052604090205490565b6100bb6101573660046106a2565b61023c565b600061016f61016a8361079d565b61027f565b92915050565b61017d6102af565b61018760006102dc565b565b6101916102af565b6001600160a01b039091166000908152600160208181526040808420805460ff191690931790925560029052902055565b61023560405180610120016040528060006001600160a01b0316815260200160006001600160a01b0316815260200160008152602001600063ffffffff168152602001600063ffffffff168152602001600063ffffffff1681526020016060815260200160608152602001606081525090565b9392505050565b6102446102af565b6001600160a01b03811661027357604051631e4fbdf760e01b8152600060048201526024015b60405180910390fd5b61027c816102dc565b50565b6000816040516020016102929190610842565b604051602081830303815290604052805190602001209050919050565b6000546001600160a01b031633146101875760405163118cdaa760e01b815233600482015260240161026a565b600080546001600160a01b038381166001600160a01b0319831681178455604051919092169283917f8be0079c531659141344cd1fd0a4f28419497f9722a3daafe3b4186f6b6457e09190a35050565b600060e0828403121561033e57600080fd5b50919050565b60006020828403121561035657600080fd5b813567ffffffffffffffff81111561036d57600080fd5b6103798482850161032c565b949350505050565b60008083601f84011261039357600080fd5b50813567ffffffffffffffff8111156103ab57600080fd5b6020830191508360208285010111156103c357600080fd5b9250929050565b6000806000806000606086880312156103e257600080fd5b853567ffffffffffffffff808211156103fa57600080fd5b61040689838a0161032c565b9650602088013591508082111561041c57600080fd5b61042889838a01610381565b9096509450604088013591508082111561044157600080fd5b5061044e88828901610381565b969995985093965092949392505050565b80356001600160a01b038116811461047657600080fd5b919050565b6000806040838503121561048e57600080fd5b6104978361045f565b946020939093013593505050565b6000806000604084860312156104ba57600080fd5b833567ffffffffffffffff808211156104d257600080fd5b6104de8783880161032c565b945060208601359150808211156104f457600080fd5b5061050186828701610381565b9497909650939450505050565b60008151808452602080850194506020840160005b8381101561055357815180516001600160a01b031688528301518388015260409096019590820190600101610523565b509495945050505050565b60008151808452602080850194506020840160005b8381101561055357815180516001600160a01b03908116895284820151858a01526040808301519091169089015260609081015163ffffffff169088015260809096019590820190600101610573565b602081526105dd6020820183516001600160a01b03169052565b600060208301516105f960408401826001600160a01b03169052565b5060408301516060830152606083015161061b608084018263ffffffff169052565b50608083015163ffffffff811660a08401525060a083015163ffffffff811660c08401525060c08301516101208060e085015261065c61014085018361050e565b915060e0850151601f1961010081878603018188015261067c858461055e565b908801518782039092018488015293509050610698838261055e565b9695505050505050565b6000602082840312156106b457600080fd5b6102358261045f565b634e487b7160e01b600052604160045260246000fd5b60405160e0810167ffffffffffffffff811182821017156106f6576106f66106bd565b60405290565b803563ffffffff8116811461047657600080fd5b600082601f83011261072157600080fd5b813567ffffffffffffffff8082111561073c5761073c6106bd565b604051601f8301601f19908116603f01168101908282118183101715610764576107646106bd565b8160405283815286602085880101111561077d57600080fd5b836020870160208301376000602085830101528094505050505092915050565b600060e082360312156107af57600080fd5b6107b76106d3565b6107c08361045f565b81526107ce6020840161045f565b6020820152604083013560408201526107e9606084016106fc565b60608201526107fa608084016106fc565b608082015261080b60a084016106fc565b60a082015260c083013567ffffffffffffffff81111561082a57600080fd5b61083636828601610710565b60c08301525092915050565b6000602080835260018060a01b038085511660208501528060208601511660408501525060408401516060840152606084015163ffffffff80821660808601528060808701511660a08601528060a08701511660c0860152505060c084015160e08085015280518061010086015260005b818110156108d057828101840151868201610120015283016108b3565b506101209250600083828701015282601f19601f83011686010193505050509291505056fea2646970667358221220aadd3233edf3b820b96df9fea60b8912b271ed340f70967028aa023724d23c8864736f6c63430008160033","opcodes":"PUSH1 0x80 PUSH1 0x40 MSTORE CALLVALUE DUP1 ISZERO PUSH2 0x10 JUMPI PUSH1 0x0 DUP1 REVERT JUMPDEST POP CALLER DUP1 PUSH2 0x37 JUMPI PUSH1 0x40 MLOAD PUSH4 0x1E4FBDF7 PUSH1 0xE0 SHL DUP2 MSTORE PUSH1 0x0 PUSH1 0x4 DUP3 ADD MSTORE PUSH1 0x24 ADD PUSH1 0x40 MLOAD DUP1 SWAP2 SUB SWAP1 REVERT JUMPDEST PUSH2 0x40 DUP2 PUSH2 0x46 JUMP JUMPDEST POP PUSH2 0x96 JUMP JUMPDEST PUSH1 0x0 DUP1 SLOAD PUSH1 0x1 PUSH1 0x1 PUSH1 0xA0 SHL SUB DUP4 DUP2 AND PUSH1 0x1 PUSH1 0x1 PUSH1 0xA0 SHL SUB NOT DUP4 AND DUP2 OR DUP5 SSTORE PUSH1 0x40 MLOAD SWAP2 SWAP1 SWAP3 AND SWAP3 DUP4 SWAP2 PUSH32 0x8BE0079C531659141344CD1FD0A4F28419497F9722A3DAAFE3B4186F6B6457E0 SWAP2 SWAP1 LOG3 POP POP JUMP JUMPDEST PUSH2 0x92B DUP1 PUSH2 0xA5 PUSH1 0x0 CODECOPY PUSH1 0x0 RETURN INVALID PUSH1 0x80 PUSH1 0x40 MSTORE CALLVALUE DUP1 ISZERO PUSH2 0x10 JUMPI PUSH1 0x0 DUP1 REVERT JUMPDEST POP PUSH1 0x4 CALLDATASIZE LT PUSH2 0x88 JUMPI PUSH1 0x0 CALLDATALOAD PUSH1 0xE0 SHR DUP1 PUSH4 0x97B2B09F GT PUSH2 0x5B JUMPI DUP1 PUSH4 0x97B2B09F EQ PUSH2 0xED JUMPI DUP1 PUSH4 0xBF6D01D3 EQ PUSH2 0x100 JUMPI DUP1 PUSH4 0xED2A2D64 EQ PUSH2 0x120 JUMPI DUP1 PUSH4 0xF2FDE38B EQ PUSH2 0x149 JUMPI PUSH1 0x0 DUP1 REVERT JUMPDEST DUP1 PUSH4 0x44B438A7 EQ PUSH2 0x8D JUMPI DUP1 PUSH4 0x715018A6 EQ PUSH2 0xB3 JUMPI DUP1 PUSH4 0x8DA5CB5B EQ PUSH2 0xBD JUMPI DUP1 PUSH4 0x962FC2A3 EQ PUSH2 0xD8 JUMPI JUMPDEST PUSH1 0x0 DUP1 REVERT JUMPDEST PUSH2 0xA0 PUSH2 0x9B CALLDATASIZE PUSH1 0x4 PUSH2 0x344 JUMP JUMPDEST PUSH2 0x15C JUMP JUMPDEST PUSH1 0x40 MLOAD SWAP1 DUP2 MSTORE PUSH1 0x20 ADD JUMPDEST PUSH1 0x40 MLOAD DUP1 SWAP2 SUB SWAP1 RETURN JUMPDEST PUSH2 0xBB PUSH2 0x175 JUMP JUMPDEST STOP JUMPDEST PUSH1 0x0 SLOAD PUSH1 0x40 MLOAD PUSH1 0x1 PUSH1 0x1 PUSH1 0xA0 SHL SUB SWAP1 SWAP2 AND DUP2 MSTORE PUSH1 0x20 ADD PUSH2 0xAA JUMP JUMPDEST PUSH2 0xBB PUSH2 0xE6 CALLDATASIZE PUSH1 0x4 PUSH2 0x3CA JUMP JUMPDEST POP POP POP POP POP JUMP JUMPDEST PUSH2 0xBB PUSH2 0xFB CALLDATASIZE PUSH1 0x4 PUSH2 0x47B JUMP JUMPDEST PUSH2 0x189 JUMP JUMPDEST PUSH2 0x113 PUSH2 0x10E CALLDATASIZE PUSH1 0x4 PUSH2 0x4A5 JUMP JUMPDEST PUSH2 0x1C2 JUMP JUMPDEST PUSH1 0x40 MLOAD PUSH2 0xAA SWAP2 SWAP1 PUSH2 0x5C3 JUMP JUMPDEST PUSH2 0xA0 PUSH2 0x12E CALLDATASIZE PUSH1 0x4 PUSH2 0x6A2 JUMP JUMPDEST PUSH1 0x1 PUSH1 0x1 PUSH1 0xA0 SHL SUB AND PUSH1 0x0 SWAP1 DUP2 MSTORE PUSH1 0x4 PUSH1 0x20 MSTORE PUSH1 0x40 SWAP1 KECCAK256 SLOAD SWAP1 JUMP JUMPDEST PUSH2 0xBB PUSH2 0x157 CALLDATASIZE PUSH1 0x4 PUSH2 0x6A2 JUMP JUMPDEST PUSH2 0x23C JUMP JUMPDEST PUSH1 0x0 PUSH2 0x16F PUSH2 0x16A DUP4 PUSH2 0x79D JUMP JUMPDEST PUSH2 0x27F JUMP JUMPDEST SWAP3 SWAP2 POP POP JUMP JUMPDEST PUSH2 0x17D PUSH2 0x2AF JUMP JUMPDEST PUSH2 0x187 PUSH1 0x0 PUSH2 0x2DC JUMP JUMPDEST JUMP JUMPDEST PUSH2 0x191 PUSH2 0x2AF JUMP JUMPDEST PUSH1 0x1 PUSH1 0x1 PUSH1 0xA0 SHL SUB SWAP1 SWAP2 AND PUSH1 0x0 SWAP1 DUP2 MSTORE PUSH1 0x1 PUSH1 0x20 DUP2 DUP2 MSTORE PUSH1 0x40 DUP1 DUP5 KECCAK256 DUP1 SLOAD PUSH1 0xFF NOT AND SWAP1 SWAP4 OR SWAP1 SWAP3 SSTORE PUSH1 0x2 SWAP1 MSTORE SWAP1 KECCAK256 SSTORE JUMP JUMPDEST PUSH2 0x235 PUSH1 0x40 MLOAD DUP1 PUSH2 0x120 ADD PUSH1 0x40 MSTORE DUP1 PUSH1 0x0 PUSH1 0x1 PUSH1 0x1 PUSH1 0xA0 SHL SUB AND DUP2 MSTORE PUSH1 0x20 ADD PUSH1 0x0 PUSH1 0x1 PUSH1 0x1 PUSH1 0xA0 SHL SUB AND DUP2 MSTORE PUSH1 0x20 ADD PUSH1 0x0 DUP2 MSTORE PUSH1 0x20 ADD PUSH1 0x0 PUSH4 0xFFFFFFFF AND DUP2 MSTORE PUSH1 0x20 ADD PUSH1 0x0 PUSH4 0xFFFFFFFF AND DUP2 MSTORE PUSH1 0x20 ADD PUSH1 0x0 PUSH4 0xFFFFFFFF AND DUP2 MSTORE PUSH1 0x20 ADD PUSH1 0x60 DUP2 MSTORE PUSH1 0x20 ADD PUSH1 0x60 DUP2 MSTORE PUSH1 0x20 ADD PUSH1 0x60 DUP2 MSTORE POP SWAP1 JUMP JUMPDEST SWAP4 SWAP3 POP POP POP JUMP JUMPDEST PUSH2 0x244 PUSH2 0x2AF JUMP JUMPDEST PUSH1 0x1 PUSH1 0x1 PUSH1 0xA0 SHL SUB DUP2 AND PUSH2 0x273 JUMPI PUSH1 0x40 MLOAD PUSH4 0x1E4FBDF7 PUSH1 0xE0 SHL DUP2 MSTORE PUSH1 0x0 PUSH1 0x4 DUP3 ADD MSTORE PUSH1 0x24 ADD JUMPDEST PUSH1 0x40 MLOAD DUP1 SWAP2 SUB SWAP1 REVERT JUMPDEST PUSH2 0x27C DUP2 PUSH2 0x2DC JUMP JUMPDEST POP JUMP JUMPDEST PUSH1 0x0 DUP2 PUSH1 0x40 MLOAD PUSH1 0x20 ADD PUSH2 0x292 SWAP2 SWAP1 PUSH2 0x842 JUMP JUMPDEST PUSH1 0x40 MLOAD PUSH1 0x20 DUP2 DUP4 SUB SUB DUP2 MSTORE SWAP1 PUSH1 0x40 MSTORE DUP1 MLOAD SWAP1 PUSH1 0x20 ADD KECCAK256 SWAP1 POP SWAP2 SWAP1 POP JUMP JUMPDEST PUSH1 0x0 SLOAD PUSH1 0x1 PUSH1 0x1 PUSH1 0xA0 SHL SUB AND CALLER EQ PUSH2 0x187 JUMPI PUSH1 0x40 MLOAD PUSH4 0x118CDAA7 PUSH1 0xE0 SHL DUP2 MSTORE CALLER PUSH1 0x4 DUP3 ADD MSTORE PUSH1 0x24 ADD PUSH2 0x26A JUMP JUMPDEST PUSH1 0x0 DUP1 SLOAD PUSH1 0x1 PUSH1 0x1 PUSH1 0xA0 SHL SUB DUP4 DUP2 AND PUSH1 0x1 PUSH1 0x1 PUSH1 0xA0 SHL SUB NOT DUP4 AND DUP2 OR DUP5 SSTORE PUSH1 0x40 MLOAD SWAP2 SWAP1 SWAP3 AND SWAP3 DUP4 SWAP2 PUSH32 0x8BE0079C531659141344CD1FD0A4F28419497F9722A3DAAFE3B4186F6B6457E0 SWAP2 SWAP1 LOG3 POP POP JUMP JUMPDEST PUSH1 0x0 PUSH1 0xE0 DUP3 DUP5 SUB SLT ISZERO PUSH2 0x33E JUMPI PUSH1 0x0 DUP1 REVERT JUMPDEST POP SWAP2 SWAP1 POP JUMP JUMPDEST PUSH1 0x0 PUSH1 0x20 DUP3 DUP5 SUB SLT ISZERO PUSH2 0x356 JUMPI PUSH1 0x0 DUP1 REVERT JUMPDEST DUP2 CALLDATALOAD PUSH8 0xFFFFFFFFFFFFFFFF DUP2 GT ISZERO PUSH2 0x36D JUMPI PUSH1 0x0 DUP1 REVERT JUMPDEST PUSH2 0x379 DUP5 DUP3 DUP6 ADD PUSH2 0x32C JUMP JUMPDEST SWAP5 SWAP4 POP POP POP POP JUMP JUMPDEST PUSH1 0x0 DUP1 DUP4 PUSH1 0x1F DUP5 ADD SLT PUSH2 0x393 JUMPI PUSH1 0x0 DUP1 REVERT JUMPDEST POP DUP2 CALLDATALOAD PUSH8 0xFFFFFFFFFFFFFFFF DUP2 GT ISZERO PUSH2 0x3AB JUMPI PUSH1 0x0 DUP1 REVERT JUMPDEST PUSH1 0x20 DUP4 ADD SWAP2 POP DUP4 PUSH1 0x20 DUP3 DUP6 ADD ADD GT ISZERO PUSH2 0x3C3 JUMPI PUSH1 0x0 DUP1 REVERT JUMPDEST SWAP3 POP SWAP3 SWAP1 POP JUMP JUMPDEST PUSH1 0x0 DUP1 PUSH1 0x0 DUP1 PUSH1 0x0 PUSH1 0x60 DUP7 DUP9 SUB SLT ISZERO PUSH2 0x3E2 JUMPI PUSH1 0x0 DUP1 REVERT JUMPDEST DUP6 CALLDATALOAD PUSH8 0xFFFFFFFFFFFFFFFF DUP1 DUP3 GT ISZERO PUSH2 0x3FA JUMPI PUSH1 0x0 DUP1 REVERT JUMPDEST PUSH2 0x406 DUP10 DUP4 DUP11 ADD PUSH2 0x32C JUMP JUMPDEST SWAP7 POP PUSH1 0x20 DUP9 ADD CALLDATALOAD SWAP2 POP DUP1 DUP3 GT ISZERO PUSH2 0x41C JUMPI PUSH1 0x0 DUP1 REVERT JUMPDEST PUSH2 0x428 DUP10 DUP4 DUP11 ADD PUSH2 0x381 JUMP JUMPDEST SWAP1 SWAP7 POP SWAP5 POP PUSH1 0x40 DUP9 ADD CALLDATALOAD SWAP2 POP DUP1 DUP3 GT ISZERO PUSH2 0x441 JUMPI PUSH1 0x0 DUP1 REVERT JUMPDEST POP PUSH2 0x44E DUP9 DUP3 DUP10 ADD PUSH2 0x381 JUMP JUMPDEST SWAP7 SWAP10 SWAP6 SWAP9 POP SWAP4 SWAP7 POP SWAP3 SWAP5 SWAP4 SWAP3 POP POP POP JUMP JUMPDEST DUP1 CALLDATALOAD PUSH1 0x1 PUSH1 0x1 PUSH1 0xA0 SHL SUB DUP2 AND DUP2 EQ PUSH2 0x476 JUMPI PUSH1 0x0 DUP1 REVERT JUMPDEST SWAP2 SWAP1 POP JUMP JUMPDEST PUSH1 0x0 DUP1 PUSH1 0x40 DUP4 DUP6 SUB SLT ISZERO PUSH2 0x48E JUMPI PUSH1 0x0 DUP1 REVERT JUMPDEST PUSH2 0x497 DUP4 PUSH2 0x45F JUMP JUMPDEST SWAP5 PUSH1 0x20 SWAP4 SWAP1 SWAP4 ADD CALLDATALOAD SWAP4 POP POP POP JUMP JUMPDEST PUSH1 0x0 DUP1 PUSH1 0x0 PUSH1 0x40 DUP5 DUP7 SUB SLT ISZERO PUSH2 0x4BA JUMPI PUSH1 0x0 DUP1 REVERT JUMPDEST DUP4 CALLDATALOAD PUSH8 0xFFFFFFFFFFFFFFFF DUP1 DUP3 GT ISZERO PUSH2 0x4D2 JUMPI PUSH1 0x0 DUP1 REVERT JUMPDEST PUSH2 0x4DE DUP8 DUP4 DUP9 ADD PUSH2 0x32C JUMP JUMPDEST SWAP5 POP PUSH1 0x20 DUP7 ADD CALLDATALOAD SWAP2 POP DUP1 DUP3 GT ISZERO PUSH2 0x4F4 JUMPI PUSH1 0x0 DUP1 REVERT JUMPDEST POP PUSH2 0x501 DUP7 DUP3 DUP8 ADD PUSH2 0x381 JUMP JUMPDEST SWAP5 SWAP8 SWAP1 SWAP7 POP SWAP4 SWAP5 POP POP POP POP JUMP JUMPDEST PUSH1 0x0 DUP2 MLOAD DUP1 DUP5 MSTORE PUSH1 0x20 DUP1 DUP6 ADD SWAP5 POP PUSH1 0x20 DUP5 ADD PUSH1 0x0 JUMPDEST DUP4 DUP2 LT ISZERO PUSH2 0x553 JUMPI DUP2 MLOAD DUP1 MLOAD PUSH1 0x1 PUSH1 0x1 PUSH1 0xA0 SHL SUB AND DUP9 MSTORE DUP4 ADD MLOAD DUP4 DUP9 ADD MSTORE PUSH1 0x40 SWAP1 SWAP7 ADD SWAP6 SWAP1 DUP3 ADD SWAP1 PUSH1 0x1 ADD PUSH2 0x523 JUMP JUMPDEST POP SWAP5 SWAP6 SWAP5 POP POP POP POP POP JUMP JUMPDEST PUSH1 0x0 DUP2 MLOAD DUP1 DUP5 MSTORE PUSH1 0x20 DUP1 DUP6 ADD SWAP5 POP PUSH1 0x20 DUP5 ADD PUSH1 0x0 JUMPDEST DUP4 DUP2 LT ISZERO PUSH2 0x553 JUMPI DUP2 MLOAD DUP1 MLOAD PUSH1 0x1 PUSH1 0x1 PUSH1 0xA0 SHL SUB SWAP1 DUP2 AND DUP10 MSTORE DUP5 DUP3 ADD MLOAD DUP6 DUP11 ADD MSTORE PUSH1 0x40 DUP1 DUP4 ADD MLOAD SWAP1 SWAP2 AND SWAP1 DUP10 ADD MSTORE PUSH1 0x60 SWAP1 DUP2 ADD MLOAD PUSH4 0xFFFFFFFF AND SWAP1 DUP9 ADD MSTORE PUSH1 0x80 SWAP1 SWAP7 ADD SWAP6 SWAP1 DUP3 ADD SWAP1 PUSH1 0x1 ADD PUSH2 0x573 JUMP JUMPDEST PUSH1 0x20 DUP2 MSTORE PUSH2 0x5DD PUSH1 0x20 DUP3 ADD DUP4 MLOAD PUSH1 0x1 PUSH1 0x1 PUSH1 0xA0 SHL SUB AND SWAP1 MSTORE JUMP JUMPDEST PUSH1 0x0 PUSH1 0x20 DUP4 ADD MLOAD PUSH2 0x5F9 PUSH1 0x40 DUP5 ADD DUP3 PUSH1 0x1 PUSH1 0x1 PUSH1 0xA0 SHL SUB AND SWAP1 MSTORE JUMP JUMPDEST POP PUSH1 0x40 DUP4 ADD MLOAD PUSH1 0x60 DUP4 ADD MSTORE PUSH1 0x60 DUP4 ADD MLOAD PUSH2 0x61B PUSH1 0x80 DUP5 ADD DUP3 PUSH4 0xFFFFFFFF AND SWAP1 MSTORE JUMP JUMPDEST POP PUSH1 0x80 DUP4 ADD MLOAD PUSH4 0xFFFFFFFF DUP2 AND PUSH1 0xA0 DUP5 ADD MSTORE POP PUSH1 0xA0 DUP4 ADD MLOAD PUSH4 0xFFFFFFFF DUP2 AND PUSH1 0xC0 DUP5 ADD MSTORE POP PUSH1 0xC0 DUP4 ADD MLOAD PUSH2 0x120 DUP1 PUSH1 0xE0 DUP6 ADD MSTORE PUSH2 0x65C PUSH2 0x140 DUP6 ADD DUP4 PUSH2 0x50E JUMP JUMPDEST SWAP2 POP PUSH1 0xE0 DUP6 ADD MLOAD PUSH1 0x1F NOT PUSH2 0x100 DUP2 DUP8 DUP7 SUB ADD DUP2 DUP9 ADD MSTORE PUSH2 0x67C DUP6 DUP5 PUSH2 0x55E JUMP JUMPDEST SWAP1 DUP9 ADD MLOAD DUP8 DUP3 SUB SWAP1 SWAP3 ADD DUP5 DUP9 ADD MSTORE SWAP4 POP SWAP1 POP PUSH2 0x698 DUP4 DUP3 PUSH2 0x55E JUMP JUMPDEST SWAP7 SWAP6 POP POP POP POP POP POP JUMP JUMPDEST PUSH1 0x0 PUSH1 0x20 DUP3 DUP5 SUB SLT ISZERO PUSH2 0x6B4 JUMPI PUSH1 0x0 DUP1 REVERT JUMPDEST PUSH2 0x235 DUP3 PUSH2 0x45F JUMP JUMPDEST PUSH4 0x4E487B71 PUSH1 0xE0 SHL PUSH1 0x0 MSTORE PUSH1 0x41 PUSH1 0x4 MSTORE PUSH1 0x24 PUSH1 0x0 REVERT JUMPDEST PUSH1 0x40 MLOAD PUSH1 0xE0 DUP2 ADD PUSH8 0xFFFFFFFFFFFFFFFF DUP2 GT DUP3 DUP3 LT OR ISZERO PUSH2 0x6F6 JUMPI PUSH2 0x6F6 PUSH2 0x6BD JUMP JUMPDEST PUSH1 0x40 MSTORE SWAP1 JUMP JUMPDEST DUP1 CALLDATALOAD PUSH4 0xFFFFFFFF DUP2 AND DUP2 EQ PUSH2 0x476 JUMPI PUSH1 0x0 DUP1 REVERT JUMPDEST PUSH1 0x0 DUP3 PUSH1 0x1F DUP4 ADD SLT PUSH2 0x721 JUMPI PUSH1 0x0 DUP1 REVERT JUMPDEST DUP2 CALLDATALOAD PUSH8 0xFFFFFFFFFFFFFFFF DUP1 DUP3 GT ISZERO PUSH2 0x73C JUMPI PUSH2 0x73C PUSH2 0x6BD JUMP JUMPDEST PUSH1 0x40 MLOAD PUSH1 0x1F DUP4 ADD PUSH1 0x1F NOT SWAP1 DUP2 AND PUSH1 0x3F ADD AND DUP2 ADD SWAP1 DUP3 DUP3 GT DUP2 DUP4 LT OR ISZERO PUSH2 0x764 JUMPI PUSH2 0x764 PUSH2 0x6BD JUMP JUMPDEST DUP2 PUSH1 0x40 MSTORE DUP4 DUP2 MSTORE DUP7 PUSH1 0x20 DUP6 DUP9 ADD ADD GT ISZERO PUSH2 0x77D JUMPI PUSH1 0x0 DUP1 REVERT JUMPDEST DUP4 PUSH1 0x20 DUP8 ADD PUSH1 0x20 DUP4 ADD CALLDATACOPY PUSH1 0x0 PUSH1 0x20 DUP6 DUP4 ADD ADD MSTORE DUP1 SWAP5 POP POP POP POP POP SWAP3 SWAP2 POP POP JUMP JUMPDEST PUSH1 0x0 PUSH1 0xE0 DUP3 CALLDATASIZE SUB SLT ISZERO PUSH2 0x7AF JUMPI PUSH1 0x0 DUP1 REVERT JUMPDEST PUSH2 0x7B7 PUSH2 0x6D3 JUMP JUMPDEST PUSH2 0x7C0 DUP4 PUSH2 0x45F JUMP JUMPDEST DUP2 MSTORE PUSH2 0x7CE PUSH1 0x20 DUP5 ADD PUSH2 0x45F JUMP JUMPDEST PUSH1 0x20 DUP3 ADD MSTORE PUSH1 0x40 DUP4 ADD CALLDATALOAD PUSH1 0x40 DUP3 ADD MSTORE PUSH2 0x7E9 PUSH1 0x60 DUP5 ADD PUSH2 0x6FC JUMP JUMPDEST PUSH1 0x60 DUP3 ADD MSTORE PUSH2 0x7FA PUSH1 0x80 DUP5 ADD PUSH2 0x6FC JUMP JUMPDEST PUSH1 0x80 DUP3 ADD MSTORE PUSH2 0x80B PUSH1 0xA0 DUP5 ADD PUSH2 0x6FC JUMP JUMPDEST PUSH1 0xA0 DUP3 ADD MSTORE PUSH1 0xC0 DUP4 ADD CALLDATALOAD PUSH8 0xFFFFFFFFFFFFFFFF DUP2 GT ISZERO PUSH2 0x82A JUMPI PUSH1 0x0 DUP1 REVERT JUMPDEST PUSH2 0x836 CALLDATASIZE DUP3 DUP7 ADD PUSH2 0x710 JUMP JUMPDEST PUSH1 0xC0 DUP4 ADD MSTORE POP SWAP3 SWAP2 POP POP JUMP JUMPDEST PUSH1 0x0 PUSH1 0x20 DUP1 DUP4 MSTORE PUSH1 0x1 DUP1 PUSH1 0xA0 SHL SUB DUP1 DUP6 MLOAD AND PUSH1 0x20 DUP6 ADD MSTORE DUP1 PUSH1 0x20 DUP7 ADD MLOAD AND PUSH1 0x40 DUP6 ADD MSTORE POP PUSH1 0x40 DUP5 ADD MLOAD PUSH1 0x60 DUP5 ADD MSTORE PUSH1 0x60 DUP5 ADD MLOAD PUSH4 0xFFFFFFFF DUP1 DUP3 AND PUSH1 0x80 DUP7 ADD MSTORE DUP1 PUSH1 0x80 DUP8 ADD MLOAD AND PUSH1 0xA0 DUP7 ADD MSTORE DUP1 PUSH1 0xA0 DUP8 ADD MLOAD AND PUSH1 0xC0 DUP7 ADD MSTORE POP POP PUSH1 0xC0 DUP5 ADD MLOAD PUSH1 0xE0 DUP1 DUP6 ADD MSTORE DUP1 MLOAD DUP1 PUSH2 0x100 DUP7 ADD MSTORE PUSH1 0x0 JUMPDEST DUP2 DUP2 LT ISZERO PUSH2 0x8D0 JUMPI DUP3 DUP2 ADD DUP5 ADD MLOAD DUP7 DUP3 ADD PUSH2 0x120 ADD MSTORE DUP4 ADD PUSH2 0x8B3 JUMP JUMPDEST POP PUSH2 0x120 SWAP3 POP PUSH1 0x0 DUP4 DUP3 DUP8 ADD ADD MSTORE DUP3 PUSH1 0x1F NOT PUSH1 0x1F DUP4 ADD AND DUP7 ADD ADD SWAP4 POP POP POP POP SWAP3 SWAP2 POP POP JUMP INVALID LOG2 PUSH5 0x6970667358 0x22 SLT KECCAK256 0xAA 0xDD ORIGIN CALLER 0xED RETURN 0xB8 KECCAK256 0xB9 PUSH14 0xF9FEA60B8912B271ED340F709670 0x28 0xAA MUL CALLDATACOPY 0x24 0xD2 EXTCODECOPY DUP9 PUSH5 0x736F6C6343 STOP ADDMOD AND STOP CALLER "},"gasEstimates":{"creation":{"codeDepositCost":"469400","executionCost":"26368","totalCost":"495768"},"external":{"computeHash((address,address,uint256,uint32,uint32,uint32,bytes))":"infinite","initiate((address,address,uint256,uint32,uint32,uint32,bytes),bytes,bytes)":"infinite","nonceOf(address)":"2570","owner()":"2346","renounceOwnership()":"infinite","resolve((address,address,uint256,uint32,uint32,uint32,bytes),bytes)":"infinite","transferOwnership(address)":"28399","whitelistSettlementContract(address,uint256)":"48970"},"internal":{"_hashOrder(struct CrossChainOrder memory)":"infinite","_verifySignature(struct CrossChainOrder memory,bytes memory)":"infinite"}},"methodIdentifiers":{"computeHash((address,address,uint256,uint32,uint32,uint32,bytes))":"44b438a7","initiate((address,address,uint256,uint32,uint32,uint32,bytes),bytes,bytes)":"962fc2a3","nonceOf(address)":"ed2a2d64","owner()":"8da5cb5b","renounceOwnership()":"715018a6","resolve((address,address,uint256,uint32,uint32,uint32,bytes),bytes)":"bf6d01d3","transferOwnership(address)":"f2fde38b","whitelistSettlementContract(address,uint256)":"97b2b09f"}},"storageLayout":{"storage":[{"astId":1327,"contract":"contracts/SettlementContract.sol:SettlementContract","label":"_owner","offset":0,"slot":"0","type":"t_address"},{"astId":4211,"contract":"contracts/SettlementContract.sol:SettlementContract","label":"_isSettlementSupported","offset":0,"slot":"1","type":"t_mapping(t_address,t_bool)"},{"astId":4215,"contract":"contracts/SettlementContract.sol:SettlementContract","label":"_settlementToChainId","offset":0,"slot":"2","type":"t_mapping(t_address,t_uint256)"},{"astId":4243,"contract":"contracts/SettlementContract.sol:SettlementContract","label":"_orders","offset":0,"slot":"3","type":"t_mapping(t_bytes32,t_struct(CrossChainOrder)4309_storage)"},{"astId":4247,"contract":"contracts/SettlementContract.sol:SettlementContract","label":"_nonceOf","offset":0,"slot":"4","type":"t_mapping(t_address,t_uint256)"}],"types":{"t_address":{"encoding":"inplace","label":"address","numberOfBytes":"20"},"t_bool":{"encoding":"inplace","label":"bool","numberOfBytes":"1"},"t_bytes32":{"encoding":"inplace","label":"bytes32","numberOfBytes":"32"},"t_bytes_storage":{"encoding":"bytes","label":"bytes","numberOfBytes":"32"},"t_mapping(t_address,t_bool)":{"encoding":"mapping","key":"t_address","label":"mapping(address => bool)","numberOfBytes":"32","value":"t_bool"},"t_mapping(t_address,t_uint256)":{"encoding":"mapping","key":"t_address","label":"mapping(address => uint256)","numberOfBytes":"32","value":"t_uint256"},"t_mapping(t_bytes32,t_struct(CrossChainOrder)4309_storage)":{"encoding":"mapping","key":"t_bytes32","label":"mapping(bytes32 => struct CrossChainOrder)","numberOfBytes":"32","value":"t_struct(CrossChainOrder)4309_storage"},"t_struct(CrossChainOrder)4309_storage":{"encoding":"inplace","label":"struct CrossChainOrder","members":[{"astId":4290,"contract":"contracts/SettlementContract.sol:SettlementContract","label":"settlementContract","offset":0,"slot":"0","type":"t_address"},{"astId":4293,"contract":"contracts/SettlementContract.sol:SettlementContract","label":"swapper","offset":0,"slot":"1","type":"t_address"},{"astId":4296,"contract":"contracts/SettlementContract.sol:SettlementContract","label":"nonce","offset":0,"slot":"2","type":"t_uint256"},{"astId":4299,"contract":"contracts/SettlementContract.sol:SettlementContract","label":"originChainId","offset":0,"slot":"3","type":"t_uint32"},{"astId":4302,"contract":"contracts/SettlementContract.sol:SettlementContract","label":"initiateDeadline","offset":4,"slot":"3","type":"t_uint32"},{"astId":4305,"contract":"contracts/SettlementContract.sol:SettlementContract","label":"fillDeadline","offset":8,"slot":"3","type":"t_uint32"},{"astId":4308,"contract":"contracts/SettlementContract.sol:SettlementContract","label":"orderData","offset":0,"slot":"4","type":"t_bytes_storage"}],"numberOfBytes":"160"},"t_uint256":{"encoding":"inplace","label":"uint256","numberOfBytes":"32"},"t_uint32":{"encoding":"inplace","label":"uint32","numberOfBytes":"4"}}},"userdoc":{"kind":"user","methods":{"computeHash((address,address,uint256,uint32,uint32,uint32,bytes))":{"notice":" Order Hashing"},"constructor":{"notice":" Constructor"},"resolve((address,address,uint256,uint32,uint32,uint32,bytes),bytes)":{"notice":" Order Resolving"}},"version":1}}}}