{"contracts/SettlementContract.sol":{"SettlementContract":{"abi":[{"inputs":[],"stateMutability":"nonpayable","type":"constructor"},{"inputs":[],"name":"ECDSAInvalidSignature","type":"error"},{"inputs":[{"internalType":"uint256","name":"length","type":"uint256"}],"name":"ECDSAInvalidSignatureLength","type":"error"},{"inputs":[{"internalType":"bytes32","name":"s","type":"bytes32"}],"name":"ECDSAInvalidSignatureS","type":"error"},{"inputs":[{"internalType":"address","name":"owner","type":"address"}],"name":"OwnableInvalidOwner","type":"error"},{"inputs":[{"internalType":"address","name":"account","type":"address"}],"name":"OwnableUnauthorizedAccount","type":"error"},{"inputs":[],"name":"ReentrancyGuardReentrantCall","type":"error"},{"anonymous":false,"inputs":[{"indexed":true,"internalType":"bytes32","name":"orderHashA","type":"bytes32"},{"indexed":true,"internalType":"bytes32","name":"orderHashB","type":"bytes32"}],"name":"MatchDestroyed","type":"event"},{"anonymous":false,"inputs":[{"indexed":true,"internalType":"bytes32","name":"orderHash","type":"bytes32"},{"components":[{"internalType":"address","name":"settlementContract","type":"address"},{"internalType":"address","name":"swapper","type":"address"},{"internalType":"uint256","name":"nonce","type":"uint256"},{"internalType":"uint32","name":"originChainId","type":"uint32"},{"internalType":"uint32","name":"initiateDeadline","type":"uint32"},{"internalType":"uint32","name":"fillDeadline","type":"uint32"},{"internalType":"bytes","name":"orderData","type":"bytes"}],"indexed":false,"internalType":"struct CrossChainOrder","name":"order","type":"tuple"}],"name":"OrderCreated","type":"event"},{"anonymous":false,"inputs":[{"indexed":true,"internalType":"bytes32","name":"orderHash","type":"bytes32"}],"name":"OrderDeleted","type":"event"},{"anonymous":false,"inputs":[{"indexed":true,"internalType":"bytes32","name":"orderHashA","type":"bytes32"},{"indexed":true,"internalType":"bytes32","name":"orderHashB","type":"bytes32"},{"indexed":false,"internalType":"uint256","name":"timestamp","type":"uint256"}],"name":"OrdersMatched","type":"event"},{"anonymous":false,"inputs":[{"indexed":true,"internalType":"address","name":"previousOwner","type":"address"},{"indexed":true,"internalType":"address","name":"newOwner","type":"address"}],"name":"OwnershipTransferred","type":"event"},{"inputs":[{"components":[{"internalType":"address","name":"settlementContract","type":"address"},{"internalType":"address","name":"swapper","type":"address"},{"internalType":"uint256","name":"nonce","type":"uint256"},{"internalType":"uint32","name":"originChainId","type":"uint32"},{"internalType":"uint32","name":"initiateDeadline","type":"uint32"},{"internalType":"uint32","name":"fillDeadline","type":"uint32"},{"internalType":"bytes","name":"orderData","type":"bytes"}],"internalType":"struct CrossChainOrder","name":"order","type":"tuple"}],"name":"computeOrderHash","outputs":[{"internalType":"bytes32","name":"","type":"bytes32"}],"stateMutability":"pure","type":"function"},{"inputs":[{"internalType":"bytes32","name":"hash","type":"bytes32"}],"name":"deleteOrder","outputs":[],"stateMutability":"nonpayable","type":"function"},{"inputs":[{"internalType":"bytes32","name":"orderHash","type":"bytes32"}],"name":"destroyExpiredMatch","outputs":[],"stateMutability":"nonpayable","type":"function"},{"inputs":[{"components":[{"internalType":"address","name":"settlementContract","type":"address"},{"internalType":"address","name":"swapper","type":"address"},{"internalType":"uint256","name":"nonce","type":"uint256"},{"internalType":"uint32","name":"originChainId","type":"uint32"},{"internalType":"uint32","name":"initiateDeadline","type":"uint32"},{"internalType":"uint32","name":"fillDeadline","type":"uint32"},{"internalType":"bytes","name":"orderData","type":"bytes"}],"internalType":"struct CrossChainOrder","name":"order","type":"tuple"},{"internalType":"bytes","name":"signature","type":"bytes"},{"internalType":"bytes","name":"fillerData","type":"bytes"}],"name":"initiate","outputs":[],"stateMutability":"payable","type":"function"},{"inputs":[{"internalType":"bytes32","name":"orderHashA","type":"bytes32"},{"internalType":"bytes32","name":"orderHashB","type":"bytes32"}],"name":"matchOrders","outputs":[],"stateMutability":"nonpayable","type":"function"},{"inputs":[{"internalType":"address","name":"user","type":"address"}],"name":"nonceOf","outputs":[{"internalType":"uint256","name":"","type":"uint256"}],"stateMutability":"view","type":"function"},{"inputs":[],"name":"owner","outputs":[{"internalType":"address","name":"","type":"address"}],"stateMutability":"view","type":"function"},{"inputs":[],"name":"renounceOwnership","outputs":[],"stateMutability":"nonpayable","type":"function"},{"inputs":[{"components":[{"internalType":"address","name":"settlementContract","type":"address"},{"internalType":"address","name":"swapper","type":"address"},{"internalType":"uint256","name":"nonce","type":"uint256"},{"internalType":"uint32","name":"originChainId","type":"uint32"},{"internalType":"uint32","name":"initiateDeadline","type":"uint32"},{"internalType":"uint32","name":"fillDeadline","type":"uint32"},{"internalType":"bytes","name":"orderData","type":"bytes"}],"internalType":"struct CrossChainOrder","name":"order","type":"tuple"},{"internalType":"bytes","name":"fillerData","type":"bytes"}],"name":"resolve","outputs":[{"components":[{"internalType":"address","name":"settlementContract","type":"address"},{"internalType":"address","name":"swapper","type":"address"},{"internalType":"uint256","name":"nonce","type":"uint256"},{"internalType":"uint32","name":"originChainId","type":"uint32"},{"internalType":"uint32","name":"initiateDeadline","type":"uint32"},{"internalType":"uint32","name":"fillDeadline","type":"uint32"},{"components":[{"internalType":"address","name":"token","type":"address"},{"internalType":"uint256","name":"amount","type":"uint256"}],"internalType":"struct Input[]","name":"swapperInputs","type":"tuple[]"},{"components":[{"internalType":"address","name":"token","type":"address"},{"internalType":"uint256","name":"amount","type":"uint256"},{"internalType":"address","name":"recipient","type":"address"},{"internalType":"uint32","name":"chainId","type":"uint32"}],"internalType":"struct Output[]","name":"swapperOutputs","type":"tuple[]"},{"components":[{"internalType":"address","name":"token","type":"address"},{"internalType":"uint256","name":"amount","type":"uint256"},{"internalType":"address","name":"recipient","type":"address"},{"internalType":"uint32","name":"chainId","type":"uint32"}],"internalType":"struct Output[]","name":"fillerOutputs","type":"tuple[]"}],"internalType":"struct ResolvedCrossChainOrder","name":"","type":"tuple"}],"stateMutability":"view","type":"function"},{"inputs":[{"internalType":"address","name":"newOwner","type":"address"}],"name":"transferOwnership","outputs":[],"stateMutability":"nonpayable","type":"function"},{"inputs":[{"internalType":"address","name":"settlementContract","type":"address"},{"internalType":"uint256","name":"chainId","type":"uint256"}],"name":"whitelistSettlementContract","outputs":[],"stateMutability":"nonpayable","type":"function"}],"devdoc":{"errors":{"ECDSAInvalidSignature()":[{"details":"The signature derives the `address(0)`."}],"ECDSAInvalidSignatureLength(uint256)":[{"details":"The signature has an invalid length."}],"ECDSAInvalidSignatureS(bytes32)":[{"details":"The signature has an S value that is in the upper half order."}],"OwnableInvalidOwner(address)":[{"details":"The owner is not a valid owner account. (eg. `address(0)`)"}],"OwnableUnauthorizedAccount(address)":[{"details":"The caller account is not authorized to perform an operation."}],"ReentrancyGuardReentrantCall()":[{"details":"Unauthorized reentrant call."}]},"kind":"dev","methods":{"owner()":{"details":"Returns the address of the current owner."},"renounceOwnership()":{"details":"Leaves the contract without owner. It will not be possible to call `onlyOwner` functions. Can only be called by the current owner. NOTE: Renouncing ownership will leave the contract without an owner, thereby disabling any functionality that is only available to the owner."},"transferOwnership(address)":{"details":"Transfers ownership of the contract to a new account (`newOwner`). Can only be called by the current owner."}},"version":1},"evm":{"bytecode":{"linkReferences":{},"object":"608060405234801561001057600080fd5b50338061003757604051631e4fbdf760e01b81526000600482015260240160405180910390fd5b6100408161004a565b506001805561009a565b600080546001600160a01b038381166001600160a01b0319831681178455604051919092169283917f8be0079c531659141344cd1fd0a4f28419497f9722a3daafe3b4186f6b6457e09190a35050565b612020806100a96000396000f3fe60806040526004361061009c5760003560e01c8063962fc2a311610064578063962fc2a31461015357806397b2b09f14610166578063bf6d01d314610186578063ed2a2d64146101b3578063f2fde38b146101e9578063ffc374c91461020957600080fd5b80635d357deb146100a1578063715018a6146100d45780637fe3826e146100eb57806387a61cbd1461010b5780638da5cb5b1461012b575b600080fd5b3480156100ad57600080fd5b506100c16100bc3660046115b5565b610229565b6040519081526020015b60405180910390f35b3480156100e057600080fd5b506100e9610242565b005b3480156100f757600080fd5b506100e96101063660046115f2565b610256565b34801561011757600080fd5b506100e9610126366004611614565b6107ef565b34801561013757600080fd5b506000546040516001600160a01b0390911681526020016100cb565b6100e9610161366004611676565b610b05565b34801561017257600080fd5b506100e9610181366004611730565b611015565b34801561019257600080fd5b506101a66101a136600461175c565b61104e565b6040516100cb919061187a565b3480156101bf57600080fd5b506100c16101ce366004611959565b6001600160a01b031660009081526006602052604090205490565b3480156101f557600080fd5b506100e9610204366004611959565b6110c8565b34801561021557600080fd5b506100e9610224366004611614565b611103565b600061023c61023783611a5f565b611213565b92915050565b61024a611243565b6102546000611270565b565b6000828152600460208181526040808420815160e08101835281546001600160a01b03908116825260018301541693810193909352600281015491830191909152600381015463ffffffff8082166060850152640100000000820481166080850152600160401b9091041660a0830152918201805491929160c0840191906102dd90611b04565b80601f016020809104026020016040519081016040528092919081815260200182805461030990611b04565b80156103565780601f1061032b57610100808354040283529160200191610356565b820191906000526020600020905b81548152906001019060200180831161033957829003601f168201915b5050509190925250505060208101519091506001600160a01b03166103ba5760405162461bcd60e51b81526020600482015260156024820152741bdc99195c881048191bd95cdb89dd08195e1a5cdd605a1b60448201526064015b60405180910390fd5b6000828152600460208181526040808420815160e08101835281546001600160a01b03908116825260018301541693810193909352600281015491830191909152600381015463ffffffff8082166060850152640100000000820481166080850152600160401b9091041660a0830152918201805491929160c08401919061044190611b04565b80601f016020809104026020016040519081016040528092919081815260200182805461046d90611b04565b80156104ba5780601f1061048f576101008083540402835291602001916104ba565b820191906000526020600020905b81548152906001019060200180831161049d57829003601f168201915b5050509190925250505060208101519091506001600160a01b03166105195760405162461bcd60e51b81526020600482015260156024820152741bdc99195c881088191bd95cdb89dd08195e1a5cdd605a1b60448201526064016103b1565b428260a0015163ffffffff161161056b5760405162461bcd60e51b8152602060048201526016602482015275696e76616c69642066696c6c446561646c696e65204160501b60448201526064016103b1565b428160a0015163ffffffff16116105bd5760405162461bcd60e51b815260206004820152601660248201527534b73b30b634b2103334b6362232b0b23634b732902160511b60448201526064016103b1565b42826080015163ffffffff16116106165760405162461bcd60e51b815260206004820152601a60248201527f696e76616c696420696e697469617465446561646c696e65204100000000000060448201526064016103b1565b42816080015163ffffffff161161066f5760405162461bcd60e51b815260206004820152601a60248201527f696e76616c696420696e697469617465446561646c696e65204200000000000060448201526064016103b1565b60008260c001518060200190518101906106899190611b38565b905060008260c001518060200190518101906106a59190611b38565b90508082146106ef5760405162461bcd60e51b81526020600482015260166024820152750d2dce0eae840c2dadeeadce8e640dad2e6dac2e8c6d60531b60448201526064016103b1565b606083015160008781526005602052604090205463ffffffff9091161480156107315750606084015160008681526005602052604090205463ffffffff909116145b61077d5760405162461bcd60e51b815260206004820152601b60248201527f64657374696e6174696f6e20636861696e73206d69736d61746368000000000060448201526064016103b1565b60008681526007602090815260408083204290819055888452818420819055898452600883528184208990558884529281902089905551828152879189917f1aee23318ace74c1893db3e517937c0e6a32fb0332ea01c816ed4d1467d11c3e910160405180910390a350505050505050565b6107f76112c5565b6000818152600460208181526040808420815160e08101835281546001600160a01b03908116825260018301541693810193909352600281015491830191909152600381015463ffffffff8082166060850152640100000000820481166080850152600160401b9091041660a0830152918201805491929160c08401919061087e90611b04565b80601f01602080910402602001604051908101604052809291908181526020018280546108aa90611b04565b80156108f75780601f106108cc576101008083540402835291602001916108f7565b820191906000526020600020905b8154815290600101906020018083116108da57829003601f168201915b50505050508152505090506109093390565b6001600160a01b031681602001516001600160a01b03161461095f5760405162461bcd60e51b815260206004820152600f60248201526e34b73b30b634b21039bbb0b83832b960891b60448201526064016103b1565b46816060015163ffffffff16146109af5760405162461bcd60e51b815260206004820152601460248201527334b73b30b634b21037b934b3b4b71031b430b4b760611b60448201526064016103b1565b600082815260076020526040902054156109fe5760405162461bcd60e51b815260206004820152601060248201526f1bdc99195c881a5cc81b585d18da195960821b60448201526064016103b1565b60008160c00151806020019051810190610a189190611b38565b60208301516040519192506001600160a01b03169082156108fc029083906000818181858888f19350505050158015610a55573d6000803e3d6000fd5b5060008381526005602090815260408083205460049283905290832080546001600160a01b031990811682556001820180549091169055600281018490556003810180546bffffffffffffffffffffffff1916905590929091610aba9083018261154f565b505060008481526005602052604081205560405184907ff2503063536670d4ae6671a02eaab3a0174b1d36d85146ce8bd76913eae1d49890600090a2505050610b0260018055565b50565b610b0d6112c5565b610b55610b1986611a5f565b85858080601f0160208091040260200160405190810160405280939291908181526020018383808284376000920191909152506112f392505050565b610b955760405162461bcd60e51b8152602060048201526011602482015270696e76616c6964207369676e617475726560781b60448201526064016103b1565b60026000610ba66020880188611959565b6001600160a01b0316815260208101919091526040016000205460ff16610c0f5760405162461bcd60e51b815260206004820152601860248201527f736574746c656d656e74206e6f7420737570706f72746564000000000000000060448201526064016103b1565b42610c2060c0870160a08801611b51565b63ffffffff1611610c6a5760405162461bcd60e51b8152602060048201526014602482015273696e76616c69642066696c6c446561646c696e6560601b60448201526064016103b1565b42610c7b60a0870160808801611b51565b63ffffffff1611610cce5760405162461bcd60e51b815260206004820152601860248201527f696e76616c696420696e697469617465446561646c696e65000000000000000060448201526064016103b1565b3360009081526006602052604090819020549086013514610d215760405162461bcd60e51b815260206004820152600d60248201526c696e76616c6964206e6f6e636560981b60448201526064016103b1565b46610d326080870160608801611b51565b63ffffffff1614610d7d5760405162461bcd60e51b81526020600482015260156024820152741a5b9d985b1a59081bdc9a59da5b90da185a5b9259605a1b60448201526064016103b1565b33610d8e6040870160208801611959565b6001600160a01b031614610dd65760405162461bcd60e51b815260206004820152600f60248201526e34b73b30b634b21039bbb0b83832b960891b60448201526064016103b1565b6000610de560c0870187611b6e565b810190610df29190611614565b905060008111610e445760405162461bcd60e51b815260206004820152601960248201527f696e73756666696369656e7420696e70757420616d6f756e740000000000000060448201526064016103b1565b803414610e8c5760405162461bcd60e51b8152602060048201526016602482015275696e73756666696369656e74206d73672e76616c756560501b60448201526064016103b1565b6000610e9a83850185611614565b9050468103610eeb5760405162461bcd60e51b815260206004820152601f60248201527f6465737420636861696e206964206d75737420626520646966666572656e740060448201526064016103b1565b8060036000610efd60208b018b611959565b6001600160a01b03166001600160a01b031681526020019081526020016000205414610f635760405162461bcd60e51b81526020600482015260156024820152741a5b9d985b1a590819195cdd0818da185a5b881a59605a1b60448201526064016103b1565b6000610f7161023789611a5f565b60008181526004602052604090209091508890610f8e8282611cf2565b5050600081815260056020908152604080832085905533835260069091528120805460019290610fbf908490611dd3565b90915550610fca9050565b807f2952d12adb64a657dc2f54e4263d91d1e436254a0bd4472a3c316eec49d37d0c89604051610ffa9190611e63565b60405180910390a250505061100e60018055565b5050505050565b61101d611243565b6001600160a01b039091166000908152600260209081526040808320805460ff191660011790556003909152902055565b6110c160405180610120016040528060006001600160a01b0316815260200160006001600160a01b0316815260200160008152602001600063ffffffff168152602001600063ffffffff168152602001600063ffffffff1681526020016060815260200160608152602001606081525090565b9392505050565b6110d0611243565b6001600160a01b0381166110fa57604051631e4fbdf760e01b8152600060048201526024016103b1565b610b0281611270565b600081815260086020526040902054806111535760405162461bcd60e51b81526020600482015260116024820152701bdc99195c881b9bdd081b585d18da1959607a1b60448201526064016103b1565b60008281526007602052604090205461116e8161012c611dd3565b42116111b05760405162461bcd60e51b81526020600482015260116024820152701b585d18da081b9bdd08195e1c1a5c9959607a1b60448201526064016103b1565b60008381526007602090815260408083208390558483528083208390558583526008909152808220829055838252812055604051829084907f7e3d72398aa2625ef2e29633991f10f8fa8d91a2f165fd6a122f2862ab1cccdf90600090a3505050565b6000816040516020016112269190611f21565b604051602081830303815290604052805190602001209050919050565b6000546001600160a01b031633146102545760405163118cdaa760e01b81523360048201526024016103b1565b600080546001600160a01b038381166001600160a01b0319831681178455604051919092169283917f8be0079c531659141344cd1fd0a4f28419497f9722a3daafe3b4186f6b6457e09190a35050565b505050565b6002600154036112e857604051633ee5aeb560e01b815260040160405180910390fd5b6002600155565b5050565b60003361133f8361133961130687611213565b7f19457468657265756d205369676e6564204d6573736167653a0a3332000000006000908152601c91909152603c902090565b90611350565b6001600160a01b0316149392505050565b600080600080611360868661137a565b92509250925061137082826113c7565b5090949350505050565b600080600083516041036113b45760208401516040850151606086015160001a6113a688828585611480565b9550955095505050506113c0565b50508151600091506002905b9250925092565b60008260038111156113db576113db611fd4565b036113e4575050565b60018260038111156113f8576113f8611fd4565b036114165760405163f645eedf60e01b815260040160405180910390fd5b600282600381111561142a5761142a611fd4565b0361144b5760405163fce698f760e01b8152600481018290526024016103b1565b600382600381111561145f5761145f611fd4565b036112ef576040516335e2f38360e21b8152600481018290526024016103b1565b600080807f7fffffffffffffffffffffffffffffff5d576e7357a4501ddfe92f46681b20a08411156114bb5750600091506003905082611545565b604080516000808252602082018084528a905260ff891692820192909252606081018790526080810186905260019060a0016020604051602081039080840390855afa15801561150f573d6000803e3d6000fd5b5050604051601f1901519150506001600160a01b03811661153b57506000925060019150829050611545565b9250600091508190505b9450945094915050565b50805461155b90611b04565b6000825580601f1061156b575050565b601f016020900490600052602060002090810190610b0291905b808211156115995760008155600101611585565b5090565b600060e082840312156115af57600080fd5b50919050565b6000602082840312156115c757600080fd5b813567ffffffffffffffff8111156115de57600080fd5b6115ea8482850161159d565b949350505050565b6000806040838503121561160557600080fd5b50508035926020909101359150565b60006020828403121561162657600080fd5b5035919050565b60008083601f84011261163f57600080fd5b50813567ffffffffffffffff81111561165757600080fd5b60208301915083602082850101111561166f57600080fd5b9250929050565b60008060008060006060868803121561168e57600080fd5b853567ffffffffffffffff808211156116a657600080fd5b6116b289838a0161159d565b965060208801359150808211156116c857600080fd5b6116d489838a0161162d565b909650945060408801359150808211156116ed57600080fd5b506116fa8882890161162d565b969995985093965092949392505050565b6001600160a01b0381168114610b0257600080fd5b803561172b8161170b565b919050565b6000806040838503121561174357600080fd5b823561174e8161170b565b946020939093013593505050565b60008060006040848603121561177157600080fd5b833567ffffffffffffffff8082111561178957600080fd5b6117958783880161159d565b945060208601359150808211156117ab57600080fd5b506117b88682870161162d565b9497909650939450505050565b60008151808452602080850194506020840160005b8381101561180a57815180516001600160a01b0316885283015183880152604090960195908201906001016117da565b509495945050505050565b60008151808452602080850194506020840160005b8381101561180a57815180516001600160a01b03908116895284820151858a01526040808301519091169089015260609081015163ffffffff16908801526080909601959082019060010161182a565b602081526118946020820183516001600160a01b03169052565b600060208301516118b060408401826001600160a01b03169052565b506040830151606083015260608301516118d2608084018263ffffffff169052565b50608083015163ffffffff811660a08401525060a083015163ffffffff811660c08401525060c08301516101208060e08501526119136101408501836117c5565b915060e0850151601f196101008187860301818801526119338584611815565b90880151878203909201848801529350905061194f8382611815565b9695505050505050565b60006020828403121561196b57600080fd5b81356110c18161170b565b634e487b7160e01b600052604160045260246000fd5b60405160e0810167ffffffffffffffff811182821017156119af576119af611976565b60405290565b63ffffffff81168114610b0257600080fd5b803561172b816119b5565b600082601f8301126119e357600080fd5b813567ffffffffffffffff808211156119fe576119fe611976565b604051601f8301601f19908116603f01168101908282118183101715611a2657611a26611976565b81604052838152866020858801011115611a3f57600080fd5b836020870160208301376000602085830101528094505050505092915050565b600060e08236031215611a7157600080fd5b611a7961198c565b611a8283611720565b8152611a9060208401611720565b602082015260408301356040820152611aab606084016119c7565b6060820152611abc608084016119c7565b6080820152611acd60a084016119c7565b60a082015260c083013567ffffffffffffffff811115611aec57600080fd5b611af8368286016119d2565b60c08301525092915050565b600181811c90821680611b1857607f821691505b6020821081036115af57634e487b7160e01b600052602260045260246000fd5b600060208284031215611b4a57600080fd5b5051919050565b600060208284031215611b6357600080fd5b81356110c1816119b5565b6000808335601e19843603018112611b8557600080fd5b83018035915067ffffffffffffffff821115611ba057600080fd5b60200191503681900382131561166f57600080fd5b80546001600160a01b0319166001600160a01b0392909216919091179055565b6000813561023c816119b5565b601f8211156112c0576000816000526020600020601f850160051c81016020861015611c0b5750805b601f850160051c820191505b81811015611c2a57828155600101611c17565b505050505050565b67ffffffffffffffff831115611c4a57611c4a611976565b611c5e83611c588354611b04565b83611be2565b6000601f841160018114611c925760008515611c7a5750838201355b600019600387901b1c1916600186901b17835561100e565b600083815260209020601f19861690835b82811015611cc35786850135825560209485019460019092019101611ca3565b5086821015611ce05760001960f88860031b161c19848701351681555b505060018560011b0183555050505050565b8135611cfd8161170b565b611d078183611bb5565b506020820135611d168161170b565b611d238160018401611bb5565b5060408201356002820155600381016060830135611d40816119b5565b81546080850135611d50816119b5565b67ffffffff000000008160201b1663ffffffff841667ffffffffffffffff19841617178455505050611db1611d8760a08501611bd5565b82546bffffffff0000000000000000191660409190911b6bffffffff000000000000000016178255565b50611dbf60c0830183611b6e565b611dcd818360048601611c32565b50505050565b8082018082111561023c57634e487b7160e01b600052601160045260246000fd5b6000808335601e19843603018112611e0b57600080fd5b830160208101925035905067ffffffffffffffff811115611e2b57600080fd5b80360382131561166f57600080fd5b81835281816020850137506000828201602090810191909152601f909101601f19169091010190565b6020815260008235611e748161170b565b6001600160a01b0390811660208481019190915284013590611e958261170b565b80821660408501525050604083013560608301526060830135611eb7816119b5565b63ffffffff8116608084015250611ed0608084016119c7565b63ffffffff811660a084015250611ee960a084016119c7565b63ffffffff811660c084015250611f0360c0840184611df4565b60e080850152611f1861010085018284611e3a565b95945050505050565b6000602080835260018060a01b038085511660208501528060208601511660408501525060408401516060840152606084015163ffffffff80821660808601528060808701511660a08601528060a08701511660c0860152505060c084015160e08085015280518061010086015260005b81811015611faf5782810184015186820161012001528301611f92565b506101209250600083828701015282601f19601f830116860101935050505092915050565b634e487b7160e01b600052602160045260246000fdfea2646970667358221220ee4a8cd9f573951438a6da77f7b91c4fa2041a2f2b3d31a205371f738a3b382664736f6c63430008160033","opcodes":"PUSH1 0x80 PUSH1 0x40 MSTORE CALLVALUE DUP1 ISZERO PUSH2 0x10 JUMPI PUSH1 0x0 DUP1 REVERT JUMPDEST POP CALLER DUP1 PUSH2 0x37 JUMPI PUSH1 0x40 MLOAD PUSH4 0x1E4FBDF7 PUSH1 0xE0 SHL DUP2 MSTORE PUSH1 0x0 PUSH1 0x4 DUP3 ADD MSTORE PUSH1 0x24 ADD PUSH1 0x40 MLOAD DUP1 SWAP2 SUB SWAP1 REVERT JUMPDEST PUSH2 0x40 DUP2 PUSH2 0x4A JUMP JUMPDEST POP PUSH1 0x1 DUP1 SSTORE PUSH2 0x9A JUMP JUMPDEST PUSH1 0x0 DUP1 SLOAD PUSH1 0x1 PUSH1 0x1 PUSH1 0xA0 SHL SUB DUP4 DUP2 AND PUSH1 0x1 PUSH1 0x1 PUSH1 0xA0 SHL SUB NOT DUP4 AND DUP2 OR DUP5 SSTORE PUSH1 0x40 MLOAD SWAP2 SWAP1 SWAP3 AND SWAP3 DUP4 SWAP2 PUSH32 0x8BE0079C531659141344CD1FD0A4F28419497F9722A3DAAFE3B4186F6B6457E0 SWAP2 SWAP1 LOG3 POP POP JUMP JUMPDEST PUSH2 0x2020 DUP1 PUSH2 0xA9 PUSH1 0x0 CODECOPY PUSH1 0x0 RETURN INVALID PUSH1 0x80 PUSH1 0x40 MSTORE PUSH1 0x4 CALLDATASIZE LT PUSH2 0x9C JUMPI PUSH1 0x0 CALLDATALOAD PUSH1 0xE0 SHR DUP1 PUSH4 0x962FC2A3 GT PUSH2 0x64 JUMPI DUP1 PUSH4 0x962FC2A3 EQ PUSH2 0x153 JUMPI DUP1 PUSH4 0x97B2B09F EQ PUSH2 0x166 JUMPI DUP1 PUSH4 0xBF6D01D3 EQ PUSH2 0x186 JUMPI DUP1 PUSH4 0xED2A2D64 EQ PUSH2 0x1B3 JUMPI DUP1 PUSH4 0xF2FDE38B EQ PUSH2 0x1E9 JUMPI DUP1 PUSH4 0xFFC374C9 EQ PUSH2 0x209 JUMPI PUSH1 0x0 DUP1 REVERT JUMPDEST DUP1 PUSH4 0x5D357DEB EQ PUSH2 0xA1 JUMPI DUP1 PUSH4 0x715018A6 EQ PUSH2 0xD4 JUMPI DUP1 PUSH4 0x7FE3826E EQ PUSH2 0xEB JUMPI DUP1 PUSH4 0x87A61CBD EQ PUSH2 0x10B JUMPI DUP1 PUSH4 0x8DA5CB5B EQ PUSH2 0x12B JUMPI JUMPDEST PUSH1 0x0 DUP1 REVERT JUMPDEST CALLVALUE DUP1 ISZERO PUSH2 0xAD JUMPI PUSH1 0x0 DUP1 REVERT JUMPDEST POP PUSH2 0xC1 PUSH2 0xBC CALLDATASIZE PUSH1 0x4 PUSH2 0x15B5 JUMP JUMPDEST PUSH2 0x229 JUMP JUMPDEST PUSH1 0x40 MLOAD SWAP1 DUP2 MSTORE PUSH1 0x20 ADD JUMPDEST PUSH1 0x40 MLOAD DUP1 SWAP2 SUB SWAP1 RETURN JUMPDEST CALLVALUE DUP1 ISZERO PUSH2 0xE0 JUMPI PUSH1 0x0 DUP1 REVERT JUMPDEST POP PUSH2 0xE9 PUSH2 0x242 JUMP JUMPDEST STOP JUMPDEST CALLVALUE DUP1 ISZERO PUSH2 0xF7 JUMPI PUSH1 0x0 DUP1 REVERT JUMPDEST POP PUSH2 0xE9 PUSH2 0x106 CALLDATASIZE PUSH1 0x4 PUSH2 0x15F2 JUMP JUMPDEST PUSH2 0x256 JUMP JUMPDEST CALLVALUE DUP1 ISZERO PUSH2 0x117 JUMPI PUSH1 0x0 DUP1 REVERT JUMPDEST POP PUSH2 0xE9 PUSH2 0x126 CALLDATASIZE PUSH1 0x4 PUSH2 0x1614 JUMP JUMPDEST PUSH2 0x7EF JUMP JUMPDEST CALLVALUE DUP1 ISZERO PUSH2 0x137 JUMPI PUSH1 0x0 DUP1 REVERT JUMPDEST POP PUSH1 0x0 SLOAD PUSH1 0x40 MLOAD PUSH1 0x1 PUSH1 0x1 PUSH1 0xA0 SHL SUB SWAP1 SWAP2 AND DUP2 MSTORE PUSH1 0x20 ADD PUSH2 0xCB JUMP JUMPDEST PUSH2 0xE9 PUSH2 0x161 CALLDATASIZE PUSH1 0x4 PUSH2 0x1676 JUMP JUMPDEST PUSH2 0xB05 JUMP JUMPDEST CALLVALUE DUP1 ISZERO PUSH2 0x172 JUMPI PUSH1 0x0 DUP1 REVERT JUMPDEST POP PUSH2 0xE9 PUSH2 0x181 CALLDATASIZE PUSH1 0x4 PUSH2 0x1730 JUMP JUMPDEST PUSH2 0x1015 JUMP JUMPDEST CALLVALUE DUP1 ISZERO PUSH2 0x192 JUMPI PUSH1 0x0 DUP1 REVERT JUMPDEST POP PUSH2 0x1A6 PUSH2 0x1A1 CALLDATASIZE PUSH1 0x4 PUSH2 0x175C JUMP JUMPDEST PUSH2 0x104E JUMP JUMPDEST PUSH1 0x40 MLOAD PUSH2 0xCB SWAP2 SWAP1 PUSH2 0x187A JUMP JUMPDEST CALLVALUE DUP1 ISZERO PUSH2 0x1BF JUMPI PUSH1 0x0 DUP1 REVERT JUMPDEST POP PUSH2 0xC1 PUSH2 0x1CE CALLDATASIZE PUSH1 0x4 PUSH2 0x1959 JUMP JUMPDEST PUSH1 0x1 PUSH1 0x1 PUSH1 0xA0 SHL SUB AND PUSH1 0x0 SWAP1 DUP2 MSTORE PUSH1 0x6 PUSH1 0x20 MSTORE PUSH1 0x40 SWAP1 KECCAK256 SLOAD SWAP1 JUMP JUMPDEST CALLVALUE DUP1 ISZERO PUSH2 0x1F5 JUMPI PUSH1 0x0 DUP1 REVERT JUMPDEST POP PUSH2 0xE9 PUSH2 0x204 CALLDATASIZE PUSH1 0x4 PUSH2 0x1959 JUMP JUMPDEST PUSH2 0x10C8 JUMP JUMPDEST CALLVALUE DUP1 ISZERO PUSH2 0x215 JUMPI PUSH1 0x0 DUP1 REVERT JUMPDEST POP PUSH2 0xE9 PUSH2 0x224 CALLDATASIZE PUSH1 0x4 PUSH2 0x1614 JUMP JUMPDEST PUSH2 0x1103 JUMP JUMPDEST PUSH1 0x0 PUSH2 0x23C PUSH2 0x237 DUP4 PUSH2 0x1A5F JUMP JUMPDEST PUSH2 0x1213 JUMP JUMPDEST SWAP3 SWAP2 POP POP JUMP JUMPDEST PUSH2 0x24A PUSH2 0x1243 JUMP JUMPDEST PUSH2 0x254 PUSH1 0x0 PUSH2 0x1270 JUMP JUMPDEST JUMP JUMPDEST PUSH1 0x0 DUP3 DUP2 MSTORE PUSH1 0x4 PUSH1 0x20 DUP2 DUP2 MSTORE PUSH1 0x40 DUP1 DUP5 KECCAK256 DUP2 MLOAD PUSH1 0xE0 DUP2 ADD DUP4 MSTORE DUP2 SLOAD PUSH1 0x1 PUSH1 0x1 PUSH1 0xA0 SHL SUB SWAP1 DUP2 AND DUP3 MSTORE PUSH1 0x1 DUP4 ADD SLOAD AND SWAP4 DUP2 ADD SWAP4 SWAP1 SWAP4 MSTORE PUSH1 0x2 DUP2 ADD SLOAD SWAP2 DUP4 ADD SWAP2 SWAP1 SWAP2 MSTORE PUSH1 0x3 DUP2 ADD SLOAD PUSH4 0xFFFFFFFF DUP1 DUP3 AND PUSH1 0x60 DUP6 ADD MSTORE PUSH5 0x100000000 DUP3 DIV DUP2 AND PUSH1 0x80 DUP6 ADD MSTORE PUSH1 0x1 PUSH1 0x40 SHL SWAP1 SWAP2 DIV AND PUSH1 0xA0 DUP4 ADD MSTORE SWAP2 DUP3 ADD DUP1 SLOAD SWAP2 SWAP3 SWAP2 PUSH1 0xC0 DUP5 ADD SWAP2 SWAP1 PUSH2 0x2DD SWAP1 PUSH2 0x1B04 JUMP JUMPDEST DUP1 PUSH1 0x1F ADD PUSH1 0x20 DUP1 SWAP2 DIV MUL PUSH1 0x20 ADD PUSH1 0x40 MLOAD SWAP1 DUP2 ADD PUSH1 0x40 MSTORE DUP1 SWAP3 SWAP2 SWAP1 DUP2 DUP2 MSTORE PUSH1 0x20 ADD DUP3 DUP1 SLOAD PUSH2 0x309 SWAP1 PUSH2 0x1B04 JUMP JUMPDEST DUP1 ISZERO PUSH2 0x356 JUMPI DUP1 PUSH1 0x1F LT PUSH2 0x32B JUMPI PUSH2 0x100 DUP1 DUP4 SLOAD DIV MUL DUP4 MSTORE SWAP2 PUSH1 0x20 ADD SWAP2 PUSH2 0x356 JUMP JUMPDEST DUP3 ADD SWAP2 SWAP1 PUSH1 0x0 MSTORE PUSH1 0x20 PUSH1 0x0 KECCAK256 SWAP1 JUMPDEST DUP2 SLOAD DUP2 MSTORE SWAP1 PUSH1 0x1 ADD SWAP1 PUSH1 0x20 ADD DUP1 DUP4 GT PUSH2 0x339 JUMPI DUP3 SWAP1 SUB PUSH1 0x1F AND DUP3 ADD SWAP2 JUMPDEST POP POP POP SWAP2 SWAP1 SWAP3 MSTORE POP POP POP PUSH1 0x20 DUP2 ADD MLOAD SWAP1 SWAP2 POP PUSH1 0x1 PUSH1 0x1 PUSH1 0xA0 SHL SUB AND PUSH2 0x3BA JUMPI PUSH1 0x40 MLOAD PUSH3 0x461BCD PUSH1 0xE5 SHL DUP2 MSTORE PUSH1 0x20 PUSH1 0x4 DUP3 ADD MSTORE PUSH1 0x15 PUSH1 0x24 DUP3 ADD MSTORE PUSH21 0x1BDC99195C881048191BD95CDB89DD08195E1A5CDD PUSH1 0x5A SHL PUSH1 0x44 DUP3 ADD MSTORE PUSH1 0x64 ADD JUMPDEST PUSH1 0x40 MLOAD DUP1 SWAP2 SUB SWAP1 REVERT JUMPDEST PUSH1 0x0 DUP3 DUP2 MSTORE PUSH1 0x4 PUSH1 0x20 DUP2 DUP2 MSTORE PUSH1 0x40 DUP1 DUP5 KECCAK256 DUP2 MLOAD PUSH1 0xE0 DUP2 ADD DUP4 MSTORE DUP2 SLOAD PUSH1 0x1 PUSH1 0x1 PUSH1 0xA0 SHL SUB SWAP1 DUP2 AND DUP3 MSTORE PUSH1 0x1 DUP4 ADD SLOAD AND SWAP4 DUP2 ADD SWAP4 SWAP1 SWAP4 MSTORE PUSH1 0x2 DUP2 ADD SLOAD SWAP2 DUP4 ADD SWAP2 SWAP1 SWAP2 MSTORE PUSH1 0x3 DUP2 ADD SLOAD PUSH4 0xFFFFFFFF DUP1 DUP3 AND PUSH1 0x60 DUP6 ADD MSTORE PUSH5 0x100000000 DUP3 DIV DUP2 AND PUSH1 0x80 DUP6 ADD MSTORE PUSH1 0x1 PUSH1 0x40 SHL SWAP1 SWAP2 DIV AND PUSH1 0xA0 DUP4 ADD MSTORE SWAP2 DUP3 ADD DUP1 SLOAD SWAP2 SWAP3 SWAP2 PUSH1 0xC0 DUP5 ADD SWAP2 SWAP1 PUSH2 0x441 SWAP1 PUSH2 0x1B04 JUMP JUMPDEST DUP1 PUSH1 0x1F ADD PUSH1 0x20 DUP1 SWAP2 DIV MUL PUSH1 0x20 ADD PUSH1 0x40 MLOAD SWAP1 DUP2 ADD PUSH1 0x40 MSTORE DUP1 SWAP3 SWAP2 SWAP1 DUP2 DUP2 MSTORE PUSH1 0x20 ADD DUP3 DUP1 SLOAD PUSH2 0x46D SWAP1 PUSH2 0x1B04 JUMP JUMPDEST DUP1 ISZERO PUSH2 0x4BA JUMPI DUP1 PUSH1 0x1F LT PUSH2 0x48F JUMPI PUSH2 0x100 DUP1 DUP4 SLOAD DIV MUL DUP4 MSTORE SWAP2 PUSH1 0x20 ADD SWAP2 PUSH2 0x4BA JUMP JUMPDEST DUP3 ADD SWAP2 SWAP1 PUSH1 0x0 MSTORE PUSH1 0x20 PUSH1 0x0 KECCAK256 SWAP1 JUMPDEST DUP2 SLOAD DUP2 MSTORE SWAP1 PUSH1 0x1 ADD SWAP1 PUSH1 0x20 ADD DUP1 DUP4 GT PUSH2 0x49D JUMPI DUP3 SWAP1 SUB PUSH1 0x1F AND DUP3 ADD SWAP2 JUMPDEST POP POP POP SWAP2 SWAP1 SWAP3 MSTORE POP POP POP PUSH1 0x20 DUP2 ADD MLOAD SWAP1 SWAP2 POP PUSH1 0x1 PUSH1 0x1 PUSH1 0xA0 SHL SUB AND PUSH2 0x519 JUMPI PUSH1 0x40 MLOAD PUSH3 0x461BCD PUSH1 0xE5 SHL DUP2 MSTORE PUSH1 0x20 PUSH1 0x4 DUP3 ADD MSTORE PUSH1 0x15 PUSH1 0x24 DUP3 ADD MSTORE PUSH21 0x1BDC99195C881088191BD95CDB89DD08195E1A5CDD PUSH1 0x5A SHL PUSH1 0x44 DUP3 ADD MSTORE PUSH1 0x64 ADD PUSH2 0x3B1 JUMP JUMPDEST TIMESTAMP DUP3 PUSH1 0xA0 ADD MLOAD PUSH4 0xFFFFFFFF AND GT PUSH2 0x56B JUMPI PUSH1 0x40 MLOAD PUSH3 0x461BCD PUSH1 0xE5 SHL DUP2 MSTORE PUSH1 0x20 PUSH1 0x4 DUP3 ADD MSTORE PUSH1 0x16 PUSH1 0x24 DUP3 ADD MSTORE PUSH22 0x696E76616C69642066696C6C446561646C696E652041 PUSH1 0x50 SHL PUSH1 0x44 DUP3 ADD MSTORE PUSH1 0x64 ADD PUSH2 0x3B1 JUMP JUMPDEST TIMESTAMP DUP2 PUSH1 0xA0 ADD MLOAD PUSH4 0xFFFFFFFF AND GT PUSH2 0x5BD JUMPI PUSH1 0x40 MLOAD PUSH3 0x461BCD PUSH1 0xE5 SHL DUP2 MSTORE PUSH1 0x20 PUSH1 0x4 DUP3 ADD MSTORE PUSH1 0x16 PUSH1 0x24 DUP3 ADD MSTORE PUSH22 0x34B73B30B634B2103334B6362232B0B23634B7329021 PUSH1 0x51 SHL PUSH1 0x44 DUP3 ADD MSTORE PUSH1 0x64 ADD PUSH2 0x3B1 JUMP JUMPDEST TIMESTAMP DUP3 PUSH1 0x80 ADD MLOAD PUSH4 0xFFFFFFFF AND GT PUSH2 0x616 JUMPI PUSH1 0x40 MLOAD PUSH3 0x461BCD PUSH1 0xE5 SHL DUP2 MSTORE PUSH1 0x20 PUSH1 0x4 DUP3 ADD MSTORE PUSH1 0x1A PUSH1 0x24 DUP3 ADD MSTORE PUSH32 0x696E76616C696420696E697469617465446561646C696E652041000000000000 PUSH1 0x44 DUP3 ADD MSTORE PUSH1 0x64 ADD PUSH2 0x3B1 JUMP JUMPDEST TIMESTAMP DUP2 PUSH1 0x80 ADD MLOAD PUSH4 0xFFFFFFFF AND GT PUSH2 0x66F JUMPI PUSH1 0x40 MLOAD PUSH3 0x461BCD PUSH1 0xE5 SHL DUP2 MSTORE PUSH1 0x20 PUSH1 0x4 DUP3 ADD MSTORE PUSH1 0x1A PUSH1 0x24 DUP3 ADD MSTORE PUSH32 0x696E76616C696420696E697469617465446561646C696E652042000000000000 PUSH1 0x44 DUP3 ADD MSTORE PUSH1 0x64 ADD PUSH2 0x3B1 JUMP JUMPDEST PUSH1 0x0 DUP3 PUSH1 0xC0 ADD MLOAD DUP1 PUSH1 0x20 ADD SWAP1 MLOAD DUP2 ADD SWAP1 PUSH2 0x689 SWAP2 SWAP1 PUSH2 0x1B38 JUMP JUMPDEST SWAP1 POP PUSH1 0x0 DUP3 PUSH1 0xC0 ADD MLOAD DUP1 PUSH1 0x20 ADD SWAP1 MLOAD DUP2 ADD SWAP1 PUSH2 0x6A5 SWAP2 SWAP1 PUSH2 0x1B38 JUMP JUMPDEST SWAP1 POP DUP1 DUP3 EQ PUSH2 0x6EF JUMPI PUSH1 0x40 MLOAD PUSH3 0x461BCD PUSH1 0xE5 SHL DUP2 MSTORE PUSH1 0x20 PUSH1 0x4 DUP3 ADD MSTORE PUSH1 0x16 PUSH1 0x24 DUP3 ADD MSTORE PUSH22 0xD2DCE0EAE840C2DADEEADCE8E640DAD2E6DAC2E8C6D PUSH1 0x53 SHL PUSH1 0x44 DUP3 ADD MSTORE PUSH1 0x64 ADD PUSH2 0x3B1 JUMP JUMPDEST PUSH1 0x60 DUP4 ADD MLOAD PUSH1 0x0 DUP8 DUP2 MSTORE PUSH1 0x5 PUSH1 0x20 MSTORE PUSH1 0x40 SWAP1 KECCAK256 SLOAD PUSH4 0xFFFFFFFF SWAP1 SWAP2 AND EQ DUP1 ISZERO PUSH2 0x731 JUMPI POP PUSH1 0x60 DUP5 ADD MLOAD PUSH1 0x0 DUP7 DUP2 MSTORE PUSH1 0x5 PUSH1 0x20 MSTORE PUSH1 0x40 SWAP1 KECCAK256 SLOAD PUSH4 0xFFFFFFFF SWAP1 SWAP2 AND EQ JUMPDEST PUSH2 0x77D JUMPI PUSH1 0x40 MLOAD PUSH3 0x461BCD PUSH1 0xE5 SHL DUP2 MSTORE PUSH1 0x20 PUSH1 0x4 DUP3 ADD MSTORE PUSH1 0x1B PUSH1 0x24 DUP3 ADD MSTORE PUSH32 0x64657374696E6174696F6E20636861696E73206D69736D617463680000000000 PUSH1 0x44 DUP3 ADD MSTORE PUSH1 0x64 ADD PUSH2 0x3B1 JUMP JUMPDEST PUSH1 0x0 DUP7 DUP2 MSTORE PUSH1 0x7 PUSH1 0x20 SWAP1 DUP2 MSTORE PUSH1 0x40 DUP1 DUP4 KECCAK256 TIMESTAMP SWAP1 DUP2 SWAP1 SSTORE DUP9 DUP5 MSTORE DUP2 DUP5 KECCAK256 DUP2 SWAP1 SSTORE DUP10 DUP5 MSTORE PUSH1 0x8 DUP4 MSTORE DUP2 DUP5 KECCAK256 DUP10 SWAP1 SSTORE DUP9 DUP5 MSTORE SWAP3 DUP2 SWAP1 KECCAK256 DUP10 SWAP1 SSTORE MLOAD DUP3 DUP2 MSTORE DUP8 SWAP2 DUP10 SWAP2 PUSH32 0x1AEE23318ACE74C1893DB3E517937C0E6A32FB0332EA01C816ED4D1467D11C3E SWAP2 ADD PUSH1 0x40 MLOAD DUP1 SWAP2 SUB SWAP1 LOG3 POP POP POP POP POP POP POP JUMP JUMPDEST PUSH2 0x7F7 PUSH2 0x12C5 JUMP JUMPDEST PUSH1 0x0 DUP2 DUP2 MSTORE PUSH1 0x4 PUSH1 0x20 DUP2 DUP2 MSTORE PUSH1 0x40 DUP1 DUP5 KECCAK256 DUP2 MLOAD PUSH1 0xE0 DUP2 ADD DUP4 MSTORE DUP2 SLOAD PUSH1 0x1 PUSH1 0x1 PUSH1 0xA0 SHL SUB SWAP1 DUP2 AND DUP3 MSTORE PUSH1 0x1 DUP4 ADD SLOAD AND SWAP4 DUP2 ADD SWAP4 SWAP1 SWAP4 MSTORE PUSH1 0x2 DUP2 ADD SLOAD SWAP2 DUP4 ADD SWAP2 SWAP1 SWAP2 MSTORE PUSH1 0x3 DUP2 ADD SLOAD PUSH4 0xFFFFFFFF DUP1 DUP3 AND PUSH1 0x60 DUP6 ADD MSTORE PUSH5 0x100000000 DUP3 DIV DUP2 AND PUSH1 0x80 DUP6 ADD MSTORE PUSH1 0x1 PUSH1 0x40 SHL SWAP1 SWAP2 DIV AND PUSH1 0xA0 DUP4 ADD MSTORE SWAP2 DUP3 ADD DUP1 SLOAD SWAP2 SWAP3 SWAP2 PUSH1 0xC0 DUP5 ADD SWAP2 SWAP1 PUSH2 0x87E SWAP1 PUSH2 0x1B04 JUMP JUMPDEST DUP1 PUSH1 0x1F ADD PUSH1 0x20 DUP1 SWAP2 DIV MUL PUSH1 0x20 ADD PUSH1 0x40 MLOAD SWAP1 DUP2 ADD PUSH1 0x40 MSTORE DUP1 SWAP3 SWAP2 SWAP1 DUP2 DUP2 MSTORE PUSH1 0x20 ADD DUP3 DUP1 SLOAD PUSH2 0x8AA SWAP1 PUSH2 0x1B04 JUMP JUMPDEST DUP1 ISZERO PUSH2 0x8F7 JUMPI DUP1 PUSH1 0x1F LT PUSH2 0x8CC JUMPI PUSH2 0x100 DUP1 DUP4 SLOAD DIV MUL DUP4 MSTORE SWAP2 PUSH1 0x20 ADD SWAP2 PUSH2 0x8F7 JUMP JUMPDEST DUP3 ADD SWAP2 SWAP1 PUSH1 0x0 MSTORE PUSH1 0x20 PUSH1 0x0 KECCAK256 SWAP1 JUMPDEST DUP2 SLOAD DUP2 MSTORE SWAP1 PUSH1 0x1 ADD SWAP1 PUSH1 0x20 ADD DUP1 DUP4 GT PUSH2 0x8DA JUMPI DUP3 SWAP1 SUB PUSH1 0x1F AND DUP3 ADD SWAP2 JUMPDEST POP POP POP POP POP DUP2 MSTORE POP POP SWAP1 POP PUSH2 0x909 CALLER SWAP1 JUMP JUMPDEST PUSH1 0x1 PUSH1 0x1 PUSH1 0xA0 SHL SUB AND DUP2 PUSH1 0x20 ADD MLOAD PUSH1 0x1 PUSH1 0x1 PUSH1 0xA0 SHL SUB AND EQ PUSH2 0x95F JUMPI PUSH1 0x40 MLOAD PUSH3 0x461BCD PUSH1 0xE5 SHL DUP2 MSTORE PUSH1 0x20 PUSH1 0x4 DUP3 ADD MSTORE PUSH1 0xF PUSH1 0x24 DUP3 ADD MSTORE PUSH15 0x34B73B30B634B21039BBB0B83832B9 PUSH1 0x89 SHL PUSH1 0x44 DUP3 ADD MSTORE PUSH1 0x64 ADD PUSH2 0x3B1 JUMP JUMPDEST CHAINID DUP2 PUSH1 0x60 ADD MLOAD PUSH4 0xFFFFFFFF AND EQ PUSH2 0x9AF JUMPI PUSH1 0x40 MLOAD PUSH3 0x461BCD PUSH1 0xE5 SHL DUP2 MSTORE PUSH1 0x20 PUSH1 0x4 DUP3 ADD MSTORE PUSH1 0x14 PUSH1 0x24 DUP3 ADD MSTORE PUSH20 0x34B73B30B634B21037B934B3B4B71031B430B4B7 PUSH1 0x61 SHL PUSH1 0x44 DUP3 ADD MSTORE PUSH1 0x64 ADD PUSH2 0x3B1 JUMP JUMPDEST PUSH1 0x0 DUP3 DUP2 MSTORE PUSH1 0x7 PUSH1 0x20 MSTORE PUSH1 0x40 SWAP1 KECCAK256 SLOAD ISZERO PUSH2 0x9FE JUMPI PUSH1 0x40 MLOAD PUSH3 0x461BCD PUSH1 0xE5 SHL DUP2 MSTORE PUSH1 0x20 PUSH1 0x4 DUP3 ADD MSTORE PUSH1 0x10 PUSH1 0x24 DUP3 ADD MSTORE PUSH16 0x1BDC99195C881A5CC81B585D18DA1959 PUSH1 0x82 SHL PUSH1 0x44 DUP3 ADD MSTORE PUSH1 0x64 ADD PUSH2 0x3B1 JUMP JUMPDEST PUSH1 0x0 DUP2 PUSH1 0xC0 ADD MLOAD DUP1 PUSH1 0x20 ADD SWAP1 MLOAD DUP2 ADD SWAP1 PUSH2 0xA18 SWAP2 SWAP1 PUSH2 0x1B38 JUMP JUMPDEST PUSH1 0x20 DUP4 ADD MLOAD PUSH1 0x40 MLOAD SWAP2 SWAP3 POP PUSH1 0x1 PUSH1 0x1 PUSH1 0xA0 SHL SUB AND SWAP1 DUP3 ISZERO PUSH2 0x8FC MUL SWAP1 DUP4 SWAP1 PUSH1 0x0 DUP2 DUP2 DUP2 DUP6 DUP9 DUP9 CALL SWAP4 POP POP POP POP ISZERO DUP1 ISZERO PUSH2 0xA55 JUMPI RETURNDATASIZE PUSH1 0x0 DUP1 RETURNDATACOPY RETURNDATASIZE PUSH1 0x0 REVERT JUMPDEST POP PUSH1 0x0 DUP4 DUP2 MSTORE PUSH1 0x5 PUSH1 0x20 SWAP1 DUP2 MSTORE PUSH1 0x40 DUP1 DUP4 KECCAK256 SLOAD PUSH1 0x4 SWAP3 DUP4 SWAP1 MSTORE SWAP1 DUP4 KECCAK256 DUP1 SLOAD PUSH1 0x1 PUSH1 0x1 PUSH1 0xA0 SHL SUB NOT SWAP1 DUP2 AND DUP3 SSTORE PUSH1 0x1 DUP3 ADD DUP1 SLOAD SWAP1 SWAP2 AND SWAP1 SSTORE PUSH1 0x2 DUP2 ADD DUP5 SWAP1 SSTORE PUSH1 0x3 DUP2 ADD DUP1 SLOAD PUSH12 0xFFFFFFFFFFFFFFFFFFFFFFFF NOT AND SWAP1 SSTORE SWAP1 SWAP3 SWAP1 SWAP2 PUSH2 0xABA SWAP1 DUP4 ADD DUP3 PUSH2 0x154F JUMP JUMPDEST POP POP PUSH1 0x0 DUP5 DUP2 MSTORE PUSH1 0x5 PUSH1 0x20 MSTORE PUSH1 0x40 DUP2 KECCAK256 SSTORE PUSH1 0x40 MLOAD DUP5 SWAP1 PUSH32 0xF2503063536670D4AE6671A02EAAB3A0174B1D36D85146CE8BD76913EAE1D498 SWAP1 PUSH1 0x0 SWAP1 LOG2 POP POP POP PUSH2 0xB02 PUSH1 0x1 DUP1 SSTORE JUMP JUMPDEST POP JUMP JUMPDEST PUSH2 0xB0D PUSH2 0x12C5 JUMP JUMPDEST PUSH2 0xB55 PUSH2 0xB19 DUP7 PUSH2 0x1A5F JUMP JUMPDEST DUP6 DUP6 DUP1 DUP1 PUSH1 0x1F ADD PUSH1 0x20 DUP1 SWAP2 DIV MUL PUSH1 0x20 ADD PUSH1 0x40 MLOAD SWAP1 DUP2 ADD PUSH1 0x40 MSTORE DUP1 SWAP4 SWAP3 SWAP2 SWAP1 DUP2 DUP2 MSTORE PUSH1 0x20 ADD DUP4 DUP4 DUP1 DUP3 DUP5 CALLDATACOPY PUSH1 0x0 SWAP3 ADD SWAP2 SWAP1 SWAP2 MSTORE POP PUSH2 0x12F3 SWAP3 POP POP POP JUMP JUMPDEST PUSH2 0xB95 JUMPI PUSH1 0x40 MLOAD PUSH3 0x461BCD PUSH1 0xE5 SHL DUP2 MSTORE PUSH1 0x20 PUSH1 0x4 DUP3 ADD MSTORE PUSH1 0x11 PUSH1 0x24 DUP3 ADD MSTORE PUSH17 0x696E76616C6964207369676E6174757265 PUSH1 0x78 SHL PUSH1 0x44 DUP3 ADD MSTORE PUSH1 0x64 ADD PUSH2 0x3B1 JUMP JUMPDEST PUSH1 0x2 PUSH1 0x0 PUSH2 0xBA6 PUSH1 0x20 DUP9 ADD DUP9 PUSH2 0x1959 JUMP JUMPDEST PUSH1 0x1 PUSH1 0x1 PUSH1 0xA0 SHL SUB AND DUP2 MSTORE PUSH1 0x20 DUP2 ADD SWAP2 SWAP1 SWAP2 MSTORE PUSH1 0x40 ADD PUSH1 0x0 KECCAK256 SLOAD PUSH1 0xFF AND PUSH2 0xC0F JUMPI PUSH1 0x40 MLOAD PUSH3 0x461BCD PUSH1 0xE5 SHL DUP2 MSTORE PUSH1 0x20 PUSH1 0x4 DUP3 ADD MSTORE PUSH1 0x18 PUSH1 0x24 DUP3 ADD MSTORE PUSH32 0x736574746C656D656E74206E6F7420737570706F727465640000000000000000 PUSH1 0x44 DUP3 ADD MSTORE PUSH1 0x64 ADD PUSH2 0x3B1 JUMP JUMPDEST TIMESTAMP PUSH2 0xC20 PUSH1 0xC0 DUP8 ADD PUSH1 0xA0 DUP9 ADD PUSH2 0x1B51 JUMP JUMPDEST PUSH4 0xFFFFFFFF AND GT PUSH2 0xC6A JUMPI PUSH1 0x40 MLOAD PUSH3 0x461BCD PUSH1 0xE5 SHL DUP2 MSTORE PUSH1 0x20 PUSH1 0x4 DUP3 ADD MSTORE PUSH1 0x14 PUSH1 0x24 DUP3 ADD MSTORE PUSH20 0x696E76616C69642066696C6C446561646C696E65 PUSH1 0x60 SHL PUSH1 0x44 DUP3 ADD MSTORE PUSH1 0x64 ADD PUSH2 0x3B1 JUMP JUMPDEST TIMESTAMP PUSH2 0xC7B PUSH1 0xA0 DUP8 ADD PUSH1 0x80 DUP9 ADD PUSH2 0x1B51 JUMP JUMPDEST PUSH4 0xFFFFFFFF AND GT PUSH2 0xCCE JUMPI PUSH1 0x40 MLOAD PUSH3 0x461BCD PUSH1 0xE5 SHL DUP2 MSTORE PUSH1 0x20 PUSH1 0x4 DUP3 ADD MSTORE PUSH1 0x18 PUSH1 0x24 DUP3 ADD MSTORE PUSH32 0x696E76616C696420696E697469617465446561646C696E650000000000000000 PUSH1 0x44 DUP3 ADD MSTORE PUSH1 0x64 ADD PUSH2 0x3B1 JUMP JUMPDEST CALLER PUSH1 0x0 SWAP1 DUP2 MSTORE PUSH1 0x6 PUSH1 0x20 MSTORE PUSH1 0x40 SWAP1 DUP2 SWAP1 KECCAK256 SLOAD SWAP1 DUP7 ADD CALLDATALOAD EQ PUSH2 0xD21 JUMPI PUSH1 0x40 MLOAD PUSH3 0x461BCD PUSH1 0xE5 SHL DUP2 MSTORE PUSH1 0x20 PUSH1 0x4 DUP3 ADD MSTORE PUSH1 0xD PUSH1 0x24 DUP3 ADD MSTORE PUSH13 0x696E76616C6964206E6F6E6365 PUSH1 0x98 SHL PUSH1 0x44 DUP3 ADD MSTORE PUSH1 0x64 ADD PUSH2 0x3B1 JUMP JUMPDEST CHAINID PUSH2 0xD32 PUSH1 0x80 DUP8 ADD PUSH1 0x60 DUP9 ADD PUSH2 0x1B51 JUMP JUMPDEST PUSH4 0xFFFFFFFF AND EQ PUSH2 0xD7D JUMPI PUSH1 0x40 MLOAD PUSH3 0x461BCD PUSH1 0xE5 SHL DUP2 MSTORE PUSH1 0x20 PUSH1 0x4 DUP3 ADD MSTORE PUSH1 0x15 PUSH1 0x24 DUP3 ADD MSTORE PUSH21 0x1A5B9D985B1A59081BDC9A59DA5B90DA185A5B9259 PUSH1 0x5A SHL PUSH1 0x44 DUP3 ADD MSTORE PUSH1 0x64 ADD PUSH2 0x3B1 JUMP JUMPDEST CALLER PUSH2 0xD8E PUSH1 0x40 DUP8 ADD PUSH1 0x20 DUP9 ADD PUSH2 0x1959 JUMP JUMPDEST PUSH1 0x1 PUSH1 0x1 PUSH1 0xA0 SHL SUB AND EQ PUSH2 0xDD6 JUMPI PUSH1 0x40 MLOAD PUSH3 0x461BCD PUSH1 0xE5 SHL DUP2 MSTORE PUSH1 0x20 PUSH1 0x4 DUP3 ADD MSTORE PUSH1 0xF PUSH1 0x24 DUP3 ADD MSTORE PUSH15 0x34B73B30B634B21039BBB0B83832B9 PUSH1 0x89 SHL PUSH1 0x44 DUP3 ADD MSTORE PUSH1 0x64 ADD PUSH2 0x3B1 JUMP JUMPDEST PUSH1 0x0 PUSH2 0xDE5 PUSH1 0xC0 DUP8 ADD DUP8 PUSH2 0x1B6E JUMP JUMPDEST DUP2 ADD SWAP1 PUSH2 0xDF2 SWAP2 SWAP1 PUSH2 0x1614 JUMP JUMPDEST SWAP1 POP PUSH1 0x0 DUP2 GT PUSH2 0xE44 JUMPI PUSH1 0x40 MLOAD PUSH3 0x461BCD PUSH1 0xE5 SHL DUP2 MSTORE PUSH1 0x20 PUSH1 0x4 DUP3 ADD MSTORE PUSH1 0x19 PUSH1 0x24 DUP3 ADD MSTORE PUSH32 0x696E73756666696369656E7420696E70757420616D6F756E7400000000000000 PUSH1 0x44 DUP3 ADD MSTORE PUSH1 0x64 ADD PUSH2 0x3B1 JUMP JUMPDEST DUP1 CALLVALUE EQ PUSH2 0xE8C JUMPI PUSH1 0x40 MLOAD PUSH3 0x461BCD PUSH1 0xE5 SHL DUP2 MSTORE PUSH1 0x20 PUSH1 0x4 DUP3 ADD MSTORE PUSH1 0x16 PUSH1 0x24 DUP3 ADD MSTORE PUSH22 0x696E73756666696369656E74206D73672E76616C7565 PUSH1 0x50 SHL PUSH1 0x44 DUP3 ADD MSTORE PUSH1 0x64 ADD PUSH2 0x3B1 JUMP JUMPDEST PUSH1 0x0 PUSH2 0xE9A DUP4 DUP6 ADD DUP6 PUSH2 0x1614 JUMP JUMPDEST SWAP1 POP CHAINID DUP2 SUB PUSH2 0xEEB JUMPI PUSH1 0x40 MLOAD PUSH3 0x461BCD PUSH1 0xE5 SHL DUP2 MSTORE PUSH1 0x20 PUSH1 0x4 DUP3 ADD MSTORE PUSH1 0x1F PUSH1 0x24 DUP3 ADD MSTORE PUSH32 0x6465737420636861696E206964206D75737420626520646966666572656E7400 PUSH1 0x44 DUP3 ADD MSTORE PUSH1 0x64 ADD PUSH2 0x3B1 JUMP JUMPDEST DUP1 PUSH1 0x3 PUSH1 0x0 PUSH2 0xEFD PUSH1 0x20 DUP12 ADD DUP12 PUSH2 0x1959 JUMP JUMPDEST PUSH1 0x1 PUSH1 0x1 PUSH1 0xA0 SHL SUB AND PUSH1 0x1 PUSH1 0x1 PUSH1 0xA0 SHL SUB AND DUP2 MSTORE PUSH1 0x20 ADD SWAP1 DUP2 MSTORE PUSH1 0x20 ADD PUSH1 0x0 KECCAK256 SLOAD EQ PUSH2 0xF63 JUMPI PUSH1 0x40 MLOAD PUSH3 0x461BCD PUSH1 0xE5 SHL DUP2 MSTORE PUSH1 0x20 PUSH1 0x4 DUP3 ADD MSTORE PUSH1 0x15 PUSH1 0x24 DUP3 ADD MSTORE PUSH21 0x1A5B9D985B1A590819195CDD0818DA185A5B881A59 PUSH1 0x5A SHL PUSH1 0x44 DUP3 ADD MSTORE PUSH1 0x64 ADD PUSH2 0x3B1 JUMP JUMPDEST PUSH1 0x0 PUSH2 0xF71 PUSH2 0x237 DUP10 PUSH2 0x1A5F JUMP JUMPDEST PUSH1 0x0 DUP2 DUP2 MSTORE PUSH1 0x4 PUSH1 0x20 MSTORE PUSH1 0x40 SWAP1 KECCAK256 SWAP1 SWAP2 POP DUP9 SWAP1 PUSH2 0xF8E DUP3 DUP3 PUSH2 0x1CF2 JUMP JUMPDEST POP POP PUSH1 0x0 DUP2 DUP2 MSTORE PUSH1 0x5 PUSH1 0x20 SWAP1 DUP2 MSTORE PUSH1 0x40 DUP1 DUP4 KECCAK256 DUP6 SWAP1 SSTORE CALLER DUP4 MSTORE PUSH1 0x6 SWAP1 SWAP2 MSTORE DUP2 KECCAK256 DUP1 SLOAD PUSH1 0x1 SWAP3 SWAP1 PUSH2 0xFBF SWAP1 DUP5 SWAP1 PUSH2 0x1DD3 JUMP JUMPDEST SWAP1 SWAP2 SSTORE POP PUSH2 0xFCA SWAP1 POP JUMP JUMPDEST DUP1 PUSH32 0x2952D12ADB64A657DC2F54E4263D91D1E436254A0BD4472A3C316EEC49D37D0C DUP10 PUSH1 0x40 MLOAD PUSH2 0xFFA SWAP2 SWAP1 PUSH2 0x1E63 JUMP JUMPDEST PUSH1 0x40 MLOAD DUP1 SWAP2 SUB SWAP1 LOG2 POP POP POP PUSH2 0x100E PUSH1 0x1 DUP1 SSTORE JUMP JUMPDEST POP POP POP POP POP JUMP JUMPDEST PUSH2 0x101D PUSH2 0x1243 JUMP JUMPDEST PUSH1 0x1 PUSH1 0x1 PUSH1 0xA0 SHL SUB SWAP1 SWAP2 AND PUSH1 0x0 SWAP1 DUP2 MSTORE PUSH1 0x2 PUSH1 0x20 SWAP1 DUP2 MSTORE PUSH1 0x40 DUP1 DUP4 KECCAK256 DUP1 SLOAD PUSH1 0xFF NOT AND PUSH1 0x1 OR SWAP1 SSTORE PUSH1 0x3 SWAP1 SWAP2 MSTORE SWAP1 KECCAK256 SSTORE JUMP JUMPDEST PUSH2 0x10C1 PUSH1 0x40 MLOAD DUP1 PUSH2 0x120 ADD PUSH1 0x40 MSTORE DUP1 PUSH1 0x0 PUSH1 0x1 PUSH1 0x1 PUSH1 0xA0 SHL SUB AND DUP2 MSTORE PUSH1 0x20 ADD PUSH1 0x0 PUSH1 0x1 PUSH1 0x1 PUSH1 0xA0 SHL SUB AND DUP2 MSTORE PUSH1 0x20 ADD PUSH1 0x0 DUP2 MSTORE PUSH1 0x20 ADD PUSH1 0x0 PUSH4 0xFFFFFFFF AND DUP2 MSTORE PUSH1 0x20 ADD PUSH1 0x0 PUSH4 0xFFFFFFFF AND DUP2 MSTORE PUSH1 0x20 ADD PUSH1 0x0 PUSH4 0xFFFFFFFF AND DUP2 MSTORE PUSH1 0x20 ADD PUSH1 0x60 DUP2 MSTORE PUSH1 0x20 ADD PUSH1 0x60 DUP2 MSTORE PUSH1 0x20 ADD PUSH1 0x60 DUP2 MSTORE POP SWAP1 JUMP JUMPDEST SWAP4 SWAP3 POP POP POP JUMP JUMPDEST PUSH2 0x10D0 PUSH2 0x1243 JUMP JUMPDEST PUSH1 0x1 PUSH1 0x1 PUSH1 0xA0 SHL SUB DUP2 AND PUSH2 0x10FA JUMPI PUSH1 0x40 MLOAD PUSH4 0x1E4FBDF7 PUSH1 0xE0 SHL DUP2 MSTORE PUSH1 0x0 PUSH1 0x4 DUP3 ADD MSTORE PUSH1 0x24 ADD PUSH2 0x3B1 JUMP JUMPDEST PUSH2 0xB02 DUP2 PUSH2 0x1270 JUMP JUMPDEST PUSH1 0x0 DUP2 DUP2 MSTORE PUSH1 0x8 PUSH1 0x20 MSTORE PUSH1 0x40 SWAP1 KECCAK256 SLOAD DUP1 PUSH2 0x1153 JUMPI PUSH1 0x40 MLOAD PUSH3 0x461BCD PUSH1 0xE5 SHL DUP2 MSTORE PUSH1 0x20 PUSH1 0x4 DUP3 ADD MSTORE PUSH1 0x11 PUSH1 0x24 DUP3 ADD MSTORE PUSH17 0x1BDC99195C881B9BDD081B585D18DA1959 PUSH1 0x7A SHL PUSH1 0x44 DUP3 ADD MSTORE PUSH1 0x64 ADD PUSH2 0x3B1 JUMP JUMPDEST PUSH1 0x0 DUP3 DUP2 MSTORE PUSH1 0x7 PUSH1 0x20 MSTORE PUSH1 0x40 SWAP1 KECCAK256 SLOAD PUSH2 0x116E DUP2 PUSH2 0x12C PUSH2 0x1DD3 JUMP JUMPDEST TIMESTAMP GT PUSH2 0x11B0 JUMPI PUSH1 0x40 MLOAD PUSH3 0x461BCD PUSH1 0xE5 SHL DUP2 MSTORE PUSH1 0x20 PUSH1 0x4 DUP3 ADD MSTORE PUSH1 0x11 PUSH1 0x24 DUP3 ADD MSTORE PUSH17 0x1B585D18DA081B9BDD08195E1C1A5C9959 PUSH1 0x7A SHL PUSH1 0x44 DUP3 ADD MSTORE PUSH1 0x64 ADD PUSH2 0x3B1 JUMP JUMPDEST PUSH1 0x0 DUP4 DUP2 MSTORE PUSH1 0x7 PUSH1 0x20 SWAP1 DUP2 MSTORE PUSH1 0x40 DUP1 DUP4 KECCAK256 DUP4 SWAP1 SSTORE DUP5 DUP4 MSTORE DUP1 DUP4 KECCAK256 DUP4 SWAP1 SSTORE DUP6 DUP4 MSTORE PUSH1 0x8 SWAP1 SWAP2 MSTORE DUP1 DUP3 KECCAK256 DUP3 SWAP1 SSTORE DUP4 DUP3 MSTORE DUP2 KECCAK256 SSTORE PUSH1 0x40 MLOAD DUP3 SWAP1 DUP5 SWAP1 PUSH32 0x7E3D72398AA2625EF2E29633991F10F8FA8D91A2F165FD6A122F2862AB1CCCDF SWAP1 PUSH1 0x0 SWAP1 LOG3 POP POP POP JUMP JUMPDEST PUSH1 0x0 DUP2 PUSH1 0x40 MLOAD PUSH1 0x20 ADD PUSH2 0x1226 SWAP2 SWAP1 PUSH2 0x1F21 JUMP JUMPDEST PUSH1 0x40 MLOAD PUSH1 0x20 DUP2 DUP4 SUB SUB DUP2 MSTORE SWAP1 PUSH1 0x40 MSTORE DUP1 MLOAD SWAP1 PUSH1 0x20 ADD KECCAK256 SWAP1 POP SWAP2 SWAP1 POP JUMP JUMPDEST PUSH1 0x0 SLOAD PUSH1 0x1 PUSH1 0x1 PUSH1 0xA0 SHL SUB AND CALLER EQ PUSH2 0x254 JUMPI PUSH1 0x40 MLOAD PUSH4 0x118CDAA7 PUSH1 0xE0 SHL DUP2 MSTORE CALLER PUSH1 0x4 DUP3 ADD MSTORE PUSH1 0x24 ADD PUSH2 0x3B1 JUMP JUMPDEST PUSH1 0x0 DUP1 SLOAD PUSH1 0x1 PUSH1 0x1 PUSH1 0xA0 SHL SUB DUP4 DUP2 AND PUSH1 0x1 PUSH1 0x1 PUSH1 0xA0 SHL SUB NOT DUP4 AND DUP2 OR DUP5 SSTORE PUSH1 0x40 MLOAD SWAP2 SWAP1 SWAP3 AND SWAP3 DUP4 SWAP2 PUSH32 0x8BE0079C531659141344CD1FD0A4F28419497F9722A3DAAFE3B4186F6B6457E0 SWAP2 SWAP1 LOG3 POP POP JUMP JUMPDEST POP POP POP JUMP JUMPDEST PUSH1 0x2 PUSH1 0x1 SLOAD SUB PUSH2 0x12E8 JUMPI PUSH1 0x40 MLOAD PUSH4 0x3EE5AEB5 PUSH1 0xE0 SHL DUP2 MSTORE PUSH1 0x4 ADD PUSH1 0x40 MLOAD DUP1 SWAP2 SUB SWAP1 REVERT JUMPDEST PUSH1 0x2 PUSH1 0x1 SSTORE JUMP JUMPDEST POP POP JUMP JUMPDEST PUSH1 0x0 CALLER PUSH2 0x133F DUP4 PUSH2 0x1339 PUSH2 0x1306 DUP8 PUSH2 0x1213 JUMP JUMPDEST PUSH32 0x19457468657265756D205369676E6564204D6573736167653A0A333200000000 PUSH1 0x0 SWAP1 DUP2 MSTORE PUSH1 0x1C SWAP2 SWAP1 SWAP2 MSTORE PUSH1 0x3C SWAP1 KECCAK256 SWAP1 JUMP JUMPDEST SWAP1 PUSH2 0x1350 JUMP JUMPDEST PUSH1 0x1 PUSH1 0x1 PUSH1 0xA0 SHL SUB AND EQ SWAP4 SWAP3 POP POP POP JUMP JUMPDEST PUSH1 0x0 DUP1 PUSH1 0x0 DUP1 PUSH2 0x1360 DUP7 DUP7 PUSH2 0x137A JUMP JUMPDEST SWAP3 POP SWAP3 POP SWAP3 POP PUSH2 0x1370 DUP3 DUP3 PUSH2 0x13C7 JUMP JUMPDEST POP SWAP1 SWAP5 SWAP4 POP POP POP POP JUMP JUMPDEST PUSH1 0x0 DUP1 PUSH1 0x0 DUP4 MLOAD PUSH1 0x41 SUB PUSH2 0x13B4 JUMPI PUSH1 0x20 DUP5 ADD MLOAD PUSH1 0x40 DUP6 ADD MLOAD PUSH1 0x60 DUP7 ADD MLOAD PUSH1 0x0 BYTE PUSH2 0x13A6 DUP9 DUP3 DUP6 DUP6 PUSH2 0x1480 JUMP JUMPDEST SWAP6 POP SWAP6 POP SWAP6 POP POP POP POP PUSH2 0x13C0 JUMP JUMPDEST POP POP DUP2 MLOAD PUSH1 0x0 SWAP2 POP PUSH1 0x2 SWAP1 JUMPDEST SWAP3 POP SWAP3 POP SWAP3 JUMP JUMPDEST PUSH1 0x0 DUP3 PUSH1 0x3 DUP2 GT ISZERO PUSH2 0x13DB JUMPI PUSH2 0x13DB PUSH2 0x1FD4 JUMP JUMPDEST SUB PUSH2 0x13E4 JUMPI POP POP JUMP JUMPDEST PUSH1 0x1 DUP3 PUSH1 0x3 DUP2 GT ISZERO PUSH2 0x13F8 JUMPI PUSH2 0x13F8 PUSH2 0x1FD4 JUMP JUMPDEST SUB PUSH2 0x1416 JUMPI PUSH1 0x40 MLOAD PUSH4 0xF645EEDF PUSH1 0xE0 SHL DUP2 MSTORE PUSH1 0x4 ADD PUSH1 0x40 MLOAD DUP1 SWAP2 SUB SWAP1 REVERT JUMPDEST PUSH1 0x2 DUP3 PUSH1 0x3 DUP2 GT ISZERO PUSH2 0x142A JUMPI PUSH2 0x142A PUSH2 0x1FD4 JUMP JUMPDEST SUB PUSH2 0x144B JUMPI PUSH1 0x40 MLOAD PUSH4 0xFCE698F7 PUSH1 0xE0 SHL DUP2 MSTORE PUSH1 0x4 DUP2 ADD DUP3 SWAP1 MSTORE PUSH1 0x24 ADD PUSH2 0x3B1 JUMP JUMPDEST PUSH1 0x3 DUP3 PUSH1 0x3 DUP2 GT ISZERO PUSH2 0x145F JUMPI PUSH2 0x145F PUSH2 0x1FD4 JUMP JUMPDEST SUB PUSH2 0x12EF JUMPI PUSH1 0x40 MLOAD PUSH4 0x35E2F383 PUSH1 0xE2 SHL DUP2 MSTORE PUSH1 0x4 DUP2 ADD DUP3 SWAP1 MSTORE PUSH1 0x24 ADD PUSH2 0x3B1 JUMP JUMPDEST PUSH1 0x0 DUP1 DUP1 PUSH32 0x7FFFFFFFFFFFFFFFFFFFFFFFFFFFFFFF5D576E7357A4501DDFE92F46681B20A0 DUP5 GT ISZERO PUSH2 0x14BB JUMPI POP PUSH1 0x0 SWAP2 POP PUSH1 0x3 SWAP1 POP DUP3 PUSH2 0x1545 JUMP JUMPDEST PUSH1 0x40 DUP1 MLOAD PUSH1 0x0 DUP1 DUP3 MSTORE PUSH1 0x20 DUP3 ADD DUP1 DUP5 MSTORE DUP11 SWAP1 MSTORE PUSH1 0xFF DUP10 AND SWAP3 DUP3 ADD SWAP3 SWAP1 SWAP3 MSTORE PUSH1 0x60 DUP2 ADD DUP8 SWAP1 MSTORE PUSH1 0x80 DUP2 ADD DUP7 SWAP1 MSTORE PUSH1 0x1 SWAP1 PUSH1 0xA0 ADD PUSH1 0x20 PUSH1 0x40 MLOAD PUSH1 0x20 DUP2 SUB SWAP1 DUP1 DUP5 SUB SWAP1 DUP6 GAS STATICCALL ISZERO DUP1 ISZERO PUSH2 0x150F JUMPI RETURNDATASIZE PUSH1 0x0 DUP1 RETURNDATACOPY RETURNDATASIZE PUSH1 0x0 REVERT JUMPDEST POP POP PUSH1 0x40 MLOAD PUSH1 0x1F NOT ADD MLOAD SWAP2 POP POP PUSH1 0x1 PUSH1 0x1 PUSH1 0xA0 SHL SUB DUP2 AND PUSH2 0x153B JUMPI POP PUSH1 0x0 SWAP3 POP PUSH1 0x1 SWAP2 POP DUP3 SWAP1 POP PUSH2 0x1545 JUMP JUMPDEST SWAP3 POP PUSH1 0x0 SWAP2 POP DUP2 SWAP1 POP JUMPDEST SWAP5 POP SWAP5 POP SWAP5 SWAP2 POP POP JUMP JUMPDEST POP DUP1 SLOAD PUSH2 0x155B SWAP1 PUSH2 0x1B04 JUMP JUMPDEST PUSH1 0x0 DUP3 SSTORE DUP1 PUSH1 0x1F LT PUSH2 0x156B JUMPI POP POP JUMP JUMPDEST PUSH1 0x1F ADD PUSH1 0x20 SWAP1 DIV SWAP1 PUSH1 0x0 MSTORE PUSH1 0x20 PUSH1 0x0 KECCAK256 SWAP1 DUP2 ADD SWAP1 PUSH2 0xB02 SWAP2 SWAP1 JUMPDEST DUP1 DUP3 GT ISZERO PUSH2 0x1599 JUMPI PUSH1 0x0 DUP2 SSTORE PUSH1 0x1 ADD PUSH2 0x1585 JUMP JUMPDEST POP SWAP1 JUMP JUMPDEST PUSH1 0x0 PUSH1 0xE0 DUP3 DUP5 SUB SLT ISZERO PUSH2 0x15AF JUMPI PUSH1 0x0 DUP1 REVERT JUMPDEST POP SWAP2 SWAP1 POP JUMP JUMPDEST PUSH1 0x0 PUSH1 0x20 DUP3 DUP5 SUB SLT ISZERO PUSH2 0x15C7 JUMPI PUSH1 0x0 DUP1 REVERT JUMPDEST DUP2 CALLDATALOAD PUSH8 0xFFFFFFFFFFFFFFFF DUP2 GT ISZERO PUSH2 0x15DE JUMPI PUSH1 0x0 DUP1 REVERT JUMPDEST PUSH2 0x15EA DUP5 DUP3 DUP6 ADD PUSH2 0x159D JUMP JUMPDEST SWAP5 SWAP4 POP POP POP POP JUMP JUMPDEST PUSH1 0x0 DUP1 PUSH1 0x40 DUP4 DUP6 SUB SLT ISZERO PUSH2 0x1605 JUMPI PUSH1 0x0 DUP1 REVERT JUMPDEST POP POP DUP1 CALLDATALOAD SWAP3 PUSH1 0x20 SWAP1 SWAP2 ADD CALLDATALOAD SWAP2 POP JUMP JUMPDEST PUSH1 0x0 PUSH1 0x20 DUP3 DUP5 SUB SLT ISZERO PUSH2 0x1626 JUMPI PUSH1 0x0 DUP1 REVERT JUMPDEST POP CALLDATALOAD SWAP2 SWAP1 POP JUMP JUMPDEST PUSH1 0x0 DUP1 DUP4 PUSH1 0x1F DUP5 ADD SLT PUSH2 0x163F JUMPI PUSH1 0x0 DUP1 REVERT JUMPDEST POP DUP2 CALLDATALOAD PUSH8 0xFFFFFFFFFFFFFFFF DUP2 GT ISZERO PUSH2 0x1657 JUMPI PUSH1 0x0 DUP1 REVERT JUMPDEST PUSH1 0x20 DUP4 ADD SWAP2 POP DUP4 PUSH1 0x20 DUP3 DUP6 ADD ADD GT ISZERO PUSH2 0x166F JUMPI PUSH1 0x0 DUP1 REVERT JUMPDEST SWAP3 POP SWAP3 SWAP1 POP JUMP JUMPDEST PUSH1 0x0 DUP1 PUSH1 0x0 DUP1 PUSH1 0x0 PUSH1 0x60 DUP7 DUP9 SUB SLT ISZERO PUSH2 0x168E JUMPI PUSH1 0x0 DUP1 REVERT JUMPDEST DUP6 CALLDATALOAD PUSH8 0xFFFFFFFFFFFFFFFF DUP1 DUP3 GT ISZERO PUSH2 0x16A6 JUMPI PUSH1 0x0 DUP1 REVERT JUMPDEST PUSH2 0x16B2 DUP10 DUP4 DUP11 ADD PUSH2 0x159D JUMP JUMPDEST SWAP7 POP PUSH1 0x20 DUP9 ADD CALLDATALOAD SWAP2 POP DUP1 DUP3 GT ISZERO PUSH2 0x16C8 JUMPI PUSH1 0x0 DUP1 REVERT JUMPDEST PUSH2 0x16D4 DUP10 DUP4 DUP11 ADD PUSH2 0x162D JUMP JUMPDEST SWAP1 SWAP7 POP SWAP5 POP PUSH1 0x40 DUP9 ADD CALLDATALOAD SWAP2 POP DUP1 DUP3 GT ISZERO PUSH2 0x16ED JUMPI PUSH1 0x0 DUP1 REVERT JUMPDEST POP PUSH2 0x16FA DUP9 DUP3 DUP10 ADD PUSH2 0x162D JUMP JUMPDEST SWAP7 SWAP10 SWAP6 SWAP9 POP SWAP4 SWAP7 POP SWAP3 SWAP5 SWAP4 SWAP3 POP POP POP JUMP JUMPDEST PUSH1 0x1 PUSH1 0x1 PUSH1 0xA0 SHL SUB DUP2 AND DUP2 EQ PUSH2 0xB02 JUMPI PUSH1 0x0 DUP1 REVERT JUMPDEST DUP1 CALLDATALOAD PUSH2 0x172B DUP2 PUSH2 0x170B JUMP JUMPDEST SWAP2 SWAP1 POP JUMP JUMPDEST PUSH1 0x0 DUP1 PUSH1 0x40 DUP4 DUP6 SUB SLT ISZERO PUSH2 0x1743 JUMPI PUSH1 0x0 DUP1 REVERT JUMPDEST DUP3 CALLDATALOAD PUSH2 0x174E DUP2 PUSH2 0x170B JUMP JUMPDEST SWAP5 PUSH1 0x20 SWAP4 SWAP1 SWAP4 ADD CALLDATALOAD SWAP4 POP POP POP JUMP JUMPDEST PUSH1 0x0 DUP1 PUSH1 0x0 PUSH1 0x40 DUP5 DUP7 SUB SLT ISZERO PUSH2 0x1771 JUMPI PUSH1 0x0 DUP1 REVERT JUMPDEST DUP4 CALLDATALOAD PUSH8 0xFFFFFFFFFFFFFFFF DUP1 DUP3 GT ISZERO PUSH2 0x1789 JUMPI PUSH1 0x0 DUP1 REVERT JUMPDEST PUSH2 0x1795 DUP8 DUP4 DUP9 ADD PUSH2 0x159D JUMP JUMPDEST SWAP5 POP PUSH1 0x20 DUP7 ADD CALLDATALOAD SWAP2 POP DUP1 DUP3 GT ISZERO PUSH2 0x17AB JUMPI PUSH1 0x0 DUP1 REVERT JUMPDEST POP PUSH2 0x17B8 DUP7 DUP3 DUP8 ADD PUSH2 0x162D JUMP JUMPDEST SWAP5 SWAP8 SWAP1 SWAP7 POP SWAP4 SWAP5 POP POP POP POP JUMP JUMPDEST PUSH1 0x0 DUP2 MLOAD DUP1 DUP5 MSTORE PUSH1 0x20 DUP1 DUP6 ADD SWAP5 POP PUSH1 0x20 DUP5 ADD PUSH1 0x0 JUMPDEST DUP4 DUP2 LT ISZERO PUSH2 0x180A JUMPI DUP2 MLOAD DUP1 MLOAD PUSH1 0x1 PUSH1 0x1 PUSH1 0xA0 SHL SUB AND DUP9 MSTORE DUP4 ADD MLOAD DUP4 DUP9 ADD MSTORE PUSH1 0x40 SWAP1 SWAP7 ADD SWAP6 SWAP1 DUP3 ADD SWAP1 PUSH1 0x1 ADD PUSH2 0x17DA JUMP JUMPDEST POP SWAP5 SWAP6 SWAP5 POP POP POP POP POP JUMP JUMPDEST PUSH1 0x0 DUP2 MLOAD DUP1 DUP5 MSTORE PUSH1 0x20 DUP1 DUP6 ADD SWAP5 POP PUSH1 0x20 DUP5 ADD PUSH1 0x0 JUMPDEST DUP4 DUP2 LT ISZERO PUSH2 0x180A JUMPI DUP2 MLOAD DUP1 MLOAD PUSH1 0x1 PUSH1 0x1 PUSH1 0xA0 SHL SUB SWAP1 DUP2 AND DUP10 MSTORE DUP5 DUP3 ADD MLOAD DUP6 DUP11 ADD MSTORE PUSH1 0x40 DUP1 DUP4 ADD MLOAD SWAP1 SWAP2 AND SWAP1 DUP10 ADD MSTORE PUSH1 0x60 SWAP1 DUP2 ADD MLOAD PUSH4 0xFFFFFFFF AND SWAP1 DUP9 ADD MSTORE PUSH1 0x80 SWAP1 SWAP7 ADD SWAP6 SWAP1 DUP3 ADD SWAP1 PUSH1 0x1 ADD PUSH2 0x182A JUMP JUMPDEST PUSH1 0x20 DUP2 MSTORE PUSH2 0x1894 PUSH1 0x20 DUP3 ADD DUP4 MLOAD PUSH1 0x1 PUSH1 0x1 PUSH1 0xA0 SHL SUB AND SWAP1 MSTORE JUMP JUMPDEST PUSH1 0x0 PUSH1 0x20 DUP4 ADD MLOAD PUSH2 0x18B0 PUSH1 0x40 DUP5 ADD DUP3 PUSH1 0x1 PUSH1 0x1 PUSH1 0xA0 SHL SUB AND SWAP1 MSTORE JUMP JUMPDEST POP PUSH1 0x40 DUP4 ADD MLOAD PUSH1 0x60 DUP4 ADD MSTORE PUSH1 0x60 DUP4 ADD MLOAD PUSH2 0x18D2 PUSH1 0x80 DUP5 ADD DUP3 PUSH4 0xFFFFFFFF AND SWAP1 MSTORE JUMP JUMPDEST POP PUSH1 0x80 DUP4 ADD MLOAD PUSH4 0xFFFFFFFF DUP2 AND PUSH1 0xA0 DUP5 ADD MSTORE POP PUSH1 0xA0 DUP4 ADD MLOAD PUSH4 0xFFFFFFFF DUP2 AND PUSH1 0xC0 DUP5 ADD MSTORE POP PUSH1 0xC0 DUP4 ADD MLOAD PUSH2 0x120 DUP1 PUSH1 0xE0 DUP6 ADD MSTORE PUSH2 0x1913 PUSH2 0x140 DUP6 ADD DUP4 PUSH2 0x17C5 JUMP JUMPDEST SWAP2 POP PUSH1 0xE0 DUP6 ADD MLOAD PUSH1 0x1F NOT PUSH2 0x100 DUP2 DUP8 DUP7 SUB ADD DUP2 DUP9 ADD MSTORE PUSH2 0x1933 DUP6 DUP5 PUSH2 0x1815 JUMP JUMPDEST SWAP1 DUP9 ADD MLOAD DUP8 DUP3 SUB SWAP1 SWAP3 ADD DUP5 DUP9 ADD MSTORE SWAP4 POP SWAP1 POP PUSH2 0x194F DUP4 DUP3 PUSH2 0x1815 JUMP JUMPDEST SWAP7 SWAP6 POP POP POP POP POP POP JUMP JUMPDEST PUSH1 0x0 PUSH1 0x20 DUP3 DUP5 SUB SLT ISZERO PUSH2 0x196B JUMPI PUSH1 0x0 DUP1 REVERT JUMPDEST DUP2 CALLDATALOAD PUSH2 0x10C1 DUP2 PUSH2 0x170B JUMP JUMPDEST PUSH4 0x4E487B71 PUSH1 0xE0 SHL PUSH1 0x0 MSTORE PUSH1 0x41 PUSH1 0x4 MSTORE PUSH1 0x24 PUSH1 0x0 REVERT JUMPDEST PUSH1 0x40 MLOAD PUSH1 0xE0 DUP2 ADD PUSH8 0xFFFFFFFFFFFFFFFF DUP2 GT DUP3 DUP3 LT OR ISZERO PUSH2 0x19AF JUMPI PUSH2 0x19AF PUSH2 0x1976 JUMP JUMPDEST PUSH1 0x40 MSTORE SWAP1 JUMP JUMPDEST PUSH4 0xFFFFFFFF DUP2 AND DUP2 EQ PUSH2 0xB02 JUMPI PUSH1 0x0 DUP1 REVERT JUMPDEST DUP1 CALLDATALOAD PUSH2 0x172B DUP2 PUSH2 0x19B5 JUMP JUMPDEST PUSH1 0x0 DUP3 PUSH1 0x1F DUP4 ADD SLT PUSH2 0x19E3 JUMPI PUSH1 0x0 DUP1 REVERT JUMPDEST DUP2 CALLDATALOAD PUSH8 0xFFFFFFFFFFFFFFFF DUP1 DUP3 GT ISZERO PUSH2 0x19FE JUMPI PUSH2 0x19FE PUSH2 0x1976 JUMP JUMPDEST PUSH1 0x40 MLOAD PUSH1 0x1F DUP4 ADD PUSH1 0x1F NOT SWAP1 DUP2 AND PUSH1 0x3F ADD AND DUP2 ADD SWAP1 DUP3 DUP3 GT DUP2 DUP4 LT OR ISZERO PUSH2 0x1A26 JUMPI PUSH2 0x1A26 PUSH2 0x1976 JUMP JUMPDEST DUP2 PUSH1 0x40 MSTORE DUP4 DUP2 MSTORE DUP7 PUSH1 0x20 DUP6 DUP9 ADD ADD GT ISZERO PUSH2 0x1A3F JUMPI PUSH1 0x0 DUP1 REVERT JUMPDEST DUP4 PUSH1 0x20 DUP8 ADD PUSH1 0x20 DUP4 ADD CALLDATACOPY PUSH1 0x0 PUSH1 0x20 DUP6 DUP4 ADD ADD MSTORE DUP1 SWAP5 POP POP POP POP POP SWAP3 SWAP2 POP POP JUMP JUMPDEST PUSH1 0x0 PUSH1 0xE0 DUP3 CALLDATASIZE SUB SLT ISZERO PUSH2 0x1A71 JUMPI PUSH1 0x0 DUP1 REVERT JUMPDEST PUSH2 0x1A79 PUSH2 0x198C JUMP JUMPDEST PUSH2 0x1A82 DUP4 PUSH2 0x1720 JUMP JUMPDEST DUP2 MSTORE PUSH2 0x1A90 PUSH1 0x20 DUP5 ADD PUSH2 0x1720 JUMP JUMPDEST PUSH1 0x20 DUP3 ADD MSTORE PUSH1 0x40 DUP4 ADD CALLDATALOAD PUSH1 0x40 DUP3 ADD MSTORE PUSH2 0x1AAB PUSH1 0x60 DUP5 ADD PUSH2 0x19C7 JUMP JUMPDEST PUSH1 0x60 DUP3 ADD MSTORE PUSH2 0x1ABC PUSH1 0x80 DUP5 ADD PUSH2 0x19C7 JUMP JUMPDEST PUSH1 0x80 DUP3 ADD MSTORE PUSH2 0x1ACD PUSH1 0xA0 DUP5 ADD PUSH2 0x19C7 JUMP JUMPDEST PUSH1 0xA0 DUP3 ADD MSTORE PUSH1 0xC0 DUP4 ADD CALLDATALOAD PUSH8 0xFFFFFFFFFFFFFFFF DUP2 GT ISZERO PUSH2 0x1AEC JUMPI PUSH1 0x0 DUP1 REVERT JUMPDEST PUSH2 0x1AF8 CALLDATASIZE DUP3 DUP7 ADD PUSH2 0x19D2 JUMP JUMPDEST PUSH1 0xC0 DUP4 ADD MSTORE POP SWAP3 SWAP2 POP POP JUMP JUMPDEST PUSH1 0x1 DUP2 DUP2 SHR SWAP1 DUP3 AND DUP1 PUSH2 0x1B18 JUMPI PUSH1 0x7F DUP3 AND SWAP2 POP JUMPDEST PUSH1 0x20 DUP3 LT DUP2 SUB PUSH2 0x15AF JUMPI PUSH4 0x4E487B71 PUSH1 0xE0 SHL PUSH1 0x0 MSTORE PUSH1 0x22 PUSH1 0x4 MSTORE PUSH1 0x24 PUSH1 0x0 REVERT JUMPDEST PUSH1 0x0 PUSH1 0x20 DUP3 DUP5 SUB SLT ISZERO PUSH2 0x1B4A JUMPI PUSH1 0x0 DUP1 REVERT JUMPDEST POP MLOAD SWAP2 SWAP1 POP JUMP JUMPDEST PUSH1 0x0 PUSH1 0x20 DUP3 DUP5 SUB SLT ISZERO PUSH2 0x1B63 JUMPI PUSH1 0x0 DUP1 REVERT JUMPDEST DUP2 CALLDATALOAD PUSH2 0x10C1 DUP2 PUSH2 0x19B5 JUMP JUMPDEST PUSH1 0x0 DUP1 DUP4 CALLDATALOAD PUSH1 0x1E NOT DUP5 CALLDATASIZE SUB ADD DUP2 SLT PUSH2 0x1B85 JUMPI PUSH1 0x0 DUP1 REVERT JUMPDEST DUP4 ADD DUP1 CALLDATALOAD SWAP2 POP PUSH8 0xFFFFFFFFFFFFFFFF DUP3 GT ISZERO PUSH2 0x1BA0 JUMPI PUSH1 0x0 DUP1 REVERT JUMPDEST PUSH1 0x20 ADD SWAP2 POP CALLDATASIZE DUP2 SWAP1 SUB DUP3 SGT ISZERO PUSH2 0x166F JUMPI PUSH1 0x0 DUP1 REVERT JUMPDEST DUP1 SLOAD PUSH1 0x1 PUSH1 0x1 PUSH1 0xA0 SHL SUB NOT AND PUSH1 0x1 PUSH1 0x1 PUSH1 0xA0 SHL SUB SWAP3 SWAP1 SWAP3 AND SWAP2 SWAP1 SWAP2 OR SWAP1 SSTORE JUMP JUMPDEST PUSH1 0x0 DUP2 CALLDATALOAD PUSH2 0x23C DUP2 PUSH2 0x19B5 JUMP JUMPDEST PUSH1 0x1F DUP3 GT ISZERO PUSH2 0x12C0 JUMPI PUSH1 0x0 DUP2 PUSH1 0x0 MSTORE PUSH1 0x20 PUSH1 0x0 KECCAK256 PUSH1 0x1F DUP6 ADD PUSH1 0x5 SHR DUP2 ADD PUSH1 0x20 DUP7 LT ISZERO PUSH2 0x1C0B JUMPI POP DUP1 JUMPDEST PUSH1 0x1F DUP6 ADD PUSH1 0x5 SHR DUP3 ADD SWAP2 POP JUMPDEST DUP2 DUP2 LT ISZERO PUSH2 0x1C2A JUMPI DUP3 DUP2 SSTORE PUSH1 0x1 ADD PUSH2 0x1C17 JUMP JUMPDEST POP POP POP POP POP POP JUMP JUMPDEST PUSH8 0xFFFFFFFFFFFFFFFF DUP4 GT ISZERO PUSH2 0x1C4A JUMPI PUSH2 0x1C4A PUSH2 0x1976 JUMP JUMPDEST PUSH2 0x1C5E DUP4 PUSH2 0x1C58 DUP4 SLOAD PUSH2 0x1B04 JUMP JUMPDEST DUP4 PUSH2 0x1BE2 JUMP JUMPDEST PUSH1 0x0 PUSH1 0x1F DUP5 GT PUSH1 0x1 DUP2 EQ PUSH2 0x1C92 JUMPI PUSH1 0x0 DUP6 ISZERO PUSH2 0x1C7A JUMPI POP DUP4 DUP3 ADD CALLDATALOAD JUMPDEST PUSH1 0x0 NOT PUSH1 0x3 DUP8 SWAP1 SHL SHR NOT AND PUSH1 0x1 DUP7 SWAP1 SHL OR DUP4 SSTORE PUSH2 0x100E JUMP JUMPDEST PUSH1 0x0 DUP4 DUP2 MSTORE PUSH1 0x20 SWAP1 KECCAK256 PUSH1 0x1F NOT DUP7 AND SWAP1 DUP4 JUMPDEST DUP3 DUP2 LT ISZERO PUSH2 0x1CC3 JUMPI DUP7 DUP6 ADD CALLDATALOAD DUP3 SSTORE PUSH1 0x20 SWAP5 DUP6 ADD SWAP5 PUSH1 0x1 SWAP1 SWAP3 ADD SWAP2 ADD PUSH2 0x1CA3 JUMP JUMPDEST POP DUP7 DUP3 LT ISZERO PUSH2 0x1CE0 JUMPI PUSH1 0x0 NOT PUSH1 0xF8 DUP9 PUSH1 0x3 SHL AND SHR NOT DUP5 DUP8 ADD CALLDATALOAD AND DUP2 SSTORE JUMPDEST POP POP PUSH1 0x1 DUP6 PUSH1 0x1 SHL ADD DUP4 SSTORE POP POP POP POP POP JUMP JUMPDEST DUP2 CALLDATALOAD PUSH2 0x1CFD DUP2 PUSH2 0x170B JUMP JUMPDEST PUSH2 0x1D07 DUP2 DUP4 PUSH2 0x1BB5 JUMP JUMPDEST POP PUSH1 0x20 DUP3 ADD CALLDATALOAD PUSH2 0x1D16 DUP2 PUSH2 0x170B JUMP JUMPDEST PUSH2 0x1D23 DUP2 PUSH1 0x1 DUP5 ADD PUSH2 0x1BB5 JUMP JUMPDEST POP PUSH1 0x40 DUP3 ADD CALLDATALOAD PUSH1 0x2 DUP3 ADD SSTORE PUSH1 0x3 DUP2 ADD PUSH1 0x60 DUP4 ADD CALLDATALOAD PUSH2 0x1D40 DUP2 PUSH2 0x19B5 JUMP JUMPDEST DUP2 SLOAD PUSH1 0x80 DUP6 ADD CALLDATALOAD PUSH2 0x1D50 DUP2 PUSH2 0x19B5 JUMP JUMPDEST PUSH8 0xFFFFFFFF00000000 DUP2 PUSH1 0x20 SHL AND PUSH4 0xFFFFFFFF DUP5 AND PUSH8 0xFFFFFFFFFFFFFFFF NOT DUP5 AND OR OR DUP5 SSTORE POP POP POP PUSH2 0x1DB1 PUSH2 0x1D87 PUSH1 0xA0 DUP6 ADD PUSH2 0x1BD5 JUMP JUMPDEST DUP3 SLOAD PUSH12 0xFFFFFFFF0000000000000000 NOT AND PUSH1 0x40 SWAP2 SWAP1 SWAP2 SHL PUSH12 0xFFFFFFFF0000000000000000 AND OR DUP3 SSTORE JUMP JUMPDEST POP PUSH2 0x1DBF PUSH1 0xC0 DUP4 ADD DUP4 PUSH2 0x1B6E JUMP JUMPDEST PUSH2 0x1DCD DUP2 DUP4 PUSH1 0x4 DUP7 ADD PUSH2 0x1C32 JUMP JUMPDEST POP POP POP POP JUMP JUMPDEST DUP1 DUP3 ADD DUP1 DUP3 GT ISZERO PUSH2 0x23C JUMPI PUSH4 0x4E487B71 PUSH1 0xE0 SHL PUSH1 0x0 MSTORE PUSH1 0x11 PUSH1 0x4 MSTORE PUSH1 0x24 PUSH1 0x0 REVERT JUMPDEST PUSH1 0x0 DUP1 DUP4 CALLDATALOAD PUSH1 0x1E NOT DUP5 CALLDATASIZE SUB ADD DUP2 SLT PUSH2 0x1E0B JUMPI PUSH1 0x0 DUP1 REVERT JUMPDEST DUP4 ADD PUSH1 0x20 DUP2 ADD SWAP3 POP CALLDATALOAD SWAP1 POP PUSH8 0xFFFFFFFFFFFFFFFF DUP2 GT ISZERO PUSH2 0x1E2B JUMPI PUSH1 0x0 DUP1 REVERT JUMPDEST DUP1 CALLDATASIZE SUB DUP3 SGT ISZERO PUSH2 0x166F JUMPI PUSH1 0x0 DUP1 REVERT JUMPDEST DUP2 DUP4 MSTORE DUP2 DUP2 PUSH1 0x20 DUP6 ADD CALLDATACOPY POP PUSH1 0x0 DUP3 DUP3 ADD PUSH1 0x20 SWAP1 DUP2 ADD SWAP2 SWAP1 SWAP2 MSTORE PUSH1 0x1F SWAP1 SWAP2 ADD PUSH1 0x1F NOT AND SWAP1 SWAP2 ADD ADD SWAP1 JUMP JUMPDEST PUSH1 0x20 DUP2 MSTORE PUSH1 0x0 DUP3 CALLDATALOAD PUSH2 0x1E74 DUP2 PUSH2 0x170B JUMP JUMPDEST PUSH1 0x1 PUSH1 0x1 PUSH1 0xA0 SHL SUB SWAP1 DUP2 AND PUSH1 0x20 DUP5 DUP2 ADD SWAP2 SWAP1 SWAP2 MSTORE DUP5 ADD CALLDATALOAD SWAP1 PUSH2 0x1E95 DUP3 PUSH2 0x170B JUMP JUMPDEST DUP1 DUP3 AND PUSH1 0x40 DUP6 ADD MSTORE POP POP PUSH1 0x40 DUP4 ADD CALLDATALOAD PUSH1 0x60 DUP4 ADD MSTORE PUSH1 0x60 DUP4 ADD CALLDATALOAD PUSH2 0x1EB7 DUP2 PUSH2 0x19B5 JUMP JUMPDEST PUSH4 0xFFFFFFFF DUP2 AND PUSH1 0x80 DUP5 ADD MSTORE POP PUSH2 0x1ED0 PUSH1 0x80 DUP5 ADD PUSH2 0x19C7 JUMP JUMPDEST PUSH4 0xFFFFFFFF DUP2 AND PUSH1 0xA0 DUP5 ADD MSTORE POP PUSH2 0x1EE9 PUSH1 0xA0 DUP5 ADD PUSH2 0x19C7 JUMP JUMPDEST PUSH4 0xFFFFFFFF DUP2 AND PUSH1 0xC0 DUP5 ADD MSTORE POP PUSH2 0x1F03 PUSH1 0xC0 DUP5 ADD DUP5 PUSH2 0x1DF4 JUMP JUMPDEST PUSH1 0xE0 DUP1 DUP6 ADD MSTORE PUSH2 0x1F18 PUSH2 0x100 DUP6 ADD DUP3 DUP5 PUSH2 0x1E3A JUMP JUMPDEST SWAP6 SWAP5 POP POP POP POP POP JUMP JUMPDEST PUSH1 0x0 PUSH1 0x20 DUP1 DUP4 MSTORE PUSH1 0x1 DUP1 PUSH1 0xA0 SHL SUB DUP1 DUP6 MLOAD AND PUSH1 0x20 DUP6 ADD MSTORE DUP1 PUSH1 0x20 DUP7 ADD MLOAD AND PUSH1 0x40 DUP6 ADD MSTORE POP PUSH1 0x40 DUP5 ADD MLOAD PUSH1 0x60 DUP5 ADD MSTORE PUSH1 0x60 DUP5 ADD MLOAD PUSH4 0xFFFFFFFF DUP1 DUP3 AND PUSH1 0x80 DUP7 ADD MSTORE DUP1 PUSH1 0x80 DUP8 ADD MLOAD AND PUSH1 0xA0 DUP7 ADD MSTORE DUP1 PUSH1 0xA0 DUP8 ADD MLOAD AND PUSH1 0xC0 DUP7 ADD MSTORE POP POP PUSH1 0xC0 DUP5 ADD MLOAD PUSH1 0xE0 DUP1 DUP6 ADD MSTORE DUP1 MLOAD DUP1 PUSH2 0x100 DUP7 ADD MSTORE PUSH1 0x0 JUMPDEST DUP2 DUP2 LT ISZERO PUSH2 0x1FAF JUMPI DUP3 DUP2 ADD DUP5 ADD MLOAD DUP7 DUP3 ADD PUSH2 0x120 ADD MSTORE DUP4 ADD PUSH2 0x1F92 JUMP JUMPDEST POP PUSH2 0x120 SWAP3 POP PUSH1 0x0 DUP4 DUP3 DUP8 ADD ADD MSTORE DUP3 PUSH1 0x1F NOT PUSH1 0x1F DUP4 ADD AND DUP7 ADD ADD SWAP4 POP POP POP POP SWAP3 SWAP2 POP POP JUMP JUMPDEST PUSH4 0x4E487B71 PUSH1 0xE0 SHL PUSH1 0x0 MSTORE PUSH1 0x21 PUSH1 0x4 MSTORE PUSH1 0x24 PUSH1 0x0 REVERT INVALID LOG2 PUSH5 0x6970667358 0x22 SLT KECCAK256 0xEE 0x4A DUP13 0xD9 CREATE2 PUSH20 0x951438A6DA77F7B91C4FA2041A2F2B3D31A20537 0x1F PUSH20 0x8A3B382664736F6C634300081600330000000000 "},"gasEstimates":{"creation":{"codeDepositCost":"1644800","executionCost":"49691","totalCost":"1694491"},"external":{"computeOrderHash((address,address,uint256,uint32,uint32,uint32,bytes))":"infinite","deleteOrder(bytes32)":"infinite","destroyExpiredMatch(bytes32)":"26592","initiate((address,address,uint256,uint32,uint32,uint32,bytes),bytes,bytes)":"infinite","matchOrders(bytes32,bytes32)":"infinite","nonceOf(address)":"2586","owner()":"2390","renounceOwnership()":"infinite","resolve((address,address,uint256,uint32,uint32,uint32,bytes),bytes)":"infinite","transferOwnership(address)":"infinite","whitelistSettlementContract(address,uint256)":"48983"},"internal":{"_broadcastMatch(bytes32,bytes32,uint256)":"15","_broadcastOrder(struct CrossChainOrder calldata,uint256)":"infinite","_broadcastOrderDelete(bytes32,uint256)":"13","_broadcastUnmatch(bytes32,bytes32)":"infinite","_deleteLzOrder(bytes32)":"infinite","_hashOrder(struct CrossChainOrder memory)":"infinite","_initiateLzOrder(struct CrossChainOrder memory)":"infinite","_matchOrdersLz(bytes32,bytes32,uint256)":"infinite","_unmatchOrdersLz(bytes32,bytes32)":"infinite","_verifySignature(struct CrossChainOrder memory,bytes memory)":"infinite"}},"methodIdentifiers":{"computeOrderHash((address,address,uint256,uint32,uint32,uint32,bytes))":"5d357deb","deleteOrder(bytes32)":"87a61cbd","destroyExpiredMatch(bytes32)":"ffc374c9","initiate((address,address,uint256,uint32,uint32,uint32,bytes),bytes,bytes)":"962fc2a3","matchOrders(bytes32,bytes32)":"7fe3826e","nonceOf(address)":"ed2a2d64","owner()":"8da5cb5b","renounceOwnership()":"715018a6","resolve((address,address,uint256,uint32,uint32,uint32,bytes),bytes)":"bf6d01d3","transferOwnership(address)":"f2fde38b","whitelistSettlementContract(address,uint256)":"97b2b09f"}},"storageLayout":{"storage":[{"astId":8,"contract":"contracts/SettlementContract.sol:SettlementContract","label":"_owner","offset":0,"slot":"0","type":"t_address"},{"astId":441,"contract":"contracts/SettlementContract.sol:SettlementContract","label":"_status","offset":0,"slot":"1","type":"t_uint256"},{"astId":2437,"contract":"contracts/SettlementContract.sol:SettlementContract","label":"_isSettlementSupported","offset":0,"slot":"2","type":"t_mapping(t_address,t_bool)"},{"astId":2441,"contract":"contracts/SettlementContract.sol:SettlementContract","label":"_settlementToChainId","offset":0,"slot":"3","type":"t_mapping(t_address,t_uint256)"},{"astId":2469,"contract":"contracts/SettlementContract.sol:SettlementContract","label":"_orders","offset":0,"slot":"4","type":"t_mapping(t_bytes32,t_struct(CrossChainOrder)3213_storage)"},{"astId":2473,"contract":"contracts/SettlementContract.sol:SettlementContract","label":"_destChains","offset":0,"slot":"5","type":"t_mapping(t_bytes32,t_uint256)"},{"astId":2477,"contract":"contracts/SettlementContract.sol:SettlementContract","label":"_nonceOf","offset":0,"slot":"6","type":"t_mapping(t_address,t_uint256)"},{"astId":2830,"contract":"contracts/SettlementContract.sol:SettlementContract","label":"_matchTimestamps","offset":0,"slot":"7","type":"t_mapping(t_bytes32,t_uint256)"},{"astId":2834,"contract":"contracts/SettlementContract.sol:SettlementContract","label":"_matchedOrders","offset":0,"slot":"8","type":"t_mapping(t_bytes32,t_bytes32)"}],"types":{"t_address":{"encoding":"inplace","label":"address","numberOfBytes":"20"},"t_bool":{"encoding":"inplace","label":"bool","numberOfBytes":"1"},"t_bytes32":{"encoding":"inplace","label":"bytes32","numberOfBytes":"32"},"t_bytes_storage":{"encoding":"bytes","label":"bytes","numberOfBytes":"32"},"t_mapping(t_address,t_bool)":{"encoding":"mapping","key":"t_address","label":"mapping(address => bool)","numberOfBytes":"32","value":"t_bool"},"t_mapping(t_address,t_uint256)":{"encoding":"mapping","key":"t_address","label":"mapping(address => uint256)","numberOfBytes":"32","value":"t_uint256"},"t_mapping(t_bytes32,t_bytes32)":{"encoding":"mapping","key":"t_bytes32","label":"mapping(bytes32 => bytes32)","numberOfBytes":"32","value":"t_bytes32"},"t_mapping(t_bytes32,t_struct(CrossChainOrder)3213_storage)":{"encoding":"mapping","key":"t_bytes32","label":"mapping(bytes32 => struct CrossChainOrder)","numberOfBytes":"32","value":"t_struct(CrossChainOrder)3213_storage"},"t_mapping(t_bytes32,t_uint256)":{"encoding":"mapping","key":"t_bytes32","label":"mapping(bytes32 => uint256)","numberOfBytes":"32","value":"t_uint256"},"t_struct(CrossChainOrder)3213_storage":{"encoding":"inplace","label":"struct CrossChainOrder","members":[{"astId":3194,"contract":"contracts/SettlementContract.sol:SettlementContract","label":"settlementContract","offset":0,"slot":"0","type":"t_address"},{"astId":3197,"contract":"contracts/SettlementContract.sol:SettlementContract","label":"swapper","offset":0,"slot":"1","type":"t_address"},{"astId":3200,"contract":"contracts/SettlementContract.sol:SettlementContract","label":"nonce","offset":0,"slot":"2","type":"t_uint256"},{"astId":3203,"contract":"contracts/SettlementContract.sol:SettlementContract","label":"originChainId","offset":0,"slot":"3","type":"t_uint32"},{"astId":3206,"contract":"contracts/SettlementContract.sol:SettlementContract","label":"initiateDeadline","offset":4,"slot":"3","type":"t_uint32"},{"astId":3209,"contract":"contracts/SettlementContract.sol:SettlementContract","label":"fillDeadline","offset":8,"slot":"3","type":"t_uint32"},{"astId":3212,"contract":"contracts/SettlementContract.sol:SettlementContract","label":"orderData","offset":0,"slot":"4","type":"t_bytes_storage"}],"numberOfBytes":"160"},"t_uint256":{"encoding":"inplace","label":"uint256","numberOfBytes":"32"},"t_uint32":{"encoding":"inplace","label":"uint32","numberOfBytes":"4"}}},"userdoc":{"kind":"user","methods":{"computeOrderHash((address,address,uint256,uint32,uint32,uint32,bytes))":{"notice":" Order Hashing"},"constructor":{"notice":" Constructor"},"resolve((address,address,uint256,uint32,uint32,uint32,bytes),bytes)":{"notice":" Order Resolving"}},"version":1}}}}