{
  "_format": "hh-sol-artifact-1",
  "contractName": "SettlementContract",
  "sourceName": "contracts/SettlementContract.sol",
  "abi": [
    {
      "inputs": [
        {
          "internalType": "address",
          "name": "endpoint",
          "type": "address"
        },
        {
          "internalType": "address",
          "name": "delegate",
          "type": "address"
        },
        {
          "internalType": "uint256",
          "name": "_chainId",
          "type": "uint256"
        }
      ],
      "stateMutability": "nonpayable",
      "type": "constructor"
    },
    {
      "inputs": [
        {
          "internalType": "address",
          "name": "target",
          "type": "address"
        }
      ],
      "name": "AddressEmptyCode",
      "type": "error"
    },
    {
      "inputs": [
        {
          "internalType": "address",
          "name": "account",
          "type": "address"
        }
      ],
      "name": "AddressInsufficientBalance",
      "type": "error"
    },
    {
      "inputs": [],
      "name": "ECDSAInvalidSignature",
      "type": "error"
    },
    {
      "inputs": [
        {
          "internalType": "uint256",
          "name": "length",
          "type": "uint256"
        }
      ],
      "name": "ECDSAInvalidSignatureLength",
      "type": "error"
    },
    {
      "inputs": [
        {
          "internalType": "bytes32",
          "name": "s",
          "type": "bytes32"
        }
      ],
      "name": "ECDSAInvalidSignatureS",
      "type": "error"
    },
    {
      "inputs": [],
      "name": "FailedInnerCall",
      "type": "error"
    },
    {
      "inputs": [],
      "name": "InvalidDelegate",
      "type": "error"
    },
    {
      "inputs": [],
      "name": "InvalidEndpointCall",
      "type": "error"
    },
    {
      "inputs": [
        {
          "internalType": "uint16",
          "name": "optionType",
          "type": "uint16"
        }
      ],
      "name": "InvalidOptionType",
      "type": "error"
    },
    {
      "inputs": [],
      "name": "LzTokenUnavailable",
      "type": "error"
    },
    {
      "inputs": [
        {
          "internalType": "uint32",
          "name": "eid",
          "type": "uint32"
        }
      ],
      "name": "NoPeer",
      "type": "error"
    },
    {
      "inputs": [
        {
          "internalType": "uint256",
          "name": "msgValue",
          "type": "uint256"
        }
      ],
      "name": "NotEnoughNative",
      "type": "error"
    },
    {
      "inputs": [
        {
          "internalType": "address",
          "name": "addr",
          "type": "address"
        }
      ],
      "name": "OnlyEndpoint",
      "type": "error"
    },
    {
      "inputs": [
        {
          "internalType": "uint32",
          "name": "eid",
          "type": "uint32"
        },
        {
          "internalType": "bytes32",
          "name": "sender",
          "type": "bytes32"
        }
      ],
      "name": "OnlyPeer",
      "type": "error"
    },
    {
      "inputs": [
        {
          "internalType": "address",
          "name": "owner",
          "type": "address"
        }
      ],
      "name": "OwnableInvalidOwner",
      "type": "error"
    },
    {
      "inputs": [
        {
          "internalType": "address",
          "name": "account",
          "type": "address"
        }
      ],
      "name": "OwnableUnauthorizedAccount",
      "type": "error"
    },
    {
      "inputs": [],
      "name": "ReentrancyGuardReentrantCall",
      "type": "error"
    },
    {
      "inputs": [
        {
          "internalType": "uint8",
          "name": "bits",
          "type": "uint8"
        },
        {
          "internalType": "uint256",
          "name": "value",
          "type": "uint256"
        }
      ],
      "name": "SafeCastOverflowedUintDowncast",
      "type": "error"
    },
    {
      "inputs": [
        {
          "internalType": "address",
          "name": "token",
          "type": "address"
        }
      ],
      "name": "SafeERC20FailedOperation",
      "type": "error"
    },
    {
      "anonymous": false,
      "inputs": [
        {
          "indexed": true,
          "internalType": "bytes32",
          "name": "orderHashA",
          "type": "bytes32"
        },
        {
          "indexed": true,
          "internalType": "bytes32",
          "name": "orderHashB",
          "type": "bytes32"
        }
      ],
      "name": "MatchDestroyed",
      "type": "event"
    },
    {
      "anonymous": false,
      "inputs": [
        {
          "indexed": true,
          "internalType": "bytes32",
          "name": "orderHash",
          "type": "bytes32"
        },
        {
          "components": [
            {
              "internalType": "address",
              "name": "settlementContract",
              "type": "address"
            },
            {
              "internalType": "address",
              "name": "swapper",
              "type": "address"
            },
            {
              "internalType": "uint256",
              "name": "nonce",
              "type": "uint256"
            },
            {
              "internalType": "uint32",
              "name": "originChainId",
              "type": "uint32"
            },
            {
              "internalType": "uint32",
              "name": "initiateDeadline",
              "type": "uint32"
            },
            {
              "internalType": "uint32",
              "name": "fillDeadline",
              "type": "uint32"
            },
            {
              "internalType": "bytes",
              "name": "orderData",
              "type": "bytes"
            }
          ],
          "indexed": false,
          "internalType": "struct CrossChainOrder",
          "name": "order",
          "type": "tuple"
        }
      ],
      "name": "OrderCreated",
      "type": "event"
    },
    {
      "anonymous": false,
      "inputs": [
        {
          "indexed": true,
          "internalType": "bytes32",
          "name": "orderHash",
          "type": "bytes32"
        }
      ],
      "name": "OrderDeleted",
      "type": "event"
    },
    {
      "anonymous": false,
      "inputs": [
        {
          "indexed": true,
          "internalType": "bytes32",
          "name": "orderHash",
          "type": "bytes32"
        },
        {
          "indexed": true,
          "internalType": "bytes32",
          "name": "matchedOrderHash",
          "type": "bytes32"
        },
        {
          "components": [
            {
              "internalType": "address",
              "name": "settlementContract",
              "type": "address"
            },
            {
              "internalType": "address",
              "name": "swapper",
              "type": "address"
            },
            {
              "internalType": "uint256",
              "name": "nonce",
              "type": "uint256"
            },
            {
              "internalType": "uint32",
              "name": "originChainId",
              "type": "uint32"
            },
            {
              "internalType": "uint32",
              "name": "initiateDeadline",
              "type": "uint32"
            },
            {
              "internalType": "uint32",
              "name": "fillDeadline",
              "type": "uint32"
            },
            {
              "components": [
                {
                  "internalType": "address",
                  "name": "token",
                  "type": "address"
                },
                {
                  "internalType": "uint256",
                  "name": "amount",
                  "type": "uint256"
                }
              ],
              "internalType": "struct Input[]",
              "name": "swapperInputs",
              "type": "tuple[]"
            },
            {
              "components": [
                {
                  "internalType": "address",
                  "name": "token",
                  "type": "address"
                },
                {
                  "internalType": "uint256",
                  "name": "amount",
                  "type": "uint256"
                },
                {
                  "internalType": "address",
                  "name": "recipient",
                  "type": "address"
                },
                {
                  "internalType": "uint32",
                  "name": "chainId",
                  "type": "uint32"
                }
              ],
              "internalType": "struct Output[]",
              "name": "swapperOutputs",
              "type": "tuple[]"
            },
            {
              "components": [
                {
                  "internalType": "address",
                  "name": "token",
                  "type": "address"
                },
                {
                  "internalType": "uint256",
                  "name": "amount",
                  "type": "uint256"
                },
                {
                  "internalType": "address",
                  "name": "recipient",
                  "type": "address"
                },
                {
                  "internalType": "uint32",
                  "name": "chainId",
                  "type": "uint32"
                }
              ],
              "internalType": "struct Output[]",
              "name": "fillerOutputs",
              "type": "tuple[]"
            }
          ],
          "indexed": false,
          "internalType": "struct ResolvedCrossChainOrder",
          "name": "resolvedOrder",
          "type": "tuple"
        }
      ],
      "name": "OrderResolved",
      "type": "event"
    },
    {
      "anonymous": false,
      "inputs": [
        {
          "indexed": true,
          "internalType": "bytes32",
          "name": "orderHashA",
          "type": "bytes32"
        },
        {
          "indexed": true,
          "internalType": "bytes32",
          "name": "orderHashB",
          "type": "bytes32"
        },
        {
          "indexed": false,
          "internalType": "uint256",
          "name": "timestamp",
          "type": "uint256"
        }
      ],
      "name": "OrdersMatched",
      "type": "event"
    },
    {
      "anonymous": false,
      "inputs": [
        {
          "indexed": true,
          "internalType": "address",
          "name": "previousOwner",
          "type": "address"
        },
        {
          "indexed": true,
          "internalType": "address",
          "name": "newOwner",
          "type": "address"
        }
      ],
      "name": "OwnershipTransferred",
      "type": "event"
    },
    {
      "anonymous": false,
      "inputs": [
        {
          "indexed": false,
          "internalType": "uint32",
          "name": "eid",
          "type": "uint32"
        },
        {
          "indexed": false,
          "internalType": "bytes32",
          "name": "peer",
          "type": "bytes32"
        }
      ],
      "name": "PeerSet",
      "type": "event"
    },
    {
      "inputs": [
        {
          "components": [
            {
              "internalType": "uint32",
              "name": "srcEid",
              "type": "uint32"
            },
            {
              "internalType": "bytes32",
              "name": "sender",
              "type": "bytes32"
            },
            {
              "internalType": "uint64",
              "name": "nonce",
              "type": "uint64"
            }
          ],
          "internalType": "struct Origin",
          "name": "origin",
          "type": "tuple"
        }
      ],
      "name": "allowInitializePath",
      "outputs": [
        {
          "internalType": "bool",
          "name": "",
          "type": "bool"
        }
      ],
      "stateMutability": "view",
      "type": "function"
    },
    {
      "inputs": [],
      "name": "chainId",
      "outputs": [
        {
          "internalType": "uint256",
          "name": "",
          "type": "uint256"
        }
      ],
      "stateMutability": "view",
      "type": "function"
    },
    {
      "inputs": [
        {
          "components": [
            {
              "internalType": "address",
              "name": "settlementContract",
              "type": "address"
            },
            {
              "internalType": "address",
              "name": "swapper",
              "type": "address"
            },
            {
              "internalType": "uint256",
              "name": "nonce",
              "type": "uint256"
            },
            {
              "internalType": "uint32",
              "name": "originChainId",
              "type": "uint32"
            },
            {
              "internalType": "uint32",
              "name": "initiateDeadline",
              "type": "uint32"
            },
            {
              "internalType": "uint32",
              "name": "fillDeadline",
              "type": "uint32"
            },
            {
              "internalType": "bytes",
              "name": "orderData",
              "type": "bytes"
            }
          ],
          "internalType": "struct CrossChainOrder",
          "name": "order",
          "type": "tuple"
        }
      ],
      "name": "computeOrderHash",
      "outputs": [
        {
          "internalType": "bytes32",
          "name": "",
          "type": "bytes32"
        }
      ],
      "stateMutability": "pure",
      "type": "function"
    },
    {
      "inputs": [
        {
          "internalType": "bytes32",
          "name": "hash",
          "type": "bytes32"
        },
        {
          "internalType": "uint256",
          "name": "messageFee",
          "type": "uint256"
        }
      ],
      "name": "deleteOrder",
      "outputs": [],
      "stateMutability": "nonpayable",
      "type": "function"
    },
    {
      "inputs": [
        {
          "internalType": "bytes32",
          "name": "orderHash",
          "type": "bytes32"
        }
      ],
      "name": "destroyExpiredMatch",
      "outputs": [],
      "stateMutability": "nonpayable",
      "type": "function"
    },
    {
      "inputs": [],
      "name": "endpoint",
      "outputs": [
        {
          "internalType": "contract ILayerZeroEndpointV2",
          "name": "",
          "type": "address"
        }
      ],
      "stateMutability": "view",
      "type": "function"
    },
    {
      "inputs": [
        {
          "components": [
            {
              "internalType": "address",
              "name": "settlementContract",
              "type": "address"
            },
            {
              "internalType": "address",
              "name": "swapper",
              "type": "address"
            },
            {
              "internalType": "uint256",
              "name": "nonce",
              "type": "uint256"
            },
            {
              "internalType": "uint32",
              "name": "originChainId",
              "type": "uint32"
            },
            {
              "internalType": "uint32",
              "name": "initiateDeadline",
              "type": "uint32"
            },
            {
              "internalType": "uint32",
              "name": "fillDeadline",
              "type": "uint32"
            },
            {
              "internalType": "bytes",
              "name": "orderData",
              "type": "bytes"
            }
          ],
          "internalType": "struct CrossChainOrder",
          "name": "order",
          "type": "tuple"
        },
        {
          "internalType": "bytes",
          "name": "signature",
          "type": "bytes"
        },
        {
          "internalType": "bytes",
          "name": "fillerData",
          "type": "bytes"
        }
      ],
      "name": "initiate",
      "outputs": [],
      "stateMutability": "payable",
      "type": "function"
    },
    {
      "inputs": [
        {
          "components": [
            {
              "internalType": "uint32",
              "name": "srcEid",
              "type": "uint32"
            },
            {
              "internalType": "bytes32",
              "name": "sender",
              "type": "bytes32"
            },
            {
              "internalType": "uint64",
              "name": "nonce",
              "type": "uint64"
            }
          ],
          "internalType": "struct Origin",
          "name": "",
          "type": "tuple"
        },
        {
          "internalType": "bytes",
          "name": "",
          "type": "bytes"
        },
        {
          "internalType": "address",
          "name": "_sender",
          "type": "address"
        }
      ],
      "name": "isComposeMsgSender",
      "outputs": [
        {
          "internalType": "bool",
          "name": "",
          "type": "bool"
        }
      ],
      "stateMutability": "view",
      "type": "function"
    },
    {
      "inputs": [
        {
          "components": [
            {
              "internalType": "uint32",
              "name": "srcEid",
              "type": "uint32"
            },
            {
              "internalType": "bytes32",
              "name": "sender",
              "type": "bytes32"
            },
            {
              "internalType": "uint64",
              "name": "nonce",
              "type": "uint64"
            }
          ],
          "internalType": "struct Origin",
          "name": "_origin",
          "type": "tuple"
        },
        {
          "internalType": "bytes32",
          "name": "_guid",
          "type": "bytes32"
        },
        {
          "internalType": "bytes",
          "name": "_message",
          "type": "bytes"
        },
        {
          "internalType": "address",
          "name": "_executor",
          "type": "address"
        },
        {
          "internalType": "bytes",
          "name": "_extraData",
          "type": "bytes"
        }
      ],
      "name": "lzReceive",
      "outputs": [],
      "stateMutability": "payable",
      "type": "function"
    },
    {
      "inputs": [
        {
          "internalType": "bytes32",
          "name": "orderHashA",
          "type": "bytes32"
        },
        {
          "internalType": "bytes32",
          "name": "orderHashB",
          "type": "bytes32"
        },
        {
          "internalType": "uint256",
          "name": "messageFee",
          "type": "uint256"
        }
      ],
      "name": "matchOrders",
      "outputs": [],
      "stateMutability": "payable",
      "type": "function"
    },
    {
      "inputs": [
        {
          "internalType": "uint32",
          "name": "",
          "type": "uint32"
        },
        {
          "internalType": "bytes32",
          "name": "",
          "type": "bytes32"
        }
      ],
      "name": "nextNonce",
      "outputs": [
        {
          "internalType": "uint64",
          "name": "nonce",
          "type": "uint64"
        }
      ],
      "stateMutability": "view",
      "type": "function"
    },
    {
      "inputs": [
        {
          "internalType": "address",
          "name": "user",
          "type": "address"
        }
      ],
      "name": "nonceOf",
      "outputs": [
        {
          "internalType": "uint256",
          "name": "",
          "type": "uint256"
        }
      ],
      "stateMutability": "view",
      "type": "function"
    },
    {
      "inputs": [],
      "name": "oAppVersion",
      "outputs": [
        {
          "internalType": "uint64",
          "name": "senderVersion",
          "type": "uint64"
        },
        {
          "internalType": "uint64",
          "name": "receiverVersion",
          "type": "uint64"
        }
      ],
      "stateMutability": "pure",
      "type": "function"
    },
    {
      "inputs": [],
      "name": "owner",
      "outputs": [
        {
          "internalType": "address",
          "name": "",
          "type": "address"
        }
      ],
      "stateMutability": "view",
      "type": "function"
    },
    {
      "inputs": [
        {
          "internalType": "uint32",
          "name": "eid",
          "type": "uint32"
        }
      ],
      "name": "peers",
      "outputs": [
        {
          "internalType": "bytes32",
          "name": "peer",
          "type": "bytes32"
        }
      ],
      "stateMutability": "view",
      "type": "function"
    },
    {
      "inputs": [
        {
          "internalType": "bytes32",
          "name": "orderHash",
          "type": "bytes32"
        }
      ],
      "name": "quoteDeleteOrder",
      "outputs": [
        {
          "components": [
            {
              "internalType": "uint256",
              "name": "nativeFee",
              "type": "uint256"
            },
            {
              "internalType": "uint256",
              "name": "lzTokenFee",
              "type": "uint256"
            }
          ],
          "internalType": "struct MessagingFee",
          "name": "",
          "type": "tuple"
        }
      ],
      "stateMutability": "view",
      "type": "function"
    },
    {
      "inputs": [
        {
          "components": [
            {
              "internalType": "address",
              "name": "settlementContract",
              "type": "address"
            },
            {
              "internalType": "address",
              "name": "swapper",
              "type": "address"
            },
            {
              "internalType": "uint256",
              "name": "nonce",
              "type": "uint256"
            },
            {
              "internalType": "uint32",
              "name": "originChainId",
              "type": "uint32"
            },
            {
              "internalType": "uint32",
              "name": "initiateDeadline",
              "type": "uint32"
            },
            {
              "internalType": "uint32",
              "name": "fillDeadline",
              "type": "uint32"
            },
            {
              "internalType": "bytes",
              "name": "orderData",
              "type": "bytes"
            }
          ],
          "internalType": "struct CrossChainOrder",
          "name": "order",
          "type": "tuple"
        },
        {
          "internalType": "uint32",
          "name": "dstEid",
          "type": "uint32"
        }
      ],
      "name": "quoteInitialize",
      "outputs": [
        {
          "components": [
            {
              "internalType": "uint256",
              "name": "nativeFee",
              "type": "uint256"
            },
            {
              "internalType": "uint256",
              "name": "lzTokenFee",
              "type": "uint256"
            }
          ],
          "internalType": "struct MessagingFee",
          "name": "",
          "type": "tuple"
        }
      ],
      "stateMutability": "view",
      "type": "function"
    },
    {
      "inputs": [
        {
          "internalType": "bytes32",
          "name": "orderHashA",
          "type": "bytes32"
        },
        {
          "internalType": "bytes32",
          "name": "orderHashB",
          "type": "bytes32"
        }
      ],
      "name": "quoteMatch",
      "outputs": [
        {
          "components": [
            {
              "internalType": "uint256",
              "name": "nativeFee",
              "type": "uint256"
            },
            {
              "internalType": "uint256",
              "name": "lzTokenFee",
              "type": "uint256"
            }
          ],
          "internalType": "struct MessagingFee",
          "name": "",
          "type": "tuple"
        }
      ],
      "stateMutability": "view",
      "type": "function"
    },
    {
      "inputs": [
        {
          "internalType": "bytes32",
          "name": "orderHashA",
          "type": "bytes32"
        },
        {
          "internalType": "bytes32",
          "name": "orderHashB",
          "type": "bytes32"
        }
      ],
      "name": "quoteResolve",
      "outputs": [
        {
          "components": [
            {
              "internalType": "uint256",
              "name": "nativeFee",
              "type": "uint256"
            },
            {
              "internalType": "uint256",
              "name": "lzTokenFee",
              "type": "uint256"
            }
          ],
          "internalType": "struct MessagingFee",
          "name": "",
          "type": "tuple"
        }
      ],
      "stateMutability": "view",
      "type": "function"
    },
    {
      "inputs": [],
      "name": "renounceOwnership",
      "outputs": [],
      "stateMutability": "nonpayable",
      "type": "function"
    },
    {
      "inputs": [
        {
          "components": [
            {
              "internalType": "address",
              "name": "settlementContract",
              "type": "address"
            },
            {
              "internalType": "address",
              "name": "swapper",
              "type": "address"
            },
            {
              "internalType": "uint256",
              "name": "nonce",
              "type": "uint256"
            },
            {
              "internalType": "uint32",
              "name": "originChainId",
              "type": "uint32"
            },
            {
              "internalType": "uint32",
              "name": "initiateDeadline",
              "type": "uint32"
            },
            {
              "internalType": "uint32",
              "name": "fillDeadline",
              "type": "uint32"
            },
            {
              "internalType": "bytes",
              "name": "orderData",
              "type": "bytes"
            }
          ],
          "internalType": "struct CrossChainOrder",
          "name": "order",
          "type": "tuple"
        },
        {
          "internalType": "bytes",
          "name": "fillData",
          "type": "bytes"
        }
      ],
      "name": "resolve",
      "outputs": [
        {
          "components": [
            {
              "internalType": "address",
              "name": "settlementContract",
              "type": "address"
            },
            {
              "internalType": "address",
              "name": "swapper",
              "type": "address"
            },
            {
              "internalType": "uint256",
              "name": "nonce",
              "type": "uint256"
            },
            {
              "internalType": "uint32",
              "name": "originChainId",
              "type": "uint32"
            },
            {
              "internalType": "uint32",
              "name": "initiateDeadline",
              "type": "uint32"
            },
            {
              "internalType": "uint32",
              "name": "fillDeadline",
              "type": "uint32"
            },
            {
              "components": [
                {
                  "internalType": "address",
                  "name": "token",
                  "type": "address"
                },
                {
                  "internalType": "uint256",
                  "name": "amount",
                  "type": "uint256"
                }
              ],
              "internalType": "struct Input[]",
              "name": "swapperInputs",
              "type": "tuple[]"
            },
            {
              "components": [
                {
                  "internalType": "address",
                  "name": "token",
                  "type": "address"
                },
                {
                  "internalType": "uint256",
                  "name": "amount",
                  "type": "uint256"
                },
                {
                  "internalType": "address",
                  "name": "recipient",
                  "type": "address"
                },
                {
                  "internalType": "uint32",
                  "name": "chainId",
                  "type": "uint32"
                }
              ],
              "internalType": "struct Output[]",
              "name": "swapperOutputs",
              "type": "tuple[]"
            },
            {
              "components": [
                {
                  "internalType": "address",
                  "name": "token",
                  "type": "address"
                },
                {
                  "internalType": "uint256",
                  "name": "amount",
                  "type": "uint256"
                },
                {
                  "internalType": "address",
                  "name": "recipient",
                  "type": "address"
                },
                {
                  "internalType": "uint32",
                  "name": "chainId",
                  "type": "uint32"
                }
              ],
              "internalType": "struct Output[]",
              "name": "fillerOutputs",
              "type": "tuple[]"
            }
          ],
          "internalType": "struct ResolvedCrossChainOrder",
          "name": "resolvedOrder",
          "type": "tuple"
        }
      ],
      "stateMutability": "payable",
      "type": "function"
    },
    {
      "inputs": [
        {
          "internalType": "address",
          "name": "_delegate",
          "type": "address"
        }
      ],
      "name": "setDelegate",
      "outputs": [],
      "stateMutability": "nonpayable",
      "type": "function"
    },
    {
      "inputs": [
        {
          "internalType": "uint32",
          "name": "_eid",
          "type": "uint32"
        },
        {
          "internalType": "bytes32",
          "name": "_peer",
          "type": "bytes32"
        }
      ],
      "name": "setPeer",
      "outputs": [],
      "stateMutability": "nonpayable",
      "type": "function"
    },
    {
      "inputs": [
        {
          "internalType": "address",
          "name": "newOwner",
          "type": "address"
        }
      ],
      "name": "transferOwnership",
      "outputs": [],
      "stateMutability": "nonpayable",
      "type": "function"
    },
    {
      "inputs": [
        {
          "components": [
            {
              "internalType": "address",
              "name": "settlementContract",
              "type": "address"
            },
            {
              "internalType": "address",
              "name": "swapper",
              "type": "address"
            },
            {
              "internalType": "uint256",
              "name": "nonce",
              "type": "uint256"
            },
            {
              "internalType": "uint32",
              "name": "originChainId",
              "type": "uint32"
            },
            {
              "internalType": "uint32",
              "name": "initiateDeadline",
              "type": "uint32"
            },
            {
              "internalType": "uint32",
              "name": "fillDeadline",
              "type": "uint32"
            },
            {
              "internalType": "bytes",
              "name": "orderData",
              "type": "bytes"
            }
          ],
          "internalType": "struct CrossChainOrder",
          "name": "order",
          "type": "tuple"
        },
        {
          "internalType": "bytes",
          "name": "signature",
          "type": "bytes"
        }
      ],
      "name": "verifySignature",
      "outputs": [
        {
          "internalType": "bool",
          "name": "",
          "type": "bool"
        }
      ],
      "stateMutability": "view",
      "type": "function"
    },
    {
      "inputs": [
        {
          "internalType": "address",
          "name": "settlementContract",
          "type": "address"
        },
        {
          "internalType": "uint256",
          "name": "_chainId",
          "type": "uint256"
        },
        {
          "internalType": "uint32",
          "name": "eid",
          "type": "uint32"
        }
      ],
      "name": "whitelistSettlementContract",
      "outputs": [],
      "stateMutability": "nonpayable",
      "type": "function"
    }
  ],
  "bytecode": "0x60c06040523480156200001157600080fd5b5060405162004df438038062004df4833981016040819052620000349162000187565b82828181806001600160a01b0381166200006857604051631e4fbdf760e01b81526000600482015260240160405180910390fd5b62000073816200011a565b50600180556001600160a01b038083166080528116620000a657604051632d618d8160e21b815260040160405180910390fd5b60805160405163ca5eb5e160e01b81526001600160a01b0383811660048301529091169063ca5eb5e190602401600060405180830381600087803b158015620000ee57600080fd5b505af115801562000103573d6000803e3d6000fd5b50505060a09590955250620001c895505050505050565b600080546001600160a01b038381166001600160a01b0319831681178455604051919092169283917f8be0079c531659141344cd1fd0a4f28419497f9722a3daafe3b4186f6b6457e09190a35050565b80516001600160a01b03811681146200018257600080fd5b919050565b6000806000606084860312156200019d57600080fd5b620001a8846200016a565b9250620001b8602085016200016a565b9150604084015190509250925092565b60805160a051614b8f62000265600039600081816103dc015281816107fa0152818161113f0152818161149a015281816115f0015281816117b501528181611aaa01528181611cd00152818161226201528181612ae701528181612ce20152612e340152600081816102850152818161056301528181611f3d015281816128cb015281816130cf0152818161334201526133fb0152614b8f6000f3fe6080604052600436106101815760003560e01c80639605794e116100d1578063c9f0fee21161008a578063f2fde38b11610064578063f2fde38b146104e1578063fa9178ff14610501578063ff7bd03d14610521578063ffc374c91461054157600080fd5b8063c9f0fee21461046b578063ca5eb5e11461048b578063ed2a2d64146104ab57600080fd5b80639605794e14610397578063962fc2a3146103b75780639a8a0592146103ca578063b2639913146103fe578063bb0b6a531461041e578063bf6d01d31461044b57600080fd5b80635d357deb1161013e5780637d25a05e116101185780637d25a05e146102d45780637fef78531461030f57806382413eac1461034a5780638da5cb5b1461037957600080fd5b80635d357deb146102455780635e280f1114610273578063715018a6146102bf57600080fd5b806313137d651461018657806317442b701461019b5780631c8056eb146101c25780633400288b146101f25780633d799fd2146102125780633e0bc7c414610232575b600080fd5b61019961019436600461393d565b610561565b005b3480156101a757600080fd5b50604080516001815260026020820152015b60405180910390f35b3480156101ce57600080fd5b506101e26101dd3660046139ee565b610621565b60405190151581526020016101b9565b3480156101fe57600080fd5b5061019961020d366004613a73565b610675565b34801561021e57600080fd5b5061019961022d366004613a9f565b61068b565b610199610240366004613ac1565b6109fa565b34801561025157600080fd5b50610265610260366004613aed565b611083565b6040519081526020016101b9565b34801561027f57600080fd5b506102a77f000000000000000000000000000000000000000000000000000000000000000081565b6040516001600160a01b0390911681526020016101b9565b3480156102cb57600080fd5b5061019961109c565b3480156102e057600080fd5b506102f76102ef366004613a73565b600092915050565b6040516001600160401b0390911681526020016101b9565b34801561031b57600080fd5b5061032f61032a366004613a9f565b6110b0565b604080518251815260209283015192810192909252016101b9565b34801561035657600080fd5b506101e2610365366004613b29565b6001600160a01b0381163014949350505050565b34801561038557600080fd5b506000546001600160a01b03166102a7565b3480156103a357600080fd5b506101996103b2366004613b8f565b61122a565b6101996103c5366004613bd1565b61127c565b3480156103d657600080fd5b506102657f000000000000000000000000000000000000000000000000000000000000000081565b34801561040a57600080fd5b5061032f610419366004613c65565b611787565b34801561042a57600080fd5b50610265610439366004613c7e565b60026020526000908152604090205481565b61045e6104593660046139ee565b611861565b6040516101b99190613d50565b34801561047757600080fd5b5061032f610486366004613e25565b611eca565b34801561049757600080fd5b506101996104a6366004613e76565b611f16565b3480156104b757600080fd5b506102656104c6366004613e76565b6001600160a01b031660009081526007602052604090205490565b3480156104ed57600080fd5b506101996104fc366004613e76565b611f95565b34801561050d57600080fd5b5061032f61051c366004613a9f565b611fd3565b34801561052d57600080fd5b506101e261053c366004613e93565b612305565b34801561054d57600080fd5b5061019961055c366004613c65565b61233b565b7f00000000000000000000000000000000000000000000000000000000000000006001600160a01b031633146105b1576040516391ac5e4f60e01b81523360048201526024015b60405180910390fd5b602087018035906105cb906105c6908a613c7e565b61244b565b14610609576105dd6020880188613c7e565b60405163309afaf360e21b815263ffffffff9091166004820152602088013560248201526044016105a8565b61061887878787878787612487565b50505050505050565b600061066b61062f85613fbc565b84848080601f0160208091040260200160405190810160405280939291908181526020018383808284376000920191909152506125fe92505050565b90505b9392505050565b61067d61265b565b6106878282612688565b5050565b6106936126dd565b6000828152600560209081526040808320815160e08101835281546001600160a01b03908116825260018301541693810193909352600281015491830191909152600381015463ffffffff8082166060850152600160201b820481166080850152600160401b9091041660a083015260048101805460c08401919061071790614060565b80601f016020809104026020016040519081016040528092919081815260200182805461074390614060565b80156107905780601f1061076557610100808354040283529160200191610790565b820191906000526020600020905b81548152906001019060200180831161077357829003601f168201915b50505050508152505090506107a23390565b6001600160a01b031681602001516001600160a01b0316146107f85760405162461bcd60e51b815260206004820152600f60248201526e34b73b30b634b21039bbb0b83832b960891b60448201526064016105a8565b7f0000000000000000000000000000000000000000000000000000000000000000816060015163ffffffff16146108685760405162461bcd60e51b815260206004820152601460248201527334b73b30b634b21037b934b3b4b71031b430b4b760611b60448201526064016105a8565b600083815260096020526040902054156108b75760405162461bcd60e51b815260206004820152601060248201526f1bdc99195c881a5cc81b585d18da195960821b60448201526064016105a8565b600082116108d75760405162461bcd60e51b81526004016105a890614094565b60008160c001518060200190518101906108f191906140cb565b60208301516040519192506001600160a01b03169082156108fc029083906000818181858888f1935050505015801561092e573d6000803e3d6000fd5b506000848152600660209081526040808320546005909252822080546001600160a01b031990811682556001820180549091169055600281018390556003810180546bffffffffffffffffffffffff1916905590916109906004830182613822565b505060008581526006602090815260408083208390556009825280832083905560089091528120556109c3858286612707565b60405185907ff2503063536670d4ae6671a02eaab3a0174b1d36d85146ce8bd76913eae1d49890600090a250505061068760018055565b6000838152600560209081526040808320815160e08101835281546001600160a01b03908116825260018301541693810193909352600281015491830191909152600381015463ffffffff8082166060850152600160201b820481166080850152600160401b9091041660a083015260048101805460c084019190610a7e90614060565b80601f0160208091040260200160405190810160405280929190818152602001828054610aaa90614060565b8015610af75780601f10610acc57610100808354040283529160200191610af7565b820191906000526020600020905b815481529060010190602001808311610ada57829003601f168201915b5050509190925250505060208101519091506001600160a01b0316610b565760405162461bcd60e51b81526020600482015260156024820152741bdc99195c881048191bd95cdb89dd08195e1a5cdd605a1b60448201526064016105a8565b6000838152600560209081526040808320815160e08101835281546001600160a01b03908116825260018301541693810193909352600281015491830191909152600381015463ffffffff8082166060850152600160201b820481166080850152600160401b9091041660a083015260048101805460c084019190610bda90614060565b80601f0160208091040260200160405190810160405280929190818152602001828054610c0690614060565b8015610c535780601f10610c2857610100808354040283529160200191610c53565b820191906000526020600020905b815481529060010190602001808311610c3657829003601f168201915b5050509190925250505060208101519091506001600160a01b0316610cb25760405162461bcd60e51b81526020600482015260156024820152741bdc99195c881088191bd95cdb89dd08195e1a5cdd605a1b60448201526064016105a8565b60008581526009602052604090205415610d0e5760405162461bcd60e51b815260206004820152601760248201527f6f72646572204120616c7265616479206d61746368656400000000000000000060448201526064016105a8565b60008481526009602052604090205415610d6a5760405162461bcd60e51b815260206004820152601760248201527f6f72646572204220616c7265616479206d61746368656400000000000000000060448201526064016105a8565b428260a0015163ffffffff1611610dbc5760405162461bcd60e51b8152602060048201526016602482015275696e76616c69642066696c6c446561646c696e65204160501b60448201526064016105a8565b428160a0015163ffffffff1611610e0e5760405162461bcd60e51b815260206004820152601660248201527534b73b30b634b2103334b6362232b0b23634b732902160511b60448201526064016105a8565b42826080015163ffffffff1611610e675760405162461bcd60e51b815260206004820152601a60248201527f696e76616c696420696e697469617465446561646c696e65204100000000000060448201526064016105a8565b42816080015163ffffffff1611610ec05760405162461bcd60e51b815260206004820152601a60248201527f696e76616c696420696e697469617465446561646c696e65204200000000000060448201526064016105a8565b823414610edf5760405162461bcd60e51b81526004016105a890614094565b60008260c00151806020019051810190610ef991906140cb565b905060008260c00151806020019051810190610f1591906140cb565b9050808214610f5f5760405162461bcd60e51b81526020600482015260166024820152750d2dce0eae840c2dadeeadce8e640dad2e6dac2e8c6d60531b60448201526064016105a8565b606083015160008881526006602052604090205463ffffffff909116148015610fa15750606084015160008781526006602052604090205463ffffffff909116145b610fed5760405162461bcd60e51b815260206004820152601b60248201527f64657374696e6174696f6e20636861696e73206d69736d61746368000000000060448201526064016105a8565b600087815260086020908152604080832042908190558984528184208190558a84526009909252808320899055888352909120889055606084015161103e9089908990849063ffffffff168a6127a1565b86887f1aee23318ace74c1893db3e517937c0e6a32fb0332ea01c816ed4d1467d11c3e8360405161107191815260200190565b60405180910390a35050505050505050565b600061109661109183613fbc565b6127f8565b92915050565b6110a461265b565b6110ae6000612828565b565b60408051808201909152600080825260208201526000838152600560205260409020600101546001600160a01b03166110fb5760405162461bcd60e51b81526004016105a8906140e4565b6000828152600560205260409020600101546001600160a01b03166111325760405162461bcd60e51b81526004016105a890614114565b61066e60046000600660007f0000000000000000000000000000000000000000000000000000000000000000600660008a8152602001908152602001600020541461117d578761117f565b865b815260200190815260200160002054815260200190815260200160002060009054906101000a900463ffffffff166040518060400160405280600260038111156111cb576111cb614144565b81526040805160208181018a90529181018890524260608201529101906080015b60408051601f1981840301815291815291525161120c91906020016141aa565b604051602081830303815290604052611223612878565b60006128b5565b61123261265b565b6001600160a01b039092166000908152600360209081526040808320805460ff191660011790559282526004905220805463ffffffff90921663ffffffff19909216919091179055565b6112846126dd565b6112cc61129086613fbc565b85858080601f0160208091040260200160405190810160405280939291908181526020018383808284376000920191909152506125fe92505050565b61130c5760405162461bcd60e51b8152602060048201526011602482015270696e76616c6964207369676e617475726560781b60448201526064016105a8565b6003600061131d6020880188613e76565b6001600160a01b0316815260208101919091526040016000205460ff166113865760405162461bcd60e51b815260206004820152601860248201527f736574746c656d656e74206e6f7420737570706f72746564000000000000000060448201526064016105a8565b4261139760c0870160a08801613c7e565b63ffffffff16116113e15760405162461bcd60e51b8152602060048201526014602482015273696e76616c69642066696c6c446561646c696e6560601b60448201526064016105a8565b426113f260a0870160808801613c7e565b63ffffffff16116114455760405162461bcd60e51b815260206004820152601860248201527f696e76616c696420696e697469617465446561646c696e65000000000000000060448201526064016105a8565b33600090815260076020526040908190205490860135146114985760405162461bcd60e51b815260206004820152600d60248201526c696e76616c6964206e6f6e636560981b60448201526064016105a8565b7f00000000000000000000000000000000000000000000000000000000000000006114c96080870160608801613c7e565b63ffffffff16146115145760405162461bcd60e51b81526020600482015260156024820152741a5b9d985b1a59081bdc9a59da5b90da185a5b9259605a1b60448201526064016105a8565b336115256040870160208801613e76565b6001600160a01b03161461156d5760405162461bcd60e51b815260206004820152600f60248201526e34b73b30b634b21039bbb0b83832b960891b60448201526064016105a8565b600061157c60c08701876141ef565b8101906115899190613c65565b9050600081116115db5760405162461bcd60e51b815260206004820152601960248201527f696e73756666696369656e7420696e70757420616d6f756e740000000000000060448201526064016105a8565b6000806115ea84860186613a9f565b915091507f0000000000000000000000000000000000000000000000000000000000000000820361165d5760405162461bcd60e51b815260206004820152601f60248201527f6465737420636861696e206964206d75737420626520646966666572656e740060448201526064016105a8565b611667818461424b565b34146116ae5760405162461bcd60e51b8152602060048201526016602482015275696e73756666696369656e74206d73672e76616c756560501b60448201526064016105a8565b600081116116ce5760405162461bcd60e51b81526004016105a890614094565b60006116dc6110918a613fbc565b600081815260056020526040902090915089906116f98282614392565b505060008181526006602090815260408083208690553383526007909152812080546001929061172a90849061424b565b9091555061173b905089848461298d565b807f2952d12adb64a657dc2f54e4263d91d1e436254a0bd4472a3c316eec49d37d0c8a60405161176b91906144d5565b60405180910390a25050505061178060018055565b5050505050565b604080518082019091526000808252602082015260008281526005602052604090206003015463ffffffff167f0000000000000000000000000000000000000000000000000000000000000000146118185760405162461bcd60e51b81526020600482015260146024820152731bdc99195c88191bd95cc81b9bdd08195e1a5cdd60621b60448201526064016105a8565b6000828152600660209081526040808320548352600482529182902054825180840184526001815283518084018790526110969463ffffffff90931693919291830191016111ec565b6118d460405180610120016040528060006001600160a01b0316815260200160006001600160a01b0316815260200160008152602001600063ffffffff168152602001600063ffffffff168152602001600063ffffffff1681526020016060815260200160608152602001606081525090565b6118dc6126dd565b60006118ea61109186613fbc565b6000818152600560205260409020600101549091506001600160a01b03166119465760405162461bcd60e51b815260206004820152600f60248201526e1bdc99195c881b9bdd08199bdd5b99608a1b60448201526064016105a8565b600081815260096020908152604080832054835260058252808320815160e08101835281546001600160a01b03908116825260018301541693810193909352600281015491830191909152600381015463ffffffff8082166060850152600160201b820481166080850152600160401b9091041660a083015260048101805460c0840191906119d490614060565b80601f0160208091040260200160405190810160405280929190818152602001828054611a0090614060565b8015611a4d5780601f10611a2257610100808354040283529160200191611a4d565b820191906000526020600020905b815481529060010190602001808311611a3057829003601f168201915b5050509190925250505060208101519091506001600160a01b0316611aa85760405162461bcd60e51b81526020600482015260116024820152701bdc99195c881b9bdd081b585d18da1959607a1b60448201526064016105a8565b7f0000000000000000000000000000000000000000000000000000000000000000611ad96080880160608901613c7e565b63ffffffff1614611b235760405162461bcd60e51b815260206004820152601460248201527334b73b30b634b21037b934b3b4b71031b430b4b760611b60448201526064016105a8565b6000611b3260c08801886141ef565b810190611b3f9190613c65565b60208301516040519192506001600160a01b03169082156108fc029083906000818181858888f19350505050158015611b7c573d6000803e3d6000fd5b506000611b8b86880188613c65565b905060008111611bad5760405162461bcd60e51b81526004016105a890614094565b611bd0611bb989613fbc565b6000868152600660205260409020548590846129cb565b604080516001808252818301909252600091816020015b6040805180820190915260008082526020820152815260200190600190039081611be7579050509050604051806040016040528060006001600160a01b031681526020018481525081600081518110611c4257611c4261458a565b6020908102919091010152604080516001808252818301909252600091816020015b604080516080810182526000808252602080830182905292820181905260608201528252600019909201910181611c64579050509050604051806080016040528060006001600160a01b0316815260200185815260200186602001516001600160a01b031681526020017f000000000000000000000000000000000000000000000000000000000000000063ffffffff1681525081600081518110611d0b57611d0b61458a565b6020908102919091010152604080516001808252818301909252600091816020015b604080516080810182526000808252602080830182905292820181905260608201528252600019909201910181611d2d579050509050604051806080016040528060006001600160a01b031681526020018681526020018c6020016020810190611d979190613e76565b6001600160a01b03168152602001876060015163ffffffff1681525081600081518110611dc657611dc661458a565b6020026020010181905250604051806101200160405280306001600160a01b031681526020018c6020016020810190611dff9190613e76565b6001600160a01b031681526040808e0135602083015201611e2660808e0160608f01613c7e565b63ffffffff168152602001611e4160a08e0160808f01613c7e565b63ffffffff168152602001611e5c60c08e0160a08f01613c7e565b63ffffffff168152602001848152602001828152602001838152509750611e82866127f8565b877fae2bf94a893ecab9815915bb39d80602cf3e8cb3a0220221ec597999d60905738a604051611eb29190613d50565b60405180910390a35050505050505061066e60018055565b604080518082019091526000808252602082015261066e82604051806040016040528060006003811115611f0057611f00614144565b8152602001866040516020016111ec91906144d5565b611f1e61265b565b60405163ca5eb5e160e01b81526001600160a01b0382811660048301527f0000000000000000000000000000000000000000000000000000000000000000169063ca5eb5e190602401600060405180830381600087803b158015611f8157600080fd5b505af1158015611780573d6000803e3d6000fd5b611f9d61265b565b6001600160a01b038116611fc757604051631e4fbdf760e01b8152600060048201526024016105a8565b611fd081612828565b50565b60408051808201909152600080825260208201526000838152600560209081526040808320815160e08101835281546001600160a01b03908116825260018301541693810193909352600281015491830191909152600381015463ffffffff8082166060850152600160201b820481166080850152600160401b9091041660a083015260048101805460c08401919061206b90614060565b80601f016020809104026020016040519081016040528092919081815260200182805461209790614060565b80156120e45780601f106120b9576101008083540402835291602001916120e4565b820191906000526020600020905b8154815290600101906020018083116120c757829003601f168201915b505050919092525050506000848152600560209081526040808320815160e08101835281546001600160a01b03908116825260018301541693810193909352600281015491830191909152600381015463ffffffff8082166060850152600160201b820481166080850152600160401b9091041660a083015260048101805494955092939192909160c08401919061217b90614060565b80601f01602080910402602001604051908101604052809291908181526020018280546121a790614060565b80156121f45780601f106121c9576101008083540402835291602001916121f4565b820191906000526020600020905b8154815290600101906020018083116121d757829003601f168201915b5050509190925250505060208301519091506001600160a01b031661222b5760405162461bcd60e51b81526004016105a8906140e4565b60208101516001600160a01b03166122555760405162461bcd60e51b81526004016105a890614114565b6122fc60046000600660007f0000000000000000000000000000000000000000000000000000000000000000876060015163ffffffff16146122975788612299565b895b815260200190815260200160002054815260200190815260200160002060009054906101000a900463ffffffff1660405180604001604052806003808111156122e4576122e4614144565b815260200184866040516020016111ec92919061460b565b95945050505050565b600060208201803590600290839061231d9086613c7e565b63ffffffff1681526020810191909152604001600020541492915050565b6000818152600960205260409020548061238b5760405162461bcd60e51b81526020600482015260116024820152701bdc99195c881b9bdd081b585d18da1959607a1b60448201526064016105a8565b6000828152600860205260409020546123a68161012c61424b565b42116123e85760405162461bcd60e51b81526020600482015260116024820152701b585d18da081b9bdd08195e1c1a5c9959607a1b60448201526064016105a8565b60008381526008602090815260408083208390558483528083208390558583526009909152808220829055838252812055604051829084907f7e3d72398aa2625ef2e29633991f10f8fa8d91a2f165fd6a122f2862ab1cccdf90600090a3505050565b63ffffffff8116600090815260026020526040812054806110965760405163f6ff4fb760e01b815263ffffffff841660048201526024016105a8565b600061249585870187614630565b90506000815160038111156124ac576124ac614144565b036124dc57600081602001518060200190518101906124cb91906147a8565b90506124d681612a0c565b506125f4565b6001815160038111156124f1576124f1614144565b0361251b576000816020015180602001905181019061251091906140cb565b90506124d681612b44565b60028151600381111561253057612530614144565b0361256b576000806000836020015180602001905181019061255291906147dc565b925092509250612563838383612be3565b5050506125f4565b60038151600381111561258057612580614144565b036125b55760008082602001518060200190518101906125a0919061480a565b915091506125ae8282612c50565b50506125f4565b60405162461bcd60e51b8152602060048201526014602482015273696e76616c6964206d657373616765207479706560601b60448201526064016105a8565b5050505050505050565b60003361264a83612644612611876127f8565b7f19457468657265756d205369676e6564204d6573736167653a0a3332000000006000908152601c91909152603c902090565b90613072565b6001600160a01b0316149392505050565b6000546001600160a01b031633146110ae5760405163118cdaa760e01b81523360048201526024016105a8565b63ffffffff8216600081815260026020908152604091829020849055815192835282018390527f238399d427b947898edb290f5ff0f9109849b1c3ba196a42e35f00c50a54b98b910160405180910390a15050565b60026001540361270057604051633ee5aeb560e01b815260040160405180910390fd5b6002600155565b6000828152600460205260409081902054815180830190925261279b9163ffffffff9091169080600181526020018660405160200161274891815260200190565b60408051601f1981840301815291815291525161276891906020016141aa565b60405160208183030381529060405261277f612878565b604051806040016040528086815260200160008152503361309c565b50505050565b600082815260046020526040908190205481518083019092526127f09163ffffffff9091169080600281526040805160208181018c90529181018a905260608101899052910190608001612748565b505050505050565b60008160405160200161280b919061486d565b604051602081830303815290604052805190602001209050919050565b600080546001600160a01b038381166001600160a01b0319831681178455604051919092169283917f8be0079c531659141344cd1fd0a4f28419497f9722a3daafe3b4186f6b6457e09190a35050565b60606128b06207a12060006128a960408051600360f01b602082015281516002818303018152602290910190915290565b91906131a7565b905090565b60408051808201909152600080825260208201527f00000000000000000000000000000000000000000000000000000000000000006001600160a01b031663ddc28c586040518060a001604052808863ffffffff1681526020016129188961244b565b8152602001878152602001868152602001851515815250306040518363ffffffff1660e01b815260040161294d929190614880565b6040805180830381865afa158015612969573d6000803e3d6000fd5b505050506040513d601f19601f820116820180604052508101906122fc9190614929565b60008281526004602052604080822054815180830190925261279b9263ffffffff9091169190819081526020018660405160200161274891906144d5565b600082815260046020526040908190205481518083019092526117809163ffffffff909116908060038152602001868860405160200161274892919061460b565b6000612a17826127f8565b600081815260056020908152604091829020855181546001600160a01b039182166001600160a01b031991821617835592870151600183018054919092169316929092179091559084015160028201556060840151600382018054608087015160a088015163ffffffff908116600160401b0263ffffffff60401b19928216600160201b0267ffffffffffffffff199094169190951617919091171691909117905560c084015191925083916004820190612ad29082614945565b505050600081815260066020526040908190207f000000000000000000000000000000000000000000000000000000000000000090555181907f2952d12adb64a657dc2f54e4263d91d1e436254a0bd4472a3c316eec49d37d0c90612b3890859061486d565b60405180910390a25050565b600081815260056020526040812080546001600160a01b031990811682556001820180549091169055600281018290556003810180546bffffffffffffffffffffffff1916905590612b996004830182613822565b5050600081815260066020908152604080832083905560089091528082208290555182917ff2503063536670d4ae6671a02eaab3a0174b1d36d85146ce8bd76913eae1d49891a250565b600083815260086020908152604080832084905584835280832084905585835260098252808320859055848352918290208590559051828152839185917f1aee23318ace74c1893db3e517937c0e6a32fb0332ea01c816ed4d1467d11c3e910160405180910390a3505050565b6000600581612c5e856127f8565b81526020810191909152604001600020600101546001600160a01b031603612c985760405162461bcd60e51b81526004016105a8906140e4565b6000600581612ca6846127f8565b81526020810191909152604001600020600101546001600160a01b031603612ce05760405162461bcd60e51b81526004016105a890614114565b7f0000000000000000000000000000000000000000000000000000000000000000826060015163ffffffff1614612d595760405162461bcd60e51b815260206004820152601760248201527f696e76616c6964206f726967696e20636861696e20696400000000000000000060448201526064016105a8565b60008260c00151806020019051810190612d7391906140cb565b60208301516040519192506001600160a01b03169082156108fc029083906000818181858888f19350505050158015612db0573d6000803e3d6000fd5b50604080516001808252818301909252600091816020015b604080516080810182526000808252602080830182905292820181905260608201528252600019909201910181612dc8579050509050604051806080016040528060006001600160a01b0316815260200183815260200184602001516001600160a01b031681526020017f000000000000000000000000000000000000000000000000000000000000000063ffffffff1681525081600081518110612e6f57612e6f61458a565b6020908102919091010152604080516001808252818301909252600091816020015b604080516080810182526000808252602080830182905292820181905260608201528252600019909201910181612e91579050509050604051806080016040528060006001600160a01b0316815260200184815260200186602001516001600160a01b03168152602001866060015163ffffffff1681525081600081518110612f1c57612f1c61458a565b6020908102919091010152604080516001808252818301909252600091816020015b6040805180820190915260008082526020820152815260200190600190039081612f3e579050509050604051806040016040528060006001600160a01b031681526020018581525081600081518110612f9957612f9961458a565b60200260200101819052506000604051806101200160405280306001600160a01b0316815260200188602001516001600160a01b0316815260200188604001518152602001886060015163ffffffff168152602001886080015163ffffffff1681526020018860a0015163ffffffff168152602001838152602001848152602001858152509050613029866127f8565b613032886127f8565b7fae2bf94a893ecab9815915bb39d80602cf3e8cb3a0220221ec597999d6090573836040516130619190613d50565b60405180910390a350505050505050565b600080600080613082868661320f565b925092509250613092828261325c565b5090949350505050565b6130a461385c565b60006130b38460000151613315565b6020850151909150156130cd576130cd846020015161333e565b7f00000000000000000000000000000000000000000000000000000000000000006001600160a01b0316632637a450826040518060a001604052808b63ffffffff16815260200161311d8c61244b565b81526020018a815260200189815260200160008960200151111515815250866040518463ffffffff1660e01b8152600401613159929190614880565b60806040518083038185885af1158015613177573d6000803e3d6000fd5b50505050506040513d601f19601f8201168201806040525081019061319c9190614a04565b979650505050505050565b60608360036131b7826000613420565b61ffff16146131eb576131cb816000613420565b604051633a51740d60e01b815261ffff90911660048201526024016105a8565b60006131f7858561347d565b9050613205866001836134ff565b9695505050505050565b600080600083516041036132495760208401516040850151606086015160001a61323b8882858561356a565b955095509550505050613255565b50508151600091506002905b9250925092565b600082600381111561327057613270614144565b03613279575050565b600182600381111561328d5761328d614144565b036132ab5760405163f645eedf60e01b815260040160405180910390fd5b60028260038111156132bf576132bf614144565b036132e05760405163fce698f760e01b8152600481018290526024016105a8565b60038260038111156132f4576132f4614144565b03610687576040516335e2f38360e21b8152600481018290526024016105a8565b60008134101561333a576040516304fb820960e51b81523460048201526024016105a8565b5090565b60007f00000000000000000000000000000000000000000000000000000000000000006001600160a01b031663e4fe1d946040518163ffffffff1660e01b8152600401602060405180830381865afa15801561339e573d6000803e3d6000fd5b505050506040513d601f19601f820116820180604052508101906133c29190614a75565b90506001600160a01b0381166133eb576040516329b99a9560e11b815260040160405180910390fd5b6106876001600160a01b038216337f000000000000000000000000000000000000000000000000000000000000000085613639565b600061342d82600261424b565b835110156134745760405162461bcd60e51b8152602060048201526014602482015273746f55696e7431365f6f75744f66426f756e647360601b60448201526064016105a8565b50016002015190565b60606fffffffffffffffffffffffffffffffff8216156134ce57604080516001600160801b0319608086811b8216602084015285901b1660308201520160405160208183030381529060405261066e565b6040516001600160801b0319608085901b166020820152603001604051602081830303815290604052905092915050565b606083600361350f826000613420565b61ffff1614613523576131cb816000613420565b8460016135308551613693565b61353b906001614a92565b8686604051602001613551959493929190614ab4565b6040516020818303038152906040529150509392505050565b600080807f7fffffffffffffffffffffffffffffff5d576e7357a4501ddfe92f46681b20a08411156135a5575060009150600390508261362f565b604080516000808252602082018084528a905260ff891692820192909252606081018790526080810186905260019060a0016020604051602081039080840390855afa1580156135f9573d6000803e3d6000fd5b5050604051601f1901519150506001600160a01b0381166136255750600092506001915082905061362f565b9250600091508190505b9450945094915050565b604080516001600160a01b0385811660248301528416604482015260648082018490528251808303909101815260849091019091526020810180516001600160e01b03166323b872dd60e01b17905261279b9085906136c2565b600061ffff82111561333a576040516306dfcc6560e41b815260106004820152602481018390526044016105a8565b60006136d76001600160a01b0384168361372a565b905080516000141580156136fc5750808060200190518101906136fa9190614b1b565b155b1561372557604051635274afe760e01b81526001600160a01b03841660048201526024016105a8565b505050565b606061066e8383600084600080856001600160a01b031684866040516137509190614b3d565b60006040518083038185875af1925050503d806000811461378d576040519150601f19603f3d011682016040523d82523d6000602084013e613792565b606091505b50915091506132058683836060826137b2576137ad826137f9565b61066e565b81511580156137c957506001600160a01b0384163b155b156137f257604051639996b31560e01b81526001600160a01b03851660048201526024016105a8565b508061066e565b8051156138095780518082602001fd5b604051630a12f52160e11b815260040160405180910390fd5b50805461382e90614060565b6000825580601f1061383e575050565b601f016020900490600052602060002090810190611fd091906138a3565b60405180606001604052806000801916815260200160006001600160401b0316815260200161389e604051806040016040528060008152602001600081525090565b905290565b5b8082111561333a57600081556001016138a4565b6000606082840312156138ca57600080fd5b50919050565b60008083601f8401126138e257600080fd5b5081356001600160401b038111156138f957600080fd5b60208301915083602082850101111561391157600080fd5b9250929050565b6001600160a01b0381168114611fd057600080fd5b803561393881613918565b919050565b600080600080600080600060e0888a03121561395857600080fd5b61396289896138b8565b96506060880135955060808801356001600160401b038082111561398557600080fd5b6139918b838c016138d0565b909750955060a08a013591506139a682613918565b90935060c089013590808211156139bc57600080fd5b506139c98a828b016138d0565b989b979a50959850939692959293505050565b600060e082840312156138ca57600080fd5b600080600060408486031215613a0357600080fd5b83356001600160401b0380821115613a1a57600080fd5b613a26878388016139dc565b94506020860135915080821115613a3c57600080fd5b50613a49868287016138d0565b9497909650939450505050565b63ffffffff81168114611fd057600080fd5b803561393881613a56565b60008060408385031215613a8657600080fd5b8235613a9181613a56565b946020939093013593505050565b60008060408385031215613ab257600080fd5b50508035926020909101359150565b600080600060608486031215613ad657600080fd5b505081359360208301359350604090920135919050565b600060208284031215613aff57600080fd5b81356001600160401b03811115613b1557600080fd5b613b21848285016139dc565b949350505050565b60008060008060a08587031215613b3f57600080fd5b613b4986866138b8565b935060608501356001600160401b03811115613b6457600080fd5b613b70878288016138d0565b9094509250506080850135613b8481613918565b939692955090935050565b600080600060608486031215613ba457600080fd5b8335613baf81613918565b9250602084013591506040840135613bc681613a56565b809150509250925092565b600080600080600060608688031215613be957600080fd5b85356001600160401b0380821115613c0057600080fd5b613c0c89838a016139dc565b96506020880135915080821115613c2257600080fd5b613c2e89838a016138d0565b90965094506040880135915080821115613c4757600080fd5b50613c54888289016138d0565b969995985093965092949392505050565b600060208284031215613c7757600080fd5b5035919050565b600060208284031215613c9057600080fd5b813561066e81613a56565b60008151808452602080850194506020840160005b83811015613ce057815180516001600160a01b031688528301518388015260409096019590820190600101613cb0565b509495945050505050565b60008151808452602080850194506020840160005b83811015613ce057815180516001600160a01b03908116895284820151858a01526040808301519091169089015260609081015163ffffffff169088015260809096019590820190600101613d00565b60208152613d6a6020820183516001600160a01b03169052565b60006020830151613d8660408401826001600160a01b03169052565b50604083015160608301526060830151613da8608084018263ffffffff169052565b50608083015163ffffffff811660a08401525060a083015163ffffffff811660c08401525060c08301516101208060e0850152613de9610140850183613c9b565b915060e0850151601f19610100818786030181880152613e098584613ceb565b9088015187820390920184880152935090506132058382613ceb565b60008060408385031215613e3857600080fd5b82356001600160401b03811115613e4e57600080fd5b613e5a858286016139dc565b9250506020830135613e6b81613a56565b809150509250929050565b600060208284031215613e8857600080fd5b813561066e81613918565b600060608284031215613ea557600080fd5b61066e83836138b8565b634e487b7160e01b600052604160045260246000fd5b60405160e081016001600160401b0381118282101715613ee757613ee7613eaf565b60405290565b604080519081016001600160401b0381118282101715613ee757613ee7613eaf565b604051601f8201601f191681016001600160401b0381118282101715613f3757613f37613eaf565b604052919050565b60006001600160401b03821115613f5857613f58613eaf565b50601f01601f191660200190565b600082601f830112613f7757600080fd5b8135613f8a613f8582613f3f565b613f0f565b818152846020838601011115613f9f57600080fd5b816020850160208301376000918101602001919091529392505050565b600060e08236031215613fce57600080fd5b613fd6613ec5565b613fdf8361392d565b8152613fed6020840161392d565b60208201526040830135604082015261400860608401613a68565b606082015261401960808401613a68565b608082015261402a60a08401613a68565b60a082015260c08301356001600160401b0381111561404857600080fd5b61405436828601613f66565b60c08301525092915050565b600181811c9082168061407457607f821691505b6020821081036138ca57634e487b7160e01b600052602260045260246000fd5b60208082526018908201527f696e73756666696369656e74206d657373616765206665650000000000000000604082015260600190565b6000602082840312156140dd57600080fd5b5051919050565b6020808252601690820152751bdc99195c881048191bd95cc81b9bdd08195e1a5cdd60521b604082015260600190565b6020808252601690820152751bdc99195c881088191bd95cc81b9bdd08195e1a5cdd60521b604082015260600190565b634e487b7160e01b600052602160045260246000fd5b60005b8381101561417557818101518382015260200161415d565b50506000910152565b6000815180845261419681602086016020860161415a565b601f01601f19169290920160200192915050565b6020815260008251600481106141d057634e487b7160e01b600052602160045260246000fd5b806020840152506020830151604080840152613b21606084018261417e565b6000808335601e1984360301811261420657600080fd5b8301803591506001600160401b0382111561422057600080fd5b60200191503681900382131561391157600080fd5b634e487b7160e01b600052601160045260246000fd5b8082018082111561109657611096614235565b80546001600160a01b0319166001600160a01b0392909216919091179055565b6000813561109681613a56565b601f821115613725576000816000526020600020601f850160051c810160208610156142b45750805b601f850160051c820191505b818110156127f0578281556001016142c0565b6001600160401b038311156142ea576142ea613eaf565b6142fe836142f88354614060565b8361428b565b6000601f841160018114614332576000851561431a5750838201355b600019600387901b1c1916600186901b178355611780565b600083815260209020601f19861690835b828110156143635786850135825560209485019460019092019101614343565b50868210156143805760001960f88860031b161c19848701351681555b505060018560011b0183555050505050565b813561439d81613918565b6143a7818361425e565b5060208201356143b681613918565b6143c3816001840161425e565b50604082013560028201556003810160608301356143e081613a56565b815460808501356143f081613a56565b67ffffffff000000008160201b1663ffffffff84166001600160401b031984161717845550505061444b61442660a0850161427e565b825463ffffffff60401b191660409190911b6bffffffff000000000000000016178255565b5061445960c08301836141ef565b61279b8183600486016142d3565b6000808335601e1984360301811261447e57600080fd5b83016020810192503590506001600160401b0381111561449d57600080fd5b80360382131561391157600080fd5b81835281816020850137506000828201602090810191909152601f909101601f19169091010190565b60208152600082356144e681613918565b6001600160a01b039081166020848101919091528401359061450782613918565b8082166040850152505060408301356060830152606083013561452981613a56565b63ffffffff811660808401525061454260808401613a68565b63ffffffff811660a08401525061455b60a08401613a68565b63ffffffff811660c08401525061457560c0840184614467565b60e0808501526122fc610100850182846144ac565b634e487b7160e01b600052603260045260246000fd5b600060018060a01b038083511684528060208401511660208501525060408201516040840152606082015163ffffffff80821660608601528060808501511660808601528060a08501511660a0860152505060c082015160e060c0850152613b2160e085018261417e565b60408152600061461e60408301856145a0565b82810360208401526122fc81856145a0565b60006020828403121561464257600080fd5b81356001600160401b038082111561465957600080fd5b908301906040828603121561466d57600080fd5b614675613eed565b82356004811061468457600080fd5b815260208301358281111561469857600080fd5b6146a487828601613f66565b60208301525095945050505050565b805161393881613918565b805161393881613a56565b600082601f8301126146da57600080fd5b81516146e8613f8582613f3f565b8181528460208386010111156146fd57600080fd5b613b2182602083016020870161415a565b600060e0828403121561472057600080fd5b614728613ec5565b9050614733826146b3565b8152614741602083016146b3565b60208201526040820151604082015261475c606083016146be565b606082015261476d608083016146be565b608082015261477e60a083016146be565b60a082015260c08201516001600160401b0381111561479c57600080fd5b614054848285016146c9565b6000602082840312156147ba57600080fd5b81516001600160401b038111156147d057600080fd5b613b218482850161470e565b6000806000606084860312156147f157600080fd5b8351925060208401519150604084015190509250925092565b6000806040838503121561481d57600080fd5b82516001600160401b038082111561483457600080fd5b6148408683870161470e565b9350602085015191508082111561485657600080fd5b506148638582860161470e565b9150509250929050565b60208152600061066e60208301846145a0565b6040815263ffffffff8351166040820152602083015160608201526000604084015160a060808401526148b660e084018261417e565b90506060850151603f198483030160a08501526148d3828261417e565b60809690960151151560c08501525050506001600160a01b039190911660209091015290565b60006040828403121561490b57600080fd5b614913613eed565b9050815181526020820151602082015292915050565b60006040828403121561493b57600080fd5b61066e83836148f9565b81516001600160401b0381111561495e5761495e613eaf565b6149728161496c8454614060565b8461428b565b602080601f8311600181146149a7576000841561498f5750858301515b600019600386901b1c1916600185901b1785556127f0565b600085815260208120601f198616915b828110156149d6578886015182559484019460019091019084016149b7565b50858210156149f45787850151600019600388901b60f8161c191681555b5050505050600190811b01905550565b600060808284031215614a1657600080fd5b604051606081016001600160401b038282108183111715614a3957614a39613eaf565b8160405284518352602085015191508082168214614a5657600080fd5b506020820152614a6984604085016148f9565b60408201529392505050565b600060208284031215614a8757600080fd5b815161066e81613918565b61ffff818116838216019080821115614aad57614aad614235565b5092915050565b60008651614ac6818460208b0161415a565b6001600160f81b031960f888811b82169285019283526001600160f01b031960f089901b16600184015286901b1660038201528351614b0c81600484016020880161415a565b01600401979650505050505050565b600060208284031215614b2d57600080fd5b8151801515811461066e57600080fd5b60008251614b4f81846020870161415a565b919091019291505056fea26469706673582212204c8ec6d4c847126582ac51e3f177c307652d4e201f8ac2dd2145d69d5c681ea964736f6c63430008160033",
  "linkReferences": {},
  "deployedLinkReferences": {}
}